:020000040800F2
:10000000F84E00209901000885490008F92F0008E2
:100010006D350008590E0008396100080000000025
:1000200000000000000000000000000001010008C6
:100030001D0F00080000000045010008315D0008A8
:10004000B3010008B3010008B3010008B3010008C0
:10005000B3010008B3010008B3010008B3010008B0
:10006000B3010008B3010008B3010008B3010008A0
:10007000B3010008B3010008B3010008B301000890
:10008000B3010008B3010008B3010008B301000880
:10009000B3010008B3010008B3010008B301000870
:1000A000B3010008B3010008B3010008B301000860
:1000B000E15D0008B3010008B3010008B3010008C6
:1000C000B3010008B3010008B3010008B301000840
:1000D000B301000821610008B30100082D61000888
:1000E000B3010008B3010008B3010008DFF80CD029
:1000F00000F09AFD00480047FD6F0008F84E002010
:10010000224B19680868B0E8F00F80F30988BFF344
:100110006F8F4FF0000080F311884EF00D0E704786
:100120000000000006480068006880F3088862B696
:1001300061B6BFF34F8FBFF36F8F00DF00BF00BF0B
:1001400008ED00E0EFF30980BFF36F8F0F4B1A68E3
:1001500020E9F00F106008B54FF0500080F31188CF
:10016000BFF34F8FBFF36F8F09F058FA4FF00000C5
:1001700080F31188BDE8084019680868B0E8F00FFE
:1001800080F30988BFF36F8F704700BF48000020DD
:10019000EFF3058070470000064880470648004797
:1001A000FEE7FEE7FEE7FEE7FEE7FEE7FEE7FEE727
:1001B000FEE7FEE7DF5D0008ED000008202A04DB13
:1001C000203A21FA02F00021704721FA02F3D040D0
:1001D000C2F120029140084319467047A0F1410145
:1001E000192900D82030704738B5D0E90221491EBE
:1001F00001EB410102EBC1014268C1EB011102EBCD
:1002000081010268C1EB011102EB8102D0E90431E6
:1002100001EB410103EB81013023A1F5527191FB08
:10022000F3F4174D6C4302EBC41291FBF3F403FBA0
:10023000141100921A2902DB124B1A4400920C226C
:1002400091FBF2F3104C6343009C04EBC313009347
:1002500091FBF2F302FB13110C4A08E0491E40F235
:10026000A324535C6343009C04EBC3130093002955
:10027000F4DC0146684600F0CDFB009838BD000074
:100280003F0C0F008051010067C20300B8A20008B4
:1002900010B5431A934209D28318881803E010F866
:1002A000011D03F8011D521EF9D210BD40EA0103E1
:1002B0009B0703D009E008C9121F08C0042AFAD21C
:1002C00003E011F8013B00F8013B521EF9D210BDCA
:1002D000D2B201E000F8012B491EFBD27047002288
:1002E000F6E710B513460A4604461946FFF7F0FF35
:1002F000204610BD421E12F8013F002BFBD111F821
:10030000013B02F8013B002BF9D1704730B505469F
:100310002A460B4612F8010B13F8014B08B1A04214
:10032000F8D01CB1002802D06D1CF1E7284630BD82
:10033000CAB2401E10F8011F8A4202D00029F9D12A
:1003400000207047421C10F8011B0029FBD1801AC5
:100350007047034611F8012B00F8012B002AF9D150
:100360001846704730B505460020034600E05B1C88
:10037000934205D2EC5CC85C201A01D1002CF6D166
:1003800030BD80EA010210B502F00043400022D0E7
:100390004A001FD0010E01EB1261C0F35600C2F3F8
:1003A000560240F4000042F40002A0FB02200004C8
:1003B0007F39140400D0401C50EA124001D44000A0
:1003C000491EC2B20C0604EBD010401C4008802A23
:1003D00002D003E0002010BD20F00100002900DA67
:1003E0000020184310BD30B480EA010202F000453D
:1003F00030F0004221F0004013D090B1C30DD40D75
:10040000C2F31601C0F31600E41A41F4000140F4EF
:1004100000027D34914201D3641C00E04900002CAD
:1004200002DA30BC002070474FF4000000239142F4
:1004300001D3891A034340084FEA4101F7D151B172
:10044000914202D14FF0004105E002D24FF001018C
:1004500001E06FF0010103EBC450284430BC00F010
:100460001FBB420005D0C0F3C7525242914201DC8B
:100470000020704700EBC15070472DE9FE4F8046C9
:1004800081EA0300C00F0C46009021F0004123F0E8
:100490000045B8EB0200A94105D2404621469046EE
:1004A0001C460B46024623F00040104347D0270D60
:1004B000C7F30A00C3F30A510290401A0190402882
:1004C0006BDAC3F3130040F4801B0098924620B10E
:1004D0000023D2EB030A63EB0B0B01985946C0F1E2
:1004E0004002504600F06FFA06460D465046594607
:1004F000019A00F077FA10EB08006141002487EAC6
:10050000115284EAE7731A4340D0009A62B3019A09
:10051000012A4FEA075215DC001B61EB02014FF084
:10052000004202EA0752CDE90042001C41F5801169
:1005300032462B4600F0FAFA03B0BDE8F08F404691
:100540002146F9E7001B61EB0201001C41F5801315
:1005500000185B412018A2F5001747EB030140EAA1
:10056000D570B6196D4111E06D084FEA360645EABF
:10057000C0754FEA0752001B61EB0201001C41F5F8
:10058000801149084FEA30000019514132462B468C
:1005900003B0BDE8F04F00F0BABA00980122400065
:1005A0000023D0EB020263EBE073009821464FEA90
:1005B000E074B8EB000061EB0401E9E783F000436D
:1005C0005BE781F0004158E72DE9FE4F81EA030423
:1005D00004F0004421F0004100944FF0000B23F0A0
:1005E000004350EA01045ED052EA03045BD0C3F337
:1005F0000A54C1F30A552C44A4F2F3340194A0FB2D
:100600000254C1F3130141F48011C3F3130343F403
:10061000801301FB024400FB034E840A970A44EA5C
:10062000815447EA8357A4FB076802958D0A05FBAE
:1006300007854FEA932C04FB0C542705029D4FEAD3
:10064000065847EA1637B5EB08056EEB070C870E20
:10065000920E47EA811742EA8312A7FB0201B6EB2A
:100660000B0164EB00042B0D43EA0C335E1844EBE2
:100670001C50DA465146E7FB0201C5F313044FEA6A
:100680000B3343EA14534FEA0432019C43EA060356
:10069000A4F10C040294009CCDE900B400F046FAE9
:1006A00003B0BDE8F08F00200146F9E72DE9F04DD9
:1006B00081EA030404F0004B21F0004514464FF09A
:1006C000000A23F0004150EA050220D054EA01025A
:1006D0001DD0C5F30A570246C5F31303C1F3130037
:1006E000C1F30A5640F4801543F48013A7EB0608C3
:1006F000101BD64608F2FD3873EB050002D308F153
:10070000010801E092185B41B8F1000F03DA002004
:100710000146BDE8F08D00204FF480110646844666
:100720000EE0171B73EB050705D3121B63EB0503E4
:1007300006434CEA010C49084FEA300092185B412D
:1007400050EA0107EDD152EA030012D082EA040018
:1007500083EA0501084305D0101BAB4106D20122F4
:10076000002306E000224FF0004302E06FF0010298
:1007700053101AEB06004CEB085110EB0A0041EB4A
:100780000B01BDE8F04D00F0C2B9C10F80EAE07086
:100790000844CA079623002100F08BB99623002253
:1007A000114600F086B90EB5C10F80EAE07008442A
:1007B000CA07002140F233438DE80E000A460B467B
:1007C00000F0B4F903B000BD0EB540F23341029120
:1007D0000021CDE900110A460B4600F0A7F903B04D
:1007E00000BD20F00040C10DC0F3160040F4000031
:1007F0007F2901DA00207047962903DCC1F19601B8
:10080000C840704796398840704770B5C1F30A52A6
:1008100001F000450024C1F3130140F2FF3341F41D
:1008200080119A4201DA002070BD40F233439A42AF
:10083000A2F2334203DC5242FFF7C0FC00E09040DA
:100840002C43F1D0404270BDC1F30A5210B5C1F340
:10085000130140F2FF3341F480119A4201DA002083
:1008600010BD40F233439A42A2F2334203DC5242BB
:10087000FFF7A4FC10BD904010BD00F0004230F026
:1008800000400AD0C10D01F56071C0F3160042EAC4
:100890000151C208400711437047002001467047CC
:1008A00030B5041E71F1000404DB4FF000444042F7
:1008B00064EB0101141E73F1000405DB1C464FF0CC
:1008C0000043524263EB04038B4208BF824230BDB7
:1008D00030B5041E71F1000404DB4FF000444042C7
:1008E00064EB0101141E73F1000405DB1C464FF09C
:1008F0000043524263EB0403994208BF904230BD6B
:1009000001F0004330B421F0004150EA010206D06A
:100910000A0DA2F56072C1F31301002A02DC30BC9B
:1009200000207047440F44EAC104C100E01830BC05
:1009300000EBC25000F0B4B830B50B4601460020C1
:100940002022012409E021FA02F59D4205D303FA91
:1009500002F5491B04FA02F52844151EA2F1010212
:10096000F1DC30BD2DE9F05F0546002092469B4644
:1009700088460646814640241BE0284641464746B5
:100980002246FFF71BFC53465A46C01A914110D32A
:1009900011461846224600F016F82D1A67EB01089A
:1009A0004F4622460120002100F00DF817EB000908
:1009B0004E41201EA4F10104DFDC484631462A46A0
:1009C0004346BDE8F09F202A04DB203A00FA02F1FA
:1009D000002070479140C2F1200320FA03F319432D
:1009E00090407047202A06DBCB17203A41FA02F0EC
:1009F00043EAE07306E041FA02F3D040C2F120027C
:100A00009140084319467047014900F003B80000BF
:100A1000C845002010B500683C22B0FBF2F302FB91
:100A20001303B0FBF2F00B60B0FBF2F302FB130315
:100A3000B0FBF2F018224B60B0FBF2F302FB1303A1
:100A4000B0FBF2F0021D8B600723B2FBF3F403FB53
:100A50001422800040F2B55300F66C308A61B0FB7E
:100A6000F3F2B0FBF3F403FB1400443280084A6154
:100A7000C8613B2802D3920700D0401C0022074CDB
:100A800013460A61E25C824203D8801A5B1C0B6148
:100A9000F8E7401CC860084610BD0000D0A200085E
:100AA0000029A8BF7047401C490008BF20F0010082
:100AB000704710B4B0FA80FC00FA0CF050EA010460
:100AC00004BF10BC704749B1CCF1200421FA04F4F2
:100AD00011FA0CF118BF012121430843A3EB0C01CB
:100AE000CB1D4FEA00614FEA102042BF002010BC2E
:100AF000704700EBC35010440029A4BF10BC7047DE
:100B0000401C490008BF20F0010010BC704710B520
:100B1000141E73F1000408DA401C41F10001921820
:100B20005B411A4301D120F0010010BD2DE9F04DC9
:100B300092469B4611B1B1FA81F202E0B0FA80F21E
:100B400020329046FFF73FFF04460F4640EA0A0076
:100B500041EA0B0153465A46084313D0114653EA63
:100B6000010019D0C8F140025046FFF727FB0546A7
:100B70000E46504659464246FFF725FF084305D02A
:100B8000012004E020463946BDE8F08D00200543F1
:100B900046EAE0762C4337430A986305E40AA0EB63
:100BA00008000022FD0A44EA47540A3002D500201A
:100BB0000146E9E7010510196941DDE90845001919
:100BC0006941BDE8F04DA2E770B521F00043034351
:100BD0000CD0C1F30A550024D5EB040564EB0403E3
:100BE000D617AD1AB34102DB0020014670BD2018B4
:100BF00041EB025170BDC1F30A52C1F3130140F23F
:100C0000FF3341F480119A4202DA00200146704716
:100C100040F233439A42A2F2334202DC5242FFF7DF
:100C2000CDBAFFF7D0BE0000064C074D06E0E068E5
:100C300040F0010394E8070098471034AC42F6D323
:100C4000FFF758FA64A3000884A300082DE9F04DCB
:100C500000231A461B1A8A4103DB00200146BDE827
:100C6000F08DC1F30A52C1F3130141F480154FF026
:100C7000000BD10702D100186D41521E0027044617
:100C800040F2FF11384601EB620A3E4680460246BA
:100C900000204FF48011FFF791FAC2197141BB187F
:100CA00046EB0100B4EB030C75EB000C04D3E41A23
:100CB00065EB000517460E46241908F101006D4149
:100CC00080463428E3DDF91946EB0600091BA841EC
:100CD00003D24FF0FF32134601E0002213461BEB14
:100CE000070046EB0A51BDE8F04DFFF710BF70B5A5
:100CF0008C1810F8015B15F0070301D110F8013BC7
:100D00002A1106D110F8012B03E010F8016B01F84D
:100D1000016B5B1EF9D12B0705D40023521E0DD4A5
:100D200001F8013BFAE710F8013BCB1A921C03E0F3
:100D300013F8015B01F8015B521EF9D5A142D8D32B
:100D4000002070BD70B5044620688168C943C9079A
:100D500016D1816821F00101816000F0EBFE0546AB
:100D600009E000F0E7FE401B022804D920688068F3
:100D7000C043C00706D020688068C043C007F0D0D9
:100D8000002070BDA06A40F01000A062E06A40F050
:100D90000100E062012070BD70B500240025064806
:100DA00000F018FC0544641CE4B2052CF7D30520C0
:100DB000B5FBF0F070BD00007C08002004F01ABC08
:100DC00010B54188B1F57A7F25D20288134803888F
:100DD0009A4214D14088814205D14FF0030000F0BF
:100DE000F7FA002010BD05D24FF0020000F0F0FA33
:100DF000002010BD012000F0EBFA002010BD05D24C
:100E00004FF0020000F0E4FA002010BD012000F0D5
:100E1000DFFA002010BD032010BD00003C000020C0
:100E200010B5FFF72AFD0022074BFFF7C7FB074A63
:100E3000074BFFF73BFC0022064BFFF7C5FBFFF714
:100E400003FDC0B210BD000000001A40686666666F
:100E50006666FE3F00005940FEE70000064B002892
:100E600004D000220121184600F05DBE0122114687
:100E7000184600F058BE00000008014010B586B0CA
:100E8000002002900390049005900D48816941F084
:100E900004018161806900F004000190094C002286
:100EA0000121204600F03FFE0121029103910491AF
:100EB000059102A9204600F02FFD06B010BD0000EC
:100EC00000100240000801400B4802F035FD0028E8
:100ED00003DA0AA1104805F030F9074C03F0DAFCF8
:100EE000012805D1201D03F043FB08B903F068FC7D
:100EF0000A2006F09EF8F1E7EC3F00204D71747473
:100F000053616D706C655F496E6974204661696CF0
:100F100065640D0A0000000078070020704770B576
:100F20004FF4FA75B0FBF5F1CCB2B0FBF5F105FB6F
:100F3000110604E0284600F02DF8641EE4B2002CEF
:100F4000F8D1002E04D03046BDE8704000F022B841
:100F500070BD000070B500214FF0E0256B690B4AB1
:100F60000B4C1268B2FBF4F44443AA69A86990429E
:100F7000FCD003D2A2EB0002114403E0A3EB000675
:100F8000324411440246A142F0D370BDC801002092
:100F900040420F00B0F5004F02D2401E00F046BCA8
:100FA0007047000002494988018000207047000016
:100FB0003800002003490A88026049884160002007
:100FC000704700003C00002070B504466088B0F512
:100FD0007A7F20D2114D21882A88914202D16988D6
:100FE000884216D00E4E02222146304604F018FEEA
:100FF00002220A49304604F001FE288821888842EE
:1010000005D168886188884201D1002070BD012027
:1010100070BD002070BD032070BD00003C000020AA
:1010200000F0000808B502226946084804F0E6FD11
:10103000BDF800104FF6FF72914206D0BDF80200D5
:10104000904202D0024A1180508008BD00F0000892
:101050003C000020FEB50020144A694602EB8003E4
:10106000D3F8E83741F82030401CC0B20328F5D34C
:1010700000240F4D0F4E042C06D2C4F10301019839
:10108000C900C840C2B205E0C4F107010098C90018
:10109000C840C2B22A5506EB440007A105F068F823
:1010A000641CE4B2082CE6D3FEBD000000F0FF1F74
:1010B00040000020480800202532780001B582B0A9
:1010C00002A8FFF7A1FC017D64398DF80710017CAF
:1010D000491C8DF80510017B8DF80610017A083146
:1010E0008DF8001001798DF8011000788DF802005C
:1010F00000226946044801F07BFB002201A9024856
:1011000001F00CFB0EBD00005C08002031B5BDF8FD
:101110000000B0F5616F19D80D4C2188884213D0BA
:101120000C4D01226946284604F07AFD0122214631
:10113000284604F063FD2088BDF80010884201D1E4
:10114000002038BD012038BD002038BD032038BD47
:101150003800002004F0000808B50122694606485E
:1011600004F04CFDBDF80000A0F57F41FF3901D02F
:101170000249088008BD000004F000083800002083
:1011800002490988018000207047000038000020D3
:1011900000F0B8BD2DE9F0414FF400412F4C304D27
:1011A0008E10304F002808D001281AD002282CD0E9
:1011B00003283ED00020BDE8F0810022204600F048
:1011C000B2FC00220821284600F0ADFC00220221DA
:1011D000204600F0A8FC00223146384600F0A3FC6F
:1011E0003AE00122204600F09EFC00220821284619
:1011F00000F099FC01220221204600F094FC00221C
:101200003146384600F08FFC26E00022204600F0F0
:101210008AFC01220821284600F085FC00220221D8
:10122000204600F080FC01223146384600F07BFC6D
:1012300012E00122204600F076FC01220821284617
:1012400000F071FC01220221204600F06CFC01221A
:101250003146384600F067FC0120ACE70008014049
:10126000000C0140001001402DE9F04786B0002439
:1012700002940394049405942E48816941F010016E
:101280008161816901F010010191816941F00401DE
:101290008161816901F004010191816941F00801D6
:1012A0008161816901F008010191816941F00101C9
:1012B0008161806900F0010001901F49486820F0B9
:1012C000E06040F000704860DFF870804D1400224C
:1012D0002946404600F027FCDFF8649048F20207F8
:1012E00000223946484600F01EFCDFF858A00022D4
:1012F0000821504600F017FC02950125039504943F
:101300000226059602A9404600F006FB02970395C7
:101310000494059602A9484600F0FEFA08200290BF
:1013200003950494059602A9504600F0F5FA06B01C
:10133000BDE8F087001002400000014000100140AD
:1013400000080140000C0140F8B500200090002486
:10135000194F6E46A7F1100537F8240081B255F8F1
:10136000240000F0D1FB3055641CE4B2042CF3D30C
:101370009DF8000010B99DF8011011B1012802D0AC
:1013800004E00020F8BD9DF8011009B110B105E09E
:101390000120F8BD9DF80110012902D0012802D0DA
:1013A00005E00220F8BD9DF80100012801D00420CD
:1013B000F8BD0320F8BD000010000020FFF754BF67
:1013C00010B5FFF7FBFFBDE810400320AFF300802E
:1013D000FFF7E0BEFFF7B8BF72B6FEE7064A00218E
:1013E000D16106490A6942F002020A61486108694E
:1013F00040F0400008617047A845002000200240EE
:10140000044B0022DA61044A136943F001031361BB
:1014100001807047A84500200020024000201449A8
:10142000CA68D306134A04D5D06940F00200D061DF
:101430001020CB685B0705D5D36943F00103D36166
:1014400040F00400CB69DB0707D0D36943F0040305
:10145000D361CA6922F00102CA61A0F58072013A23
:1014600001D0C8607047C86920F00100C8617047AA
:1014700000200240A845002070B5044600F05AFB49
:101480000546114E09E0601C07D024B100F052FB64
:10149000401BA04201D9032070BDF068C007F2D103
:1014A000F068800601D52020F060F068C00605D401
:1014B000F069C00702D1F068400703D5FFF7AEFF1F
:1014C000012070BD002070BD00200240F8B500234F
:1014D0000025009590F82420012A12D0012280F8DE
:1014E00024204A681F26072A0DD20468676B521E03
:1014F00002EB82029640B7430E689640374367631B
:101500001AE00220F8BD0D2A0BD20468276BD21F07
:1015100002EB82029640B7430E689640374327633A
:101520000AE00468E76A0D3A02EB82029640B7438C
:101530000E6896403743E7620A6807260A2A0BD3EB
:101540000468E7680A3A02EB42029640B7438E68A5
:1015500096403743E76009E00468276902EB4202DE
:101560009640B7438E689640374327610A68102A31
:1015700001D0112A23D1144C0268A2421AD19468D6
:1015800024021CD4946844F400049460096810296F
:1015900015D10E490E4A0968B1FBF2F101EB810148
:1015A0004900009102E00099491E0091009900292C
:1015B000F9D104E0816A41F020018162012380F8C1
:1015C00024501846F8BD000000240140C801002046
:1015D00040420F000068C06C704700002DE9F041E8
:1015E000044600270025002C03D0A06A002618B16D
:1015F00008E00120BDE8F081E66284F8246020461E
:1016000000F078F82046FFF79DFBA16AC90600D4D8
:1016100028B1A06A40F01000A0620120EAE7A16AA8
:1016200021F4885141F00201A1626268E169237BE3
:101630000A4347EA43010A43A1684FF48077B9425D
:1016400008D0012906D0002194F814C0BCF1010F84
:1016500002D00AE03946F7E7F3B1A36A43F020036A
:10166000A362E36A43F00103E3622368D3F804C092
:101670002CF4694C4CEA010CC3F804C021688B6857
:10168000DFF868C003EA0C0313438B60A168B9421A
:1016900009D0012907D009E0A3695B1E41EA433163
:1016A00041F40061E1E7218A491E0D052168CB6AFA
:1016B00023F470032B43CB62216889680C4B1940DB
:1016C000914207D1E662A16A21F0020141F00101D5
:1016D000A1628FE7A06A20F0020040F01000A06233
:1016E000E06A40F00100E062012083E7FDF7E1FFDE
:1016F000FE0E1FFF00B585B00021019102910391FC
:10170000049100680E49884218D10E48816941F45D
:1017100000718161816901F400710091816941F07A
:1017200008018161806900F00800009002200190AA
:101730000320029001A9044800F0EEF805B000BDB6
:101740000024014000100240000C014010B590F848
:1017500021100022022905D00421816380F8202075
:10176000012010BD01680B6823F00E030B600168B7
:101770000B6823F001030B6090F84030C46B01212B
:1017800001FA03F3636080F8211080F820201046EE
:1017900010BD000010B5002490F82110022903D0DC
:1017A0000421816301243DE001680A6822F00E02F1
:1017B0000A6001680A6822F001020A601A4A016898
:1017C000914201D1012121E0174A1432914201D105
:1017D00010211BE0144A2832914201D1891515E0ED
:1017E000114A3C32914201D189140FE00E4A503225
:1017F000914202D14FF4803108E00B4A64329142A9
:1018000002D14FF4801101E04FF08071064A083A8E
:101810005160012180F82110002180F82010416BD7
:1018200001B18847204610BD0800024070B504464B
:1018300000F080F90546601C02D00448007804449A
:1018400000F078F9401BA042FAD370BDBC01002023
:101850000348016941F080010161002070470000E8
:10186000002002402DE9F05F0746884615461E46D7
:101870000024DFF8749099F81800012809D001209D
:1018800089F818004CF2503B5846FFF7F5FD18B1A7
:1018900026E00220BDE8F09F012F05D0022F05D0E1
:1018A0000427DFF848A019E00127FAE70227F8E744
:1018B000220128463146FEF781FC81B208EB440044
:1018C000FFF79EFD5846FFF7D7FDDAF8101021F01C
:1018D0000101CAF8101018B9641CE4B2BC42E7D385
:1018E000002189F81810D5E7A84500200020024003
:1018F000002006490A69120607D5054A4A60054ACA
:101900004A600969090600D501207047002002409D
:1019100023016745AB89EFCD2DE9F84F0024002363
:10192000DFF8C4914FF00F0809F1040A0AF1040B23
:101930000BF1040ED1E00127A7403A40BA4275D11D
:10194000DFF8A8C14D68A5EB0C0665452BD00DDC72
:10195000032D34D005DC35B3012D19D0022D2FD144
:101960001BE0112D16D0122D2AD119E0B6F5881FD3
:1019700019D006DCB6F5803F15D0B6F5801F1FD113
:1019800011E0B6F5001F0ED0B6F5041F18D10AE01D
:10199000CB6815E0CB681B1D12E0CB6808330FE065
:1019A000CB680C330CE08B6823B1012B04D00823E7
:1019B000476105E0042303E00823076100E00023FA
:1019C000FF2A01D8054601E000F1040502D84FEADC
:1019D000840603E0A4F108064FEA86062F6808FA99
:1019E00006FC27EA0C0703FA06F647EA06072F600B
:1019F0004D68ED0070D53E4DAE6946F00106AE6112
:101A0000AD6905F0010500953A4D24F003067719FC
:101A1000BE68A5072D0F08FA05FC26EA0C06DFF8BC
:101A2000D8C0604503D14FF0000C17E054E0DFF858
:101A3000CCC0604502D14FF0010C0FE0DFF8C0C010
:101A4000604502D14FF0020C08E0DFF8B8C06045F5
:101A500002D14FF0030C01E04FF0040C0CFA05FC2E
:101A60004CEA060CC7F808C04D68ED0305D5D9F857
:101A700000501543C9F8005004E0D9F800509543D0
:101A8000C9F800504D68AD0305D5DAF8005015438C
:101A9000CAF8005004E0DAF800509543CAF8005044
:101AA0004D68ED0205D5DBF800501543CBF800502A
:101AB00004E0DBF800509543CBF800504D68AD02D0
:101AC00005D5DEF800501543CEF8005004E0DEF8EE
:101AD00000509543CEF80050641C0A6832FA04F5B1
:101AE0007FF429AFBDE8F88F000401400000111019
:101AF000001002400000014000080140000C0140BD
:101B000000100140001401408068084201D001200B
:101B1000704700207047C26821EA02030A4043EA86
:101B2000024101617047002A01D001617047090438
:101B3000016170470148806870470000BC010020C7
:101B400070B50446002C11D021684CF6CC400860DA
:101B5000216845F255500860D4E9001048602168BA
:101B6000A0688860FFF7E6FF05460CE0012070BD25
:101B7000FFF7E0FF401B272805D92068C0688007D1
:101B800001D0032070BD2068C0688007F0D12168B3
:101B90004AF6AA200860002070BD00684AF6AA2113
:101BA00001600020704700000248816802781144FB
:101BB00081607047BC01002010B50748016841F002
:101BC00010010160032000F08BF80F2000F006F8F0
:101BD00000F03EF8002010BD0020024000B587B0A4
:101BE000014600221C2000F05BF81C2000F04AF89F
:101BF0001448C16941F00101C161C06900F00100F0
:101C0000009001A902A800F02DFA00F04FFA400060
:101C10000D49B0FBF1F1491E0C484FF080420260C3
:101C200040F2E732C260416000210161816000F052
:101C30005BFE10B1012007B000BD044800F07AFE41
:101C4000F9E700000010024040420F0000080020A9
:101C500082B00B48816941F001018161816901F025
:101C600001010191C16941F08051C161C06900F079
:101C70008050019000220F21901E02B000F010B899
:101C800000100240002809DB00F01F0201219140F2
:101C90004009800000F1E020C0F80011704700000A
:101CA000F0B40D460D4B1B68C3F30223C3F10704C8
:101CB000042C00D90424191D072901D2002300E0B7
:101CC000DB1E012606FA04F1491E294099409E4078
:101CD000761E16403143F0BC04F072BA0CED00E001
:101CE00000F00701054A10684FF6FF03184040EA6C
:101CF0000120034908431060704700000CED00E02C
:101D00000000FA05BFF34F8F05480168054A01F44A
:101D1000E06111430160BFF34F8F00BFFDE700009A
:101D20000CED00E00400FA0501490120086270474B
:101D300000000E4210B586B001462AA090E81C00B3
:101D4000C068CDE90334029205902AA00068019092
:101D50000020294C012922D0022939D010291CD178
:101D600061682268D20118D502A8C1F38342805C61
:101D7000C90309D5616801AAC1F34041515C1F4AFA
:101D8000B2FBF1F1484301E01D4948436168490253
:101D900003D440000321B0FBF1F006B010BD216A6E
:101DA000C1F30122012A03D1890701D5D003F4E749
:101DB000022A05D1616A890702D549F64040ECE75D
:101DC000032AEAD121688903E7D54FF22440E4E7EA
:101DD00000F07CF96168C1F38131491C4900B0FB16
:101DE000F1F0DAE702030405060708090A0B0C0DF7
:101DF0000E0F1010010200000010024000127A00C5
:101E000000093D002DE9F8430446DFF8F88020780A
:101E1000C0075FD00027D8F81C00C0000BD4D8F84A
:101E20001C0040F08050C8F81C00D8F81C0000F0DE
:101E3000805000900127344D2868C00512D42868CE
:101E400040F480702860FFF775FE064607E0FFF754
:101E500071FE801B642802D90320BDE8F88328683E
:101E6000C005F4D5D8F8200000F4407010B3A18864
:101E700001F4407181421DD0D8F8200020F4407058
:101E8000224901220A6000220A60C8F82000C00727
:101E900010D0FFF74FFE054641F2883606E0FFF707
:101EA00049FE401BB04201D90320D6E7D8F82000F4
:101EB0008007F4D5D8F82000616820F4407008430A
:101EC000C8F82000012F05D1D8F81C0020F0805060
:101ED000C8F81C002078800707D5D8F80400A1684E
:101EE00020F440400843C8F804002078C00607D515
:101EF000D8F80400E16820F480000843C8F8040022
:101F00000020AAE700100240007000404004424256
:101F10002DE9F04704460D46002C17D0DFF830813C
:101F2000D8F8000000F00700A84211D2D8F800004D
:101F300020F007002843C8F80000D8F8000000F09F
:101F40000700A84204D00120BDE8F0870120FBE78C
:101F50002068404E810712D5400703D5706840F4D1
:101F6000E06070602078000703D5706840F460502E
:101F700070607068A16820F0F000084370602078FD
:101F8000C0072CD06068012806D0022809D031682B
:101F900089070BD40120D7E73168890306D40120D3
:101FA000D2E73168890101D40120CDE7716821F0C1
:101FB000030101437160FFF7BDFD074641F2883917
:101FC00006E0FFF7B7FDC01B484501D90320BBE77A
:101FD0007068616800F00C00B0EB810FF1D1D8F8A7
:101FE000000000F00700A8420ED9D8F8000020F049
:101FF00007002843C8F80000D8F8000000F00700E8
:10200000A84201D001209FE72078400705D57068DD
:10201000E16820F4E060084370602078000706D58E
:102020007068216920F4605040EAC100706000F0DF
:102030005DF87168084AC1F30311515CC840074953
:10204000086007480068FFF7C9FD00207CE7000032
:10205000002002400010024014A20008C801002025
:10206000C00100200F2202600B4A536803F00303F3
:102070004360536803F0F0038360536803F4E06344
:10208000C360526802F46052D208026103480068DB
:1020900000F0070008607047001002400020024076
:1020A0000148006870470000C801002000B5FFF734
:1020B000F7FF04494968044AC1F30221515CC84052
:1020C00000BD00000010024024A2000800B5FFF788
:1020D000E7FF04494968044AC1F3C221515CC84082
:1020E00000BD00000010024024A2000885B014A02A
:1020F00090E80E00C068CDE902230191049014A07D
:1021000000680090134B5968134801F00C02042A30
:1021100010D0082A0ED101A8C1F38342805CC90304
:102120000AD55968C1F340411DF801100A4A5043CD
:10213000B0FBF1F005B0704708494843FAE70000EA
:1021400002030405060708090A0B0C0D0E0F1010F8
:10215000010200000010024000127A0000093D0058
:102160002DE9F84F0446002C0ED02078D94DC00739
:102170005ED06868C0F3810001280BD06868C0F3A6
:102180008100022803D00CE00120BDE8F88F6868C8
:10219000C00306D5286880034AD56068A8BB012023
:1021A000F3E76068B0F5803F11D0A8B1B0F5A02F7B
:1021B0001BD0286820F480302860286820F4802014
:1021C0002860606830B3FFF7B5FC06461EE028685B
:1021D00040F480302860F4E7286820F480302860DC
:1021E000286820F480202860EBE7286840F48020ED
:1021F0002860286840F480302860E2E7FFF79AFC06
:10220000801B642802D90320BFE711E028688003FF
:10221000F4D50DE0FFF78EFC064606E0FFF78AFCDA
:10222000801B642801D90320AFE728688003F5D418
:102230002078DFF8A48280074FF0010A4FF00009F0
:1022400045D5686810F00C0F07D06868C0F38100AE
:10225000022812D16868C0030FD42868800704D50B
:102260002069012801D001208FE72868616920F0EA
:10227000F80040EAC100286029E02069B8B1C8F838
:1022800000A0FFF757FC064606E0FFF753FC801B53
:10229000022801D9032078E728688007F5D5286847
:1022A000616920F0F80040EAC10028600FE0C8F83A
:1022B0000090FFF73FFC064606E0FFF73BFC801B63
:1022C000022801D9032060E728688007F5D4207828
:1022D000000726D58148A16999B1C0F800A0FFF791
:1022E00029FC064606E0FFF725FC801B022801D9E1
:1022F00003204AE7686A8007F5D5012003F090FAC9
:102300000FE0C0F80090FFF715FC064606E0FFF767
:1023100011FC801B022801D9032036E7686A800778
:10232000F5D42078400773D50026E869C00008D4AA
:10233000E86940F08050E861E86900F08050009062
:102340000126DFF89CB1DBF80000C00514D4DBF8EF
:10235000000040F48070CBF80000FFF7EBFB07466D
:1023600006E0FFF7E7FBC01B642801D903200CE758
:10237000DBF80000C005F4D5E068012812D0B0B148
:1023800005281DD0286A20F001002862286A20F064
:1023900004002862E06841F2883B28B3FFF7CAFBDB
:1023A00007461DE0286A40F001002862F2E7286A2B
:1023B00020F001002862286A20F004002862E9E782
:1023C000286A40F004002862286A40F00100286270
:1023D000E0E7FFF7AFFBC01B584501D90320D4E667
:1023E000286A8007F5D50DE0FFF7A4FB074606E055
:1023F000FFF7A0FBC01B584501D90320C5E6286A9A
:102400008007F5D4012E03D1E86920F08050E861FF
:10241000E069A0B36968C1F38101022946D00228AE
:1024200005D0C8F86090FFF785FB04463AE0C8F88D
:102430006090FFF77FFB064606E0FFF77BFB801B03
:10244000022801D90320A0E628688001F5D4206A7B
:10245000B0F5803F05D16868A16820F400300843DA
:102460006860D4E908010843696821F474110843DD
:102470006860C8F860A0FFF75DFB044607E026E04F
:10248000FFF758FB001B022801D903207DE62868CE
:102490008001F5D51BE0FFF74DFB001B022801D999
:1024A000032072E628688001F5D410E001280CD0E2
:1024B0006868226A00F48031914204D1616A00F4B4
:1024C0007010884203D001205FE601205DE6002005
:1024D0005BE60000001002400000424280044242DD
:1024E00000700040F8B505460C46164600200090E6
:1024F000002D08D03CB100226946284600F01BF8A8
:1025000018B10120F8BD0120F8BD287B2070E87BC0
:10251000E070697B6170A97BA17056B103F09BF9F3
:10252000E070607803F097F96070A07803F093F999
:10253000A0700020F8BD2DE9F04707460C469046F4
:10254000002F07D034B138684068400704D5012017
:10255000BDE8F0870120FBE7384603F030FA054676
:102560004FF46160B5FBF0F1B5FBF0F200FB1253E4
:102570003C22B3FBF2F36370B5FBF0F300FB1350A6
:10258000B0FBF2F302FB1300A070182936D3182019
:10259000B1FBF0F9B1FBF0F200FB121020703846ED
:1025A00003F006FA411C03D0A84201D9461B01E002
:1025B0004FF0FF36A9EB091000EB4000C0EB001014
:1025C00005EBC0152946384603F053FA08B101203F
:1025D000BEE7701C06D07119384603F033FA40B1DB
:1025E0000120B5E73146384603F02CFA08B1012046
:1025F000AEE74946384603F039F900E02170B8F1FA
:10260000000F0BD0207803F026F92070607803F0DB
:1026100022F96070A07803F01EF9A070002097E7FF
:1026200070B50446002C03D0607C002610B105E094
:10263000012070BD2674204600F04CF80220607422
:10264000204600F031F9042510B16574012070BDF9
:10265000204603F062F910B16574012070BD206856
:10266000416821F007014160A06820B11848016865
:1026700021F0010101601648001F0168A26821F4E1
:102680006071114301606068411C04D10120FFF7B3
:1026900051FB98B1401E21688A6822F00F0242EA7D
:1026A00010428A602168CA6860F30F02CA6020463F
:1026B00003F04DF928B16574012070BD65740120E7
:1026C00070BDE67301206073A0736074002070BD5C
:1026D000306C004008B500680D49884217D1FFF7FB
:1026E00023FB0C48C16941F00061C161C06900F081
:1026F00000600090084901200860002205210320A5
:10270000FFF7CEFABDE808400320FFF7BBBA08BDCB
:1027100000280040001002403C0442422DE9F041F4
:1027200004460D46002C3FD0E5B3207C01283DD067
:102730000126267402206074AAB3E87803F082F8B8
:10274000E073687803F07EF86073A87803F07AF895
:10275000A073A27B617BE07B03F041F920732870BA
:10276000204603F02CF94FF46161B0FBF1F1002534
:10277000182936D91822B1FBF2F1A1EB011101EBB6
:102780004101C1EB011100EBC1173946204603F0AE
:1027900070F94FF0040890B184F81180257401207D
:1027A000BDE8F08100E003E00120F9E70220F7E74F
:1027B000E878E07368786073A878A073C9E720466A
:1027C00003F0F6F8411C0CD0B8420AD20749014484
:1027D000204603F037F920B184F8118025740120D8
:1027E000DEE7667425740020DAE7000080510100FE
:1027F0002DE9F04104460D46002C28D03DB3207C45
:10280000012826D001262674022060741AB3287885
:1028100003F018F84FF4616100FB01F7687803F0EA
:1028200011F8C0EB001007EB8007A87803F00AF856
:102830003D182946204603F01CF900274FF00408F4
:10284000A8B184F8118027740120BDE8F08101202F
:10285000FBE70220F9E729784FF46160414368788B
:10286000C0EB001001EB8000A9784518E1E7206873
:10287000416821F005014160204603F099F8411CB0
:102880000CD0A8420AD207490144204603F0DAF8E6
:1028900020B184F8118027740120D6E7667427746C
:1028A0000020D2E78051010070B50446002C0AD008
:1028B0002068416821F008014160FFF73BF90546B7
:1028C0004FF47A7608E0012070BDFFF733F9401B22
:1028D000B04201D9032070BD206840680007F4D5DC
:1028E000002070BD7047704710B50446002C03D01F
:1028F00094F83D0010B107E0012010BD002084F8DD
:102900003C00204600F015F8022084F83D00211D0F
:10291000206803F06BFA01203D3460726070A07093
:10292000E07020716071A071E07120722070002051
:1029300010BD704790F83D10012901D0012070476B
:10294000022180F83D100168CA6842F00102CA60A5
:1029500000680E49884208D0B0F1804F05D00C497C
:10296000884202D00B49884209D1816801F00701F1
:10297000062908D0016841F00101016003E0016807
:1029800041F001010160002070470000002C01406F
:102990000004004000080040704770B504462068FD
:1029A00001694FF00005C943890716D4C168C943BE
:1029B000890712D4E91E016101202077206880690F
:1029C000800703D02046FFF7E7FF05E0204600F030
:1029D0009BF8204600F099F8257720680169C943E3
:1029E000490718D4C168C943490714D46FF00401DA
:1029F0000161022020772068806910F4407F03D0B5
:102A00002046FFF7C9FF05E0204600F07DF820468C
:102A100000F07BF8257720680169C943090717D4BE
:102A2000C168C943090713D46FF00801016104208C
:102A300020772068C069800703D02046FFF7ACFFED
:102A400005E0204600F060F8204600F05EF82577AB
:102A500020680169C943C90618D4C168C943C906B9
:102A600014D46FF010010161082020772068C0693C
:102A700010F4407F03D02046FFF78EFF05E020468C
:102A800000F042F8204600F040F825772068016900
:102A9000C943C90708D1C168C943C90704D1891E00
:102AA0000161204600F032F820680169C943090637
:102AB00009D4C168C943090605D46FF080010161DA
:102AC0002046FFF70FFF20680169C943490609D472
:102AD000C168C943490605D46FF040010161204631
:102AE00000F01BF820680169C94389060BD4C1684E
:102AF000C943890607D46FF0200101612046BDE873
:102B00007040FFF7F0BE70BD704770470068B0F1CD
:102B1000804F01D1FFF748B87047704708B50346AA
:102B200093F83E00202801D0022008BD91B18AB15F
:102B300093F83C0001280FD0012083F83C00186373
:102B4000184603F071FA0028EFD1196B012905D05E
:102B5000012008BD012008BD022008BD19680A68CF
:102B60004A680092CA6842F01002CA6008BD0000BC
:102B70000068054A904205D0044A904202D10846B6
:102B800002F014BE704700000038014000480040C9
:102B900000680649884208D10549002081F83C00B8
:102BA000642204490248FFF7B9BF7047004800405B
:102BB000BC07002024450020F8B5044622681068B0
:102BC000D168536900F00F05002D08D1860606D59F
:102BD0008E0604D52046BDE8F84003F06AB9002609
:102BE000002D60D003F0010501F490772F435AD0F7
:102BF000C20705D0CA0503D5226C42F00102226447
:102C0000420705D5DA0703D0226C42F002022264A3
:102C1000820705D5DA0703D0226C42F00402226451
:102C2000020707D501F020022A4303D0226C42F0AC
:102C300008022264226C002A2BD0800604D5880664
:102C400002D5204603F035F920684069C0F38010B2
:102C5000216C090700D408B3204603F005F9206869
:102C60004169490616D5416921F040014161A06BD7
:102C700060B143494163A06BFEF78CFD002808D08A
:102C8000A06B416B01B0BDE8F04008472046FFF75C
:102C90007FFFF8BD2046FFF77BFFF8BD2046FFF71A
:102CA00077FF2664F8BD236B012B57D1C30655D59A
:102CB000CB0653D510685068009050694FF0200340
:102CC00040062DD5A16B0868406880B20028E9D085
:102CD000A58D8542E6D9E0858869202818D0D0687E
:102CE00020F48070D0602068416921F001014161C9
:102CF0002068416921F04001416184F83E3026633B
:102D00002068C16821F01001C160A06BFEF71EFDB4
:102D1000A08DE18D401A81B22046FFF729FFF8BD52
:102D2000A08DE18D401A81B2E08D0028F7D00029F6
:102D3000F5D0D06820F49070D0602068426922F00D
:102D40000102426184F83E3026632068C26822F0A6
:102D50001002C2602046FFF70BFFF8BD020606D541
:102D60000A0604D52046BDE8F84003F078B94006CD
:102D7000F3D54806F1D52046BDE8F84003F08CB8FD
:102D8000595E000870B50446002C04D094F83D004C
:102D9000002510B106E0012070BD84F83C502046AB
:102DA00000F022F8242084F83D002068C16821F456
:102DB0000051C160204603F0DBF82068016921F46E
:102DC000904101612068416921F02A014161206838
:102DD000C16841F40051C1602564202084F83D00A1
:102DE00084F83E00002070BD70B586B000240294C7
:102DF00003940494059401682F482E4E0222032365
:102E00000515B14229D1816941F48041816181690F
:102E100001F480410191816941F00401816180697F
:102E200000F0040001901002029003920593234EDB
:102E300002A93046FEF770FD02950394049402A99E
:102E40003046FEF769FD002202212520FEF728FF0B
:102E50002520FEF717FF06B070BD194EB142FAD11A
:102E6000C16941F48021C161C16901F480210191EE
:102E7000816941F008018161806900F008000190DA
:102E80000295039205930F4D02A92846FEF744FDD3
:102E9000E91402910394049402A92846FEF73CFD2C
:102EA000002202212720FEF7FBFE2720FEF7EAFE84
:102EB000D1E7000000380140001002400008014046
:102EC00000480040000C014090F83E30202B01D01B
:102ED0000220704759B152B190F83C30012B08D014
:102EE000012380F83C300023036303F09DB80120E8
:102EF00070470220704700000B49884212D10B49ED
:102F00000888B0F5A07F01D3002008800848036836
:102F10000888421C08440A800371012205490248BE
:102F2000FFF7D2BF70470000780700209C3E0020CA
:102F300004380140E03F00202DE9F84304460E46E6
:102F400015461F4694F83D00202802D00220BDE817
:102F5000F883C6B1BDB194F83C00012815D001201A
:102F600084F83C004FF00009C4F84090212084F818
:102F70003D00FEF7DFFD8046A584E584A068B0F53E
:102F8000805F04D005E00120E1E70220DFE720694F
:102F900020B13546002684F83C9013E00025FAE77E
:102FA0004346002280212046009703F087F808B1AD
:102FB0000320CCE79DB1216815F8010B4860E08C37
:102FC000401EE084E08C0028EAD1434600224021E4
:102FD0002046009703F072F840B10320B7E736F8B7
:102FE000020B2168C0F308004860E8E7202084F85D
:102FF0003D000020ABE77047FEE7000010B586B04B
:10300000002002900390049005900D48816941F0E2
:1030100008018161806900F008000190094C0022DC
:10302000C0212046FEF77FFDC021029101210391BE
:103030000491059102A92046FEF76EFC06B010BD72
:1030400000100240000C014070B5012817D10C4C53
:10305000850525600A481038016821F0704101603B
:10306000016841F040510160680020600220FDF7D6
:1030700071FF402020600220FDF76CFF256070BDCD
:10308000100C014010B5FFF7B9FF03484021016063
:103090008021016010BD0000100C014070B50128B6
:1030A00017D10C4C850525600A481038016821F0BD
:1030B00070410160016841F0405101608020206052
:1030C0000220FDF747FF402020600220FDF742FF6D
:1030D000256070BD100C01402DE9F0478A460024A0
:1030E00001282ED11A48016821F070410160016861
:1030F00041F0004101600025154EDFF854904FF477
:10310000800710364FF0400809F1080937600220A7
:10311000FDF720FFC6F800806006040ED9F8000015
:10312000000601D5641CE4B20120FDF713FF6D1CFD
:10313000EDB2082DEAD3BAF1000F05D00120FFF758
:1031400083FF2046BDE8F0870120FFF7A7FFF8E7DF
:10315000000C01402DE9F0470D4601282DD11848FB
:10316000016821F070410160016841F04051016047
:10317000134F4FF480081037C7F8008000248026D2
:103180004FF400094FF0400A280601D53E6001E0E7
:10319000C7F800906806050E0220FDF7DBFEC7F8B1
:1031A00000A00220FDF7D6FEC7F800800220FDF740
:1031B000D1FE641CE4B2082CE6D3BDE8F087000021
:1031C000000C014010B501281AD10E48016821F009
:1031D00070410160016841F040510160094C80205C
:1031E00010342060402020600420FDF7B3FE4FF42F
:1031F000000020600420FDF7ADFE4FF48000206049
:1032000010BD0000000C014010B501281ED110486F
:10321000016821F070410160016841F04051016096
:103220000B4C4FF4800010342060400020600420DC
:10323000FDF790FE402020600220FDF78BFE8020ED
:103240002060BDE810400420FDF784BE10BD0000E2
:10325000000C014070B50024012826D114480168F3
:1032600021F070410160016841F000410160104DA2
:103270008020103528600120FDF76CFE402028607A
:103280000120FDF767FE0A48083008E0641CE4B23C
:10329000FA2C04D90120FFF7B7FF012070BD0168A7
:1032A0000906F3D44FF480002860002070BD0000B0
:1032B000000C014000F0D8F84FF47A7400F004F8E4
:1032C000204603F0B6FEF9E70148FEF766BC0000B1
:1032D000700800203EB50024009401940294104828
:1032E0000E4901608460047304754FF46021C1616C
:1032F000446001250561FEF771F908B1FEF76CF82D
:10330000092000900195029469460548FEF7DEF811
:10331000002801D0FEF760F83EBD00000024014007
:103320007C08002010B5A4B01C221C491DA8FCF785
:10333000AFFF00211DA803F089FE194C60611C221B
:1033400016491C3116A8FCF7A3FF002116A803F0AC
:103350007DFE60601C22114938310FA8FCF798FFF0
:1033600000210FA803F072FE20611C220B4954318A
:1033700008A8FCF78DFF002108A803F067FEA060F5
:103380001C220649703101A8FCF782FF002101A828
:1033900003F05CFEE06024B010BD000060A00008F7
:1033A000200000202DE9F04F85B000240194029404
:1033B000039404942848816941F010018161816976
:1033C00001F010010091816941F00401816181697E
:1033D00001F004010091816941F008018161806977
:1033E00000F008000090DFF874904FF400550022C0
:1033F00029464846FEF797FBDFF864A049F202072A
:10340000002239465046FEF78EFBDFF858B046F2F0
:103410000818002241465846FEF785FB0195012514
:10342000029503940226049601A94846FEF774FA11
:10343000019702950394049601A95046FEF76CFA91
:10344000CDF8048002950394049601A95846FEF72E
:1034500063FA05B0BDE8F08F001002400010014093
:1034600000080140000C014010B5094807490160FF
:103470000521416040F6FF718160FEF761FB002885
:1034800003D0BDE81040FDF7A7BF10BD00300040DD
:10349000700800201CB500240194009416481549BA
:1034A0000160611E41608460FFF7BAF808B1FDF762
:1034B00093FF8DF804408DF805408DF806400122F9
:1034C00001A90D48FFF794F908B1FDF785FF012028
:1034D0008DF800008DF801008DF802008DF8034092
:1034E000012269460448FFF719F9002801D0FDF7C9
:1034F00073FF1CBD002800405C08002010B50C487C
:103500000A4901604FF4E131416000218160C160EE
:1035100001610C2242618161C161FFF733FC002827
:1035200003D0BDE81040FDF757BF10BD0038014083
:103530007807002010B50C480A4901604FF4165175
:10354000416000218160C16001610C2242618161A2
:10355000C161FFF717FC002803D0BDE81040FDF75C
:103560003BBF10BD00480040BC070020FEE72DE92E
:10357000F0470446894609F10C06704200F003004A
:103580008519A068A8422FD2D4E90510814219D12B
:10359000012101EB40084FEA8800064605F066FC71
:1035A0000746380030D03146FCF799FEA069E16843
:1035B00082003846FCF76CFEE06805F0D1FEC4F8E6
:1035C0001880E7604FF48066B54200D32E4630463F
:1035D00005F04CFCD0B16169491C6161E268491E8B
:1035E00042F82100A66020612069C0F8009021699E
:1035F0000C31416000218160216929442161A16869
:10360000491BA160BDE8F0870020FBE70020F9E737
:103610002DE9F04180460F4616461D46002D01D08B
:10362000314600E00C214046FFF7A1FF044644B1BB
:103630005DB104F10C00606032463946FCF728FEAB
:1036400005E04FF0FF30BDE8F0816760266021465D
:10365000404600F002F80020F5E700228A60426848
:10366000002A02D09160416001E001604160C269BE
:1036700009681144C161704700F00AB80021016077
:1036800041608160C160416181610161C1617047D8
:1036900070B50546002405E0E86850F8240005F000
:1036A0005FFE641C6869A042F6D8E86805F058FE21
:1036B0002846BDE87040FFF7E1BF000030B5CBB051
:1036C000529D519C4FF496716846FCF708FE0AA182
:1036D0000A4802F032FD2A4621466846FCF7D8FD2A
:1036E0006A4607A1054802F028FD684601F04CF93A
:1036F0004BB0002030BD00000D0A0000780700200C
:10370000636D643A2025730D0A00000070B50C4605
:1037100015462B46224606A1144802F00EFD2C4306
:1037200004D11348017841F001010170002070BDFF
:103730005375636365737320746F20636F6E6E657A
:10374000637420746F207468652073657276657287
:103750002C20666C61677328253078292C20636FD4
:103760006465282564292E0D0A00000078070020D2
:10377000920100200348017841F08001017000208F
:10378000704700009201002010B50A4602A10D48C2
:1037900002F0D3FC002010BD52656376207468658A
:1037A000207075626C6973682061636B2C20706196
:1037B000636B65742069642069732025642E0D0A8B
:1037C000000000007807002010B50A4602A10D484D
:1037D00002F0B3FC002010BD52656376207468656A
:1037E000207075626C69736820636F6D702C207037
:1037F00061636B65742069642069732025642E0AF7
:10380000000000007807002010B5A0F8B0100A46AC
:1038100002A10D4802F091FC002010BD52656376B4
:1038200020746865207075626C69736820726563C6
:103830002C207061636B6574206964206973202596
:10384000642E0D0A000000007807002010B5A0F8D3
:10385000B0100A4602A10C4802F06FFC002010BD17
:103860005265637620746865207075626C69736850
:103870002072656C2C207061636B65742069642014
:1038800069732025642E0A007807002030B5CBB07C
:103890001C464E9D4FF496716846FCF720FD2A4663
:1038A00021466846FCF7F4FC684601F06DF84BB021
:1038B000002030BD70B515461E460A4633460849FD
:1038C000084802F03AFC002406E02B5D224606A1DF
:1038D000044802F032FC641CB442F6D3002070BDF0
:1038E000FCA2000878070020202020636F64652573
:1038F000643D253032780A0010B50A4602A10D4811
:1039000002F01BFC002010BD5265637620746865D0
:1039100020756E7375627363726962652061636B93
:103920002C207061636B65742069642069732025A5
:10393000642E0A007807002010B50446002020609D
:103940001D49C4F89C1084F8B2004FF49671201DF4
:1039500000F00CFC024632B118A1234802F0EDFB46
:103960004FF0FF3010BD214860612148E0612148DF
:10397000E062A4622048606224622048606324639D
:103980001F48E063A4631F48606424641E48E06429
:10399000A4641E48606524651D48E065A4651D4853
:1039A000606624661C48E066A46604F17000FFF7B8
:1039B00065FE002010BD0000D00000204661696C4B
:1039C000656420746F20696E6974204D51545420D1
:1039D000636F6E7465787420657272636F646520BE
:1039E000697320256400000078070020593A000818
:1039F000BD3B00080D370008753700088D380008FA
:103A000089370008093800084D380008C937000810
:103A1000B5380008F9380008BD3600087FB50646FD
:103A20000C461546206F002803D06FF0060004B046
:103A300070BD2846FCF786FC00220121CDE900027A
:103A4000CDE902212B46324604F1700000F060FC03
:103A50000028ECD1EBE7000070B50D46022000F025
:103A6000FFFE064C30B1A28805492846FCF710FC41
:103A700000F0A6FEA0880021A18070BDC800002033
:103A8000A03E00202DE9FF41064688460A27404611
:103A9000FCF758FC84B2204605F0E8F905462800FA
:103AA00012D022464146FCF7F3FB306FA0B1284606
:103AB00005F056FC1F4A20A1294802F03EFB6FF09A
:103AC000060004B0BDE8F0811A4A26A1244802F09D
:103AD00034FB6FF00A00F4E72A48FCF733FC1C3093
:103AE00005F0C4F928A1FCF734FC2649FCF702FCD8
:103AF0002AA1FCF7FFFB804600200121CDE9004010
:103B0000CDE902012B464246394606F1700000F02D
:103B1000FFFB0446284605F023FC404605F020FC48
:103B200034B1044A21A10E4802F007FB2046C8E741
:103B30000020C6E7F3A100083C25733E3A206374D9
:103B4000782D3E6D7174746275662D3E6669727370
:103B5000745F657874207A65726F0D0A000000004A
:103B6000780700203C25733E3A20745F7061796CC1
:103B70006F6164206D616C6C6F63206572726F722F
:103B80000D0A0000480800203130303630312F73E4
:103B900073625F757569642F000000002F70726F8B
:103BA00070657274792F7570000000003C25733EBB
:103BB0003A206572726F720D0A0000002DE9F0471D
:103BC000ADF5806D884692460027002519A11D4855
:103BD00002F0B3FA1EE058F83590002408EBC50651
:103BE00006E019F8042018A1164802F0A6FA641C91
:103BF0007068A042F5D812A1124802F09EFA58F857
:103C000035100DEB07007268FCF742FBB0883844B2
:103C100007B26D1C5545DEDBB9B2684600F054FEB4
:103C20000BA1084802F089FA0DF5806D5846BDE8F1
:103C3000F087000073656E64206F6E6520706B7492
:103C40000A000000780700202530325820000000CC
:103C500073656E64206F7665720A000008B50B46C6
:103C6000009201220221703000F0D6FB30B104A195
:103C7000104802F062FA4FF0FF3008BD002008BD86
:103C8000437269746963616C206275673A2066618A
:103C9000696C656420746F207061636B2074686563
:103CA00020737562736372696265207061636B650E
:103CB000742E0A00780700202DE9F04105460E46D3
:103CC00000200C4F13E0295C795C491CC9B24418F0
:103CD000B44203D96FF00500BDE8F081284600F03A
:103CE00059FA0028F8D12046295C0029F4D0B042C6
:103CF000E9D3F1E7F3A0000830B40C4604F00F015B
:103D00002409A41E0C2C22D2DFE804F0090C0F12A7
:103D10001518211B211E210630BC00F047B830BC0D
:103D200000F02BB830BC00F0DDB830BC00F047B874
:103D300030BC00F070B830BC00F0A0B830BC00F06F
:103D400054B830BC00F0D4B930BC00F0F9B930BC84
:103D50006FF003007047012200F07F030B70C00971
:103D600048B143F0800301F8013B521C042AF3DD03
:103D70004FF0FF3070471046704730B46FF00304C7
:103D8000002901D1022B02D0204630BC70471178A7
:103D90005278CB0700D00AB9052A01D92046F4E7AA
:103DA000D0E90934A44630BC18466047194302D014
:103DB0006FF003007047D0E907211046084770B53F
:103DC000044610466FF00305002901D1022B01D0F3
:103DD000284670BD00F0A8FB014621B1D4E90D02D0
:103DE000BDE870401047284670BD70B504461046C7
:103DF0006FF00305002901D1022B01D0284670BDC8
:103E000000F092FB014621B1D4E91302BDE87040F5
:103E10001047284670BD70B5064688B010466FF052
:103E20000304002901D1022B02D0204608B070BD46
:103E300000F07AFB054685B1D6E90F022946904786
:103E40000446002C18DB6846FFF718FC2946684634
:103E500000F040FA044614B10BE02046E6E70022E9
:103E60006946304600F0D5FB0799884201D06FF0D3
:103E70000D046846FFF700FC2046D7E770B50646FC
:103E800088B010466FF00304022901D1022B02D042
:103E9000204608B070BD00F047FB054685B1D6E965
:103EA0001102294690470446002C18DB6846FFF7AC
:103EB000E5FB2946684600F0C9F9044614B10BE059
:103EC0002046E6E700226946304600F0A2FB07994B
:103ED000884201D06FF00D046846FFF7CDFB204605
:103EE000D7E700002DE9FF4F8DB08246934601F0E1
:103EF00008000C90C1F3410601F0010000210B9174
:103F000000250027B8466BA109911099022903D218
:103F1000281F11B0BDE8F08F10B16FF00300F8E773
:103F2000584600F001FB04461098A11C884202D2BA
:103F30006FF00300EDE736B1012E18D0022E16D037
:103F40006FF00300E5E70C9810B16FF00300E0E7B5
:103F500022460BF102015846FCF79AF91098001B13
:103F6000801E0A90D946A3440BF1020B17E00BF117
:103F700002091099201D884202D96FF00300C8E79A
:103F80000BEB04008346801C00F0CEFA0B900B98DC
:103F900088B11098001B001F0A900BF1040B002041
:103FA00009F8040021464846FFF786FEA04205D0E6
:103FB0006FF00300ADE76FF00300AAE7484604E0A6
:103FC0002B291ED023291CD0401C01780029F7D1B1
:103FD00099F80000312817D00A980C998DE8430011
:103FE000DAE90B045B464A460B99A0470546002DCB
:103FF0005EDB01A8FFF742FB012E41D0022E44D127
:1040000038E06FF0030084E72BA14846FCF77EF907
:104010000028ECD009F110042C492046FCF776F971
:104020000028E4D02AA12046FCF770F980B10A9854
:104030000C99CDE903B0CDE90516CDE900780998D2
:104040000290DAE9190322460B9998470546CEE714
:1040500023A12046FCF75AF90028C8D00A980C99E9
:104060008DE84300DAE90B045B464A460B99A0470A
:104070000546BCE701A80B9900F00AF9054604E0E3
:1040800001A80B9900F0C0F805466FF00D0455B972
:104090004EB1002201A9504600F0BBFA08998842AF
:1040A00003D0254601E006B1254601A8FFF7E4FA52
:1040B00028462EE7000000003130303630312F73B3
:1040C00073625F757569642F000000004808002066
:1040D00066756E6374696F6E2F646F776E00000093
:1040E00070726F70657274792F646F776E00000064
:1040F0002DE9F04105466FF00306002901D1022B9E
:1041000002D23046BDE8F081104600F00DFA0146BB
:10411000080002D0901CD41808E03046F2E7077877
:1041200017F07C0F01D03046ECE7401C8442F6D8F3
:10413000D5E91504A446BDE8F0419B1E921C6047DA
:1041400070B5044610466FF00305002901D1022B1B
:1041500001D0284670BD00F0E7F9014621B1D4E94D
:104160001702BDE870401047284670BD70B5044680
:104170000D466C212046FCF7B2F8284604F076FE86
:10418000206020B141196160A060002070BD4FF037
:10419000FF3070BD03465A186FF0050001292AD080
:1041A00002290DD0032906D004292CD112F8011DB3
:1041B0008039402927D212F8011D8039402922D2A6
:1041C00012F8011CA1F18002402A1CD21A78E02AC0
:1041D00006D0ED2A07D0F02A08D0F42A0BD108E047
:1041E000A02910D307E09F290DD804E090290AD315
:1041F00001E08F2907D81978A1F18002422A02D361
:10420000F42900D80020704770B505460C46002CF4
:1042100016D004212846FFF7AAF903469BB1596836
:104220004020087059680220487059682046891C4F
:1042300000F039FA19462846FFF70FFA002070BD42
:104240006FF0060070BD4FF0FF3070BD70B50546D1
:104250000C46002C16D004212846FFF788F90346A7
:104260009BB15968702008705968022048705968DD
:104270002046891C00F017FA19462846FFF7EDF989
:10428000002070BD6FF0060070BD4FF0FF3070BDB4
:1042900070B505460C46002C16D004212846FFF7C1
:1042A00066F903469BB1596850200870596802208E
:1042B000487059682046891C00F0F5F919462846CF
:1042C000FFF7CBF9002070BD6FF0060070BD4FF016
:1042D000FF3070BD70B505460C46002C15D004218A
:1042E0002846FFF744F90346622059680870596868
:1042F0000220487059682046891C00F0D4F91946FC
:104300002846FFF7AAF9002070BD6FF0060070BDC7
:104310002DE9FF4F81B09046DDE90E79109E02989D
:104320006FF0060A002801D0002408E0504605B0CE
:10433000BDE8F08F23280FD02B280DD0641C18F86F
:1043400004000028F6D121464046FFF7B5FCA04204
:1043500004D06FF00500EAE75046E8E70521019830
:10436000FFF705F905464FF0FF3B9DB16968302026
:10437000087016B1686831210170E619B61CB9F1F0
:10438000000F16D0B9F1010F06D0B9F1020F0AD013
:104390005046CCE75846CAE76868017841F0020108
:1043A0000170B61C05E06868017841F004010170F5
:1043B000B61C69683046491CFFF7CDFC002802DABC
:1043C0006FF00700B3E7401C2860F11B0198FFF76E
:1043D000CEF80646F6B170680090A2B24146684633
:1043E00000F08FF8B9F1000F03D00099029800F0A7
:1043F0005AF929460198FFF730F931460198FFF73D
:104400002CF92FB13A46119B04990198FFF700F956
:1044100000208CE758468AE72DE9FF4F81B091468E
:104420000E9F9846002502986FF0060B002801D0D9
:10443000002417E0584605B0BDE8F08F58F8246016
:104440006EB13046FBF77EFF8246554451463046FA
:10445000FFF732FC504504D06FF00500EBE75846FB
:10446000E9E7641CBC42E9DB05210198FFF77FF80E
:1044700006464FF0FF34BEB1716880200870781C8A
:1044800005EB4005AD1C29460198FFF770F8824600
:104490005FEA0A000AD071682846491CFFF75BFCF6
:1044A000002805DAE000C6E72046C4E72046C2E758
:1044B000401C3060DAF804100091029800F0F3F824
:1044C0000098801C009000240FE058F824502846E3
:1044D000FBF738FF82B22946684600F012F80098D0
:1044E00080F80090401C0090641CBC42EDDB31461B
:1044F0000198FFF7B2F851460198FFF7AEF8002097
:1045000099E770B504460B4615462846216800F029
:10451000CAF820682A46801C1946FBF7B9FE2068B5
:10452000AD1C2844206070BD4178007841EA00202D
:104530007047F0B504460123002010605D0512E0CD
:10454000275C166807F07F0707FB03661660265C8A
:10455000360601D4401CF0BDDB01AB4202D36FF044
:104560000100F0BD401C8842EADB4FF0FF30F0BD97
:10457000F8B5044600200090D4E90101421AD4E9BC
:1045800003039847002803D007DA6FF00200F8BD54
:104590002068A0606FF00100F8BDA1680844A06029
:1045A0006168884202D96FF00800F8BD2568A068EC
:1045B000411B022920DB491E6A46681CFFF7B9FF30
:1045C0000646701C18D0B01C13D0009BA168E818D8
:1045D0003044401C88420FD8AA19521C2978204622
:1045E000FFF78AFB0028E0DB0098304405446D1C8F
:1045F000DDE76FF00300F8BD2068A84207D22E1A4D
:1046000032462946FBF744FEA068801BA0600020CC
:10461000F8BD2DE9F04781469246C869504502D859
:104620000020BDE8F0870C68002602E02068064400
:10463000A4680CB15645F9D3A046002701E07F1CC1
:10464000A468002CFBD19FB1F80004F00FFC0546D4
:1046500028000FD0D8F80410AAEB06000144296006
:10466000D8F80010081A68600120D8F808300DE06A
:104670000020D6E74FF0FF30D3E7596845F83010F7
:1046800005EBC00219685160401C9B68002BF4D1F7
:10469000D9E905033A46294698470446284604F0D6
:1046A0005FFE2046BDE7020A0A70487070470000AE
:1046B00010B51D4B1D4C002811D001281BD002281D
:1046C00025D003282FD1012211461846FDF72BFAD9
:1046D00020460122BDE810408021FDF724BA0022C7
:1046E00001211846FDF71FFA20460022BDE81040C0
:1046F0008021FDF718BA012211461846FDF713FA7A
:1047000020460022BDE810408021FDF70CBA0022AF
:1047100001211846FDF707FA20460122BDE81040A6
:104720008021FDF700BA10BD000C014000080140D7
:1047300070B586B0002002900390049005901D484B
:10474000816941F008018161816901F008010191ED
:10475000816941F004018161806900F004000190E9
:10476000154D002201212846FDF7DDF9134E0022E8
:1047700080213046FDF7D7F9012402940394049474
:10478000059402A92846FDF7C7F8802002900394FB
:104790000494059402A93046FDF7BEF801221146A3
:1047A0002846FDF7C0F9012280213046FDF7BBF90C
:1047B00006B070BD00100240000C0140000801402E
:1047C00000F08CB82DE9F04186B0002002900390F3
:1047D000049005901F48816941F008018161816959
:1047E00001F008010191816941F004018161806952
:1047F00000F004000190184F4FF4807600223146FB
:104800003846FDF790F9DFF854803501002229463B
:104810004046FDF788F90296012403940494059418
:1048200002A93846FDF778F802950394049405949C
:1048300002A94046FDF770F8012231463846FDF7DF
:1048400072F9012229464046FDF76DF906B0BDE830
:10485000F081000000100240000C014000080140FF
:1048600070B504464FF4167500F05EF838B128466E
:1048700002F0DFFB641EA4B2F6D2002070BD034834
:10488000034A30F8041B918070BD00009C3E00205C
:10489000C800002002480088C0F3C3207047000011
:1048A000C800002010B5FFF78DFF0648018821F4ED
:1048B0000041018000F01EF8BDE810404FF47A700E
:1048C000FCF72DBBC800002000F024B802490A887C
:1048D00060F3CE220A807047C800002004480021FF
:1048E000018041804FF4A071001DFBF7F8BC00006F
:1048F0009C3E002010B5FEF701FE0122034904484A
:10490000FEF7E2FABDE81040FFF7E8BFE03F002005
:10491000780700200A4601464FF6FF730148FEF76C
:104920000BBB00007807002006490888002804D047
:104930004A88904203D10020704701207047488088
:10494000012070479C3E0020FFF7ACFF0120FFF7DD
:10495000BDFF0B4C4FF47A7594F8C210CA070AD108
:1049600041F0010184F8C21000F09EFD284602F0DB
:1049700060FB00F015FB192002F05BFBECE7000088
:10498000D0000020FEE700002DE9FC4102F010FA03
:104990000546280053D0FDA102F0E8F90069FDA109
:1049A000FBF7B4FC002708B1FC480770FCA12846BF
:1049B00002F0DCF90446200046D0FBA12069FBF799
:1049C000A5FCFC4E002844D0FBA1284602F0CEF9FD
:1049D0000446200032D0FAA102F0C8F901460029AD
:1049E000F8D0D1E906010022F84BFBF75FFEFBF798
:1049F0000CFFFCF763FB0020314602F029F9024668
:104A0000F3A1204602F0E4F8E2A002F03BF90246EE
:104A1000DEA1284602F026FA284602F0FFF90446F5
:104A20002146EEA000F0B0FB204604F099FCDB48E4
:104A3000C330017821F00E01891C0170A2E2F3A1BC
:104A4000F84801F07AFB9DE2F7A1F64801F075FB0A
:104A500098E2FEA12069FBF759FC00283CD0D6A1C2
:104A6000284602F083F904462000E7D0FAA102F0BC
:104A70007DF90028E2D0007DC0B2FCF7A9FC064613
:104A8000F5A1204602F02CF93046FBF79DFE02F01E
:104A9000DFF80246CEA1204602F09AF8BDA002F04F
:104AA000F1F80246B9A1284602F0DCF9284602F0E6
:104AB000B5F90446C82004F0F3FC2146C7A000F075
:104AC00063FB4FF47A7004F0EBFC002000F094FBE1
:104AD000204604F045FC55E2E1A12069FBF716FCF5
:104AE000002834D0B4A1284602F040F90446200042
:104AF000A4D0019701A8FCF743FB0646BDF80400CB
:104B0000FBF762FE02F0A4F80246D8A1204602F0AC
:104B10005FF83046FBF758FE02F09AF80246D4A13F
:104B2000204602F055F89BA002F0ACF8024697A18F
:104B3000284602F097F9284602F070F9044621460B
:104B4000A6A000F021FB204604F00AFC1AE2CAA14C
:104B50002069FBF7DBFB00282CD097A1284602F048
:104B600005F904462000B6D0C4A102F0FFF80028E1
:104B7000B1D0808A80B2FCF7C9FAFBF725FE02F0BB
:104B800067F8024692A1204602F022F881A002F0C6
:104B900079F802467DA1284602F064F9284602F021
:104BA0003DF9044621468DA000F0EEFA204604F0BF
:104BB000D7FBE7E1B2A12069FBF7A8FB002834D0BE
:104BC0007DA1284602F0D2F804462000BED001970D
:104BD00001A8FCF7E7F90646BDF80400FBF7F4FD71
:104BE00002F036F80246A9A1204601F0F1FF304656
:104BF000FBF7EAFD02F02CF802469DA1204601F0E9
:104C0000E7FF64A002F03EF8024660A1284602F0E9
:104C100029F9284602F002F9044621466FA000F067
:104C2000B3FA204604F09CFBACE19AA12069FBF7A3
:104C30006DFB002841D060A1284602F097F8044699
:104C40002000B6D096A102F091F806463000B0D010
:104C5000002102F082F801468069C969FBF7F4FD82
:104C6000ADF804000121304602F077F80146806972
:104C7000C969FBF7E9FDADF8060001A8FCF7A4F946
:104C8000FBF7A2FD01F0E4FF024651A1204601F02E
:104C90009FFF40A001F0F6FF02463CA1284602F02B
:104CA000E1F8284602F0BAF8044621464BA000F08D
:104CB0006BFA204604F054FB64E17BA12069FBF70A
:104CC00025FB002833D03CA1284602F04FF80446CB
:104CD000002CA9D0009701976846FCF76BF90646AF
:104CE0000221684601F094FF02466DA1204601F0C2
:104CF0006FFF3046FBF768FD01F0AAFF02465CA19A
:104D0000204601F065FF23A001F0BCFF02461FA171
:104D1000284602F0A7F8284602F080F8044621460B
:104D20002EA000F031FA204604F01AFB2AE161A11E
:104D30002069FBF7EBFA0028BED161A12069FBF7DF
:104D4000E5FA002820D01CA1284602F00FF80446FE
:104D50002000B1D05EA102F009F806463000ABD0C9
:104D6000002101F0FAFF01468069C969FBF76CFD7B
:104D7000ADF804000121304601F0EFFF01468069E3
:104D8000C969FBF761FDA9E0CEE0000074797065A8
:104D9000000000007265706C79000000CF000020F8
:104DA0006D6574686F64000053796E635F54696D5C
:104DB000650000000000F03F706172616D730000DB
:104DC00054696D657374616D7000000000408F4020
:104DD000657865635F726573756C74003130303669
:104DE00030312F7373625F757569642F31323333DD
:104DF0003331333133353438333861332F66756EA0
:104E00006374696F6E2F75700000000043616E2738
:104E1000742066696E642076616C696420636D64D9
:104E20000D0A00007807002043616E277420666930
:104E30006E642076616C6964206D6574686F6420AF
:104E40006B65793A76616C75650D0A004368675F3A
:104E50004C677444697200004C67745F4469720067
:104E6000526561645F445550000000004475700055
:104E7000726573756C7400004368675F4455500039
:104E8000526561645F465756657200004677566505
:104E9000720000004368675F4465764C6F630000F2
:104EA0004465765F4C6F6300526561645F4465766C
:104EB0004C6F63005570646174655F467700000055
:104EC00053656E645F41626E4576744C6F6300009B
:104ED00041626E4576745F4C6F630000ADF806006A
:104EE00001A8FBF76DFFFBF76FFC01F0B1FE024676
:104EF000AFF22411204601F06BFEAFF2681001F012
:104F0000C1FE0246AFF27C11284601F0ABFF2846F5
:104F100001F084FF04462146AFF2401000F034F95E
:104F2000204604F01DFA2DE019A12069FBF7EEF9E7
:104F300040B3AFF27C11284601F018FF04460CB3D1
:104F40000020314601F084FE0246AFF27C1120467B
:104F500001F03EFEAFF2C41001F094FE0246AFF243
:104F6000D411284601F07EFF284601F057FF044681
:104F70002146AFF2981000F007F9204604F0F0F94E
:104F8000FCF706F92846BDE8FC4101F089BE0000A7
:104F90005265626F6F745F446576696365000000F7
:104FA0007FB54E4890F8C200C0077CD004F0A2F94B
:104FB00001F060FE04464AA001F064FE024649A1E9
:104FC000204601F005FE49A001F05CFE024649A121
:104FD000204601F0FDFD49A001F054FE024648A123
:104FE000204601F0F5FD0020009001900290039012
:104FF00000F056FD02460B4642A1684601F0B8F8A3
:10500000684601F03FFE024640A1204601F0E0FD67
:10501000684601F037FE02463DA1204601F0D8FD6A
:105020003EA001F02FFE02463EA1204601F0D0FD39
:1050300001F020FE05463D4801F024FE02463CA159
:10504000284601F0C5FD2A463AA1204601F0C0FDE0
:10505000204601F0E3FE0546204601F021FE3348DC
:10506000FBF770F9193003F001FF04462046FBF707
:1050700069F901462046FBF732F930A12046FBF7DB
:1050800068F92A49FBF736F931A1FBF733F90646EF
:105090002A4632493046FEF7C1FC304C7034A8B184
:1050A0002FA1384800E00FE001F047F8304604F047
:1050B00057F9284604F054F92046FEF7E9FA04F0BF
:1050C00039F9002004B070BD0120FBE7234800221D
:1050D0002146001DFFF79DFAE8E70000D000002000
:1050E000312E300076657273696F6E006576656E7D
:1050F0007400000074797065000000003100000049
:1051000061636B00256C6C64000000006964000042
:1051100074696D657374616D700000004F6E4C6949
:105120006E6500006D6574686F64000048080020BB
:105130004D616300706172616D7300003130303613
:1051400030312F7373625F757569642F0000000042
:105150002F6576656E742F7570000000EC3F00209F
:105160005741524E3A09094D71747453616D706C18
:10517000655F5361766564617461204661696C6541
:10518000640D0A007807002070B505460C461248E9
:1051900090F8C200C00703D0FFF77CFB012801D0C4
:1051A000012070BDFFF70CFB0CA1114800F0C5FFFA
:1051B000224610492846FEF731FC0E4C703428B9BF
:1051C00000222146A4F16C00FFF723FA2046FEF7E7
:1051D0005FFA002070BD0000D00000204F6E654EC9
:1051E00065745F5075626C6973680D0A0000000099
:1051F00078070020EC3F00202DE9FF417249087834
:10520000401CC0B20870491C052805D991F8C2009D
:1052100020F0010081F8C20091F8C200C0077DD0E3
:1052200004F068F801F026FD054668A001F02AFDAB
:10523000024667A1284601F0CBFC67A001F022FDE1
:10524000024668A1284601F0C3FC68A001F01AFDDF
:10525000024667A1284601F0BBFC0024009401949B
:105260000294039400F01CFC02460B4661A16846C0
:1052700000F07EFF684601F005FD02465FA128466A
:1052800001F0A6FC684601F0FDFC02465CA1284640
:1052900001F09EFC50A001F0F5FC02465BA12846FF
:1052A00001F096FC01F0E6FC064601F0E3FC07463F
:1052B00058480068FBF7E1FA01F0CAFC024656A123
:1052C000384601F085FC57480068FBF7D6FA01F034
:1052D000BFFC024654A1384601F07AFC55480088CC
:1052E000FBF772FA01F0B4FC024653A1384601F014
:1052F0006FFC5248B0F90000FBF755FA01F0A8FC2A
:1053000002464FA1384601F063FC4F48B0F9000057
:10531000FBF749FA01F09CFC024600E04BE04BA190
:10532000384601F055FCFCF755F8FBF74DFA01F053
:105330008FFC024647A1384601F04AFC4748006806
:10534000FBF79BFA01F084FC024645A1384601F0C8
:105350003FFC454801F096FC024644A1384601F066
:1053600037FC3A461CA1304601F032FC324640A1DF
:10537000284601F02DFC284601F050FD064628463F
:1053800001F08EFC31463C48FEF77CFB3A4D70350F
:1053900098B13AA1424800F0D0FE304603F0E0FF59
:1053A00003F0C8FF2846FEF773F93E48047000205A
:1053B00004B0BDE8F0810120FAE72F480022294619
:1053C000001DFFF726F9E8E7CF000020312E30005E
:1053D00076657273696F6E0070726F706572747942
:1053E00000000000747970650000000031000000CA
:1053F00061636B00256C6C64000000006964000050
:1054000074696D657374616D700000006D6574681A
:105410006F6400009801002054656D705F456E76E2
:10542000000000009C01002048756D695F456E76A4
:105430000000000094010020434F3200A001002032
:10544000504D322E35000000A2010020504D313069
:10545000000000004C67745F44697200B8010020CE
:105460004241545F50435400480800204D6163009E
:10547000706172616D730000EC3F00205741524E25
:105480003A09094D71747453616D706C655F5361B5
:10549000766564617461204661696C65640D0A001B
:1054A00078070020CE0000207FB52B48D0E90012FD
:1054B0008068CDE9011203900024284890F8C200CA
:1054C000C00733D025490020491E0870FFF778F93E
:1054D00023A1284800F031FE2748FAF733FF1E3099
:1054E00003F0C4FC0090254E01AD0098FAF72AFFA6
:1054F00001460098FAF7F3FE21A10098FAF729FF78
:1055000000901D49FAF7F6FE009055F82410FAF7BE
:10551000F1FE00901FA1FAF7EDFE0090174801225E
:1055200069467038FEF79AFB18B108E0012004B014
:1055300070BD1248002231466C38FFF76AF83046D9
:10554000FEF7A6F8641CE4B2032CCED3009803F057
:1055500007FF0020EBE7000008A20008D0000020B1
:105560004F6E654E65745F537562736372696265F1
:105570000D0A000078070020480800205C40002049
:105580003130303630312F7373625F757569642F37
:1055900000000000646F776E0000000010B586B058
:1055A000002002900390049005901048816941F01A
:1055B00008018161806900F0080001900C4C002214
:1055C00004212046FCF7AFFA042102910121039146
:1055D0000491059102A92046FCF79EF901220421BD
:1055E0002046FCF7A0FA06B010BD000000100240F3
:1055F000000C014070B50524022000F0B1F8124EF5
:10560000124D0BE000F054F828B100F079F810B119
:10561000687802280BD0642001F00BFD641EE4B210
:10562000F0D24FF0FF3070803080002070BDE878FD
:10563000A97840EA012070806879297940EA012040
:105640003080012070BD0000A001002088450020AE
:105650000348002120F8041B6421FAF740BE000033
:105660002045002010B5FDF765FF64220549064876
:10567000FDF754FAFFF7ECFFFFF790FFBDE810408D
:10568000FFF756B824450020BC07002070B505463A
:105690000C460120FFF70CF822462946BDE8704071
:1056A0004FF6FF730148FDF747BC0000BC07002020
:1056B00003480088002801D001207047002070476F
:1056C0002045002010B50346002009290AD80021F2
:1056D0005A5C104480B2491C0629F9DB197A084447
:1056E00080B210BD0022891E03E09C5C204480B281
:1056F000521C8A42F9DB10BD072000F031B80000CF
:1057000010B590B0002415490A88092A21D3091D33
:1057100001A8FAF7BDFD9DF80400AA2819D19DF84B
:105720000C00BB2815D1062101A8FFF7CBFF9DF87F
:105730000B109DF80A2041EA0221884209D101217B
:10574000064A01AB6832585C50540124491C0629B2
:10575000F9DBFFF77DFF10B0204610BD204500208B
:1057600010B5094C607006212046FFF7ABFF010A17
:10577000A171E0710924FFF76BFF2146BDE81040DD
:105780000148FFF783BF0000A801002010B5064CB8
:105790006068FFF767FF642001F04BFC6068BDE8BC
:1057A0001040FFF7A9BF0000A0010020034921F825
:1057B000040B64220248FDF7B1B900002045002027
:1057C000BC07002010B5FDF785FDBDE81040FBF7D4
:1057D00055BB000010B500F0B1FCFBF721FBFAF758
:1057E000DDFF0C4C60600C49884206DB207820B15C
:1057F0000020FBF733FB00202070084960688842D6
:1058000007DA2078002804D10120FBF727FB0120CC
:10581000207010BDB40100200000A64200008242AA
:1058200008B507494FF4FA520968B1FBF2F1414358
:10583000009100BF0098411E0091FAD208BD0000FF
:10584000C8010020010901EB8101490000F00F00AF
:105850000844C0B27047002102E0491C0A38C0B2B7
:105860000A28FAD2090740EA116070472DE9F04191
:10587000064688460027F57B747BB27B40E0012C0E
:1058800016D0032C14D0052C12D0072C10D0082CC5
:105890000ED00A2C0CD00C2C0AD0042C15D0062CBF
:1058A00013D0092C11D00B2C0FD0022C14D026E0D1
:1058B0001F2A01D2521C22E00C2C02D0641C0122AF
:1058C0001DE0012401226D1C19E01E2A01D2521C88
:1058D00015E0641C012212E01C2A02D202F101022E
:1058E0000DE008D1A8B200F04CF808B11D2206E086
:1058F0000324012203E01D2A01D1032401227F1C7D
:105900004745BCD3F573E1B27173D2B2B273284686
:1059100000F065F83073BDE8F08170B50546FCF71E
:1059200009F904464FF47A7606E0FCF703F9001B08
:10593000B04201D9032070BD286840688006F4D5C4
:105940002868416841F010014160002070BD70B5C9
:1059500005462868416821F010014160FCF7EAF82B
:1059600004464FF47A7606E0FCF7E4F8001BB042F8
:1059700001D9032070BD286840688006F4D5002056
:1059800070BD810701D0002070476421B0FBF1F2A7
:1059900001FB120109B1012070474FF4C871B0FB3F
:1059A000F1F201FB120008B100207047012070479E
:1059B0000068016A406A80B240EA014070470068AE
:1059C000816989B2C26993B2826992B2914203D06D
:1059D000C06962F31F40704743EA01407047F0B569
:1059E00000F5FA606427C1EBC1030925BE00072456
:1059F00003EB0113032912D2B3FBF5F11144014467
:105A0000401EB0FBF7F201EB9001B0FBF6F0891AF3
:105A10000844001DB0FBF4F104FB110010E0B3FBDF
:105A2000F5F11144B0FBF7F2014401EB9001B0FB3A
:105A3000F6F0891A0844801CB0FBF4F104FB110055
:105A4000C0B2F0BD70B505460E4600242846FFF7EB
:105A500064FF08B101240AE02968300C0862296853
:105A6000B0B248622846FFF772FF00B10124204619
:105A700070BD70B505460E4600242846FFF74DFF61
:105A800008B101240AE02968300C88612968B0B2A5
:105A9000C8612846FFF75BFF00B10124204670BDB6
:105AA000F0B58DB0254E0024019400940022694683
:105AB0002348FCF740FD2348007800F00F002149FF
:105AC000091D09888AB242EA00401F4D301AFAF7D0
:105AD00065FE2946FAF787FC1C49FAF752FCFAF7EB
