:020000040800F2
:1028000048240020B1290008614300086D3A0008FF
:102810003943000865310008C54B0008000000007E
:10282000000000000000000000000000192900085E
:10283000DD350008000000005D290008854600081D
:10284000CB290008CB290008CB290008CB29000898
:10285000CB290008CB290008CB290008CB29000888
:10286000CB290008CB290008CB290008CB29000878
:10287000CB290008CB290008CB290008CB29000868
:10288000CB29000879320008CB290008CB290008A1
:10289000CB290008CB290008CB29000847390008BC
:1028A000CB290008CB290008CB290008CB29000838
:1028B000CB290008CB290008CB290008CB29000828
:1028C000CB290008CB290008CB290008CB29000818
:1028D000CB290008FD47000825490008FD490008EC
:1028E0002D390008CB290008CB2900080000000082
:1028F00000000000000000000000000000000000D8
:10290000CB290008DFF80CD000F04CFA0048004753
:10291000095F000848240020224B19680868B0E8C5
:10292000F00F80F30988BFF36F8F4FF0000080F342
:1029300011884EF00D0E7047000000000648006838
:10294000006880F3088862B661B6BFF34F8FBFF3AB
:102950006F8F00DF00BF00BF08ED00E0EFF30980DC
:10296000BFF36F8F0F4B1A6820E9F00F106008B5A6
:102970004FF0BF0080F31188BFF34F8FBFF36F8F0D
:1029800005F038F84FF0000080F31188BDE80840EA
:1029900019680868B0E8F00F80F30988BFF36F8FFB
:1029A000704700BF20000020EFF305807047000053
:1029B0000648804706480047FEE7FEE7FEE7FEE7D9
:1029C000FEE7FEE7FEE7FEE7FEE7FEE78D460008CE
:1029D0000529000840EA01039B0703D009E008C964
:1029E000121F08C0042AFAD203E011F8013B00F8D4
:1029F000013B521EF9D27047D2B201E000F8012B20
:102A0000491EFBD270470022F6E710B513460A466E
:102A100004461946FFF7F0FF204610BD30B50546C5
:102A20002A460B4612F8010B13F8014B08B1A042DD
:102A3000F8D01CB1002802D06D1CF1E7284630BD4B
:102A400030B505460020034600E05B1C934205D2EA
:102A5000EC5CC85C201A01D1002CF6D130BD30B43A
:102A600080EA010202F0004530F0004221F000400F
:102A700013D090B1C30DD40DC2F31601C0F31600EC
:102A8000E41A41F4000140F400027D34914201D384
:102A9000641C00E04900002C02DA30BC00207047C2
:102AA0004FF400000023914201D3891A03434008E8
:102AB0004FEA4101F7D151B1914202D14FF00041AB
:102AC00005E002D24FF0010101E06FF0010103EBDC
:102AD000C450284430BC00F0D0B82DE9FE4F81EA44
:102AE000030404F0004421F0004100944FF0000B77
:102AF00023F0004350EA01045ED052EA03045BD0A5
:102B0000C3F30A54C1F30A552C44A4F2F3340194DC
:102B1000A0FB0254C1F3130141F48011C3F313036A
:102B200043F4801301FB024400FB034E840A970A1E
:102B300044EA815447EA8357A4FB076802958D0A4B
:102B400005FB07854FEA932C04FB0C542705029DD7
:102B50004FEA065847EA1637B5EB08056EEB070C47
:102B6000870E920E47EA811742EA8312A7FB020101
:102B7000B6EB0B0164EB00042B0D43EA0C335E183B
:102B800044EB1C50DA465146E7FB0201C5F313043F
:102B90004FEA0B3343EA14534FEA0432019C43EAF1
:102BA0000603A4F10C040294009CCDE900B400F0EB
:102BB000AAF803B0BDE8F08F00200146F9E796239C
:102BC0000022114600F062B820F00040C10DC0F3B1
:102BD000160040F400007F2901DA00207047962992
:102BE00003DCC1F19601C8407047963988407047B0
:102BF00000F0004230F000400AD0C10D01F56071D4
:102C0000C0F3160042EA0151C20840071143704761
:102C100000200146704701F0004330B421F000412C
:102C200050EA010206D00A0DA2F56072C1F3130149
:102C3000002A02DC30BC00207047440F44EAC10483
:102C4000C100E01830BC00EBC25000F016B830B53F
:102C50000B46014600202022012409E021FA02F55A
:102C60009D4205D303FA02F5491B04FA02F52844F4
:102C7000151EA2F10102F1DC30BD0029A8BF70478A
:102C8000401C490008BF20F00100704710B4B0FAA2
:102C900080FC00FA0CF050EA010404BF10BC70473D
:102CA00049B1CCF1200421FA04F411FA0CF118BF57
:102CB000012121430843A3EB0C01CB1D4FEA006126
:102CC0004FEA102042BF002010BC704700EBC350F9
:102CD00010440029A4BF10BC7047401C490008BF25
:102CE00020F0010010BC704710B5141E73F10004F1
:102CF00008DA401C41F1000192185B411A4301D1EE
:102D000020F0010010BD2DE9F04D92469B4611B117
:102D1000B1FA81F202E0B0FA80F22032904600F07F
:102D200053F804460F4640EA0A0041EA0B015346B5
:102D30005A46084313D0114653EA010019D0C8F18E
:102D40004002504600F04FF805460E4650465946A0
:102D5000424600F039F8084305D0012004E020463F
:102D60003946BDE8F08D0020054346EAE0762C4365
:102D700037430A986305E40AA0EB08000022FD0A25
:102D800044EA47540A3002D500200146E9E701052C
:102D900010196941DDE9084500196941BDE8F04DA8
:102DA000A2E70000064C074D06E0E06840F0010392
:102DB00094E8070098471034AC42F6D3FFF7A6FD1D
:102DC000F483000814840008202A04DB203A00FA67
:102DD00002F1002070479140C2F1200320FA03F372
:102DE000194390407047202A04DB203A21FA02F070
:102DF0000021704721FA02F3D040C2F12002914035
:102E000008431946704770B58C1810F8015B15F02F
:102E1000070301D110F8013B2A1106D110F8012B4C
:102E200003E010F8016B01F8016B5B1EF9D12B0771
:102E300005D40023521E0DD401F8013BFAE710F827
:102E4000013BCB1A921C03E013F8015B01F8015B14
:102E5000521EF9D5A142D8D3002070BD10B500F0A4
:102E600073F940F2096003F0E5FD032003F02CFD47
:102E7000002002F05DF901220221134802F0CFF98F
:102E80000021114802F0FEF8012211460E4802F01E
:102E9000D6F84FF4E04201210B4802F026F9012157
:102EA000094802F0ADF901221146074802F0FEF888
:102EB000054802F0F2F84FF47A7002F0E3F90248A4
:102EC00002F0A8F810BD00000024014010B5002455
:102ED0000523092200210C4802F038F901210A4893
:102EE00002F08EF900BF0221074802F01AF900280B
:102EF000F9D00221044802F010F9034802F07CF9ED
:102F00000446204610BD00000024014010B50446D0
:102F10001448006800F0F4F948B11249096888695A
:102F200000F0BCF90F490968C86900F0B7F904203E
:102F300020700C4800688069408A0012607009485F
:102F400000688069807CA0700520E07005480068FA
:102F5000C069408A0012207102480068C069807C04
:102F6000607110BDC402002010B5002421E0134997
:102F700031F8241088B203F05DFD3CB94FF4C06015
:102F800003F058FD01210E4802F076FF0D4951F87B
:102F900024300D4951F824000322102102F006FFCD
:102FA000084850F82400084951F824100861601CB2
:102FB000C4B2042CDBDB012010BD0000980000200F
:102FC00000023000B8000020A800002010B5044620
:102FD00040F2036003F02EFD4023032210210B4832
:102FE00002F0E4FE40F2036003F024FD802303229C
:102FF0001021064802F0DAFE4021044802F082FE69
:103000008021024802F07EFE10BD0000000C01404D
:1030100010B5802303224821014802F0C7FE10BDED
:10302000000C014010B5802303221021014802F05A
:10303000BDFE10BD000C0140014631B1012911D087
:1030400002291DD0032938D128E04FF400401D4A41
:1030500010600220106008201B4A106080021B4A8A
:1030600050612BE04FF40040164A121F10600220FE
:1030700010600820144A10608002144A50611DE05C
:103080004FF400400F4A10600220106008200E4AE2
:10309000121F106080020D4A10610FE04FF40040D3
:1030A000084A121F1060022010600820064A121FF2
:1030B00010608002054A106100E000BF00BF0120DF
:1030C0007047000014080140140C0140001001403A
:1030D00038B500250BE01A4A52F82510194A52F863
:1030E000250002F0C1FE0DF80500681CC5B2042DD4
:1030F000F1DB9DF8000020B99DF8020008B900241A
:103100001CE09DF80000012804D19DF8020008B9D8
:10311000012413E09DF8000028B99DF80200012861
:1031200001D102240AE09DF80000012805D19DF894
:103130000200012801D1032400E00424204638BD08
:10314000B8000020A800002010B540F2036003F092
:1031500071FC022303220021014802F027FE10BD6A
:10316000000C014000BFFEE70CB51948007810B113
:10317000012825D112E00821164A1170002000BF55
:1031800004E01449491C0854411CC8B2114909788B
:103190008142F6DC02210E4A117012E005200D4931
:1031A00008700DA103C9CDE900010A480099C0F8D3
:1031B00001109DF80410417102200549087000E0DB
:1031C00000BF00BF002006490870064908700CBD0A
:1031D0000E020020C01700200001040507000000B7
:1031E0000C0100200F02002010B5074A074B1B7886
:1031F00002EB43121178044A044B1B7802EB431292
:10320000501C01F00FF810BD0E0100200C01002031
:1032100010B502460023002004E0145C1C44A3B255
:10322000441CE0B28842F8DB184610BD18B90121F1
:10323000034A116003E00121014A121F1160704727
:103240001408014010B540F2026003F0F3FB0123C3
:1032500003221021034802F0A9FD01200149143185
:10326000086010BD0008014002480078401C014978
:10327000087070470C01002010B502220621064894
:1032800002F055F938B102220621034802F047F94D
:10329000002002F0D3FC10BD0000024010B5002158
:1032A0004388447800F1080222F814304288838869
:1032B000D21AC28042888280C28803789A4202DD94
:1032C000027D521C0275002242820DE0438A00F109
:1032D000080232F811201A444282428A02EBD27369
:1032E0005B1043824A1CD1B20529EFDB43785A1C9C
:1032F000052293FBF2F402FB1432427010BD000071
:1033000070B504460025052600BF0221204600F0C6
:10331000A7F8C82001F0B0FF204600F047F80546A6
:10332000701EC6B20DB9002EEFDC7DB108484079A1
:103330000749097940EA0120A16948800448C0781A
:103340000349897840EA0120E1694880284670BD38
:103350002C18002010B50446E168606803F0C8FF2F
:1033600002F082F910BD10B50246002009290BDCDD
:10337000002303E0D45C0444A0B25B1C062BF9DB01
:10338000137A034498B208E0002303E0D45C0444B9
:10339000A0B25B1C8C1E9C42F8DC10BD10B504462C
:1033A0000721204600F05CF810BD000070B588B021
:1033B0000546002668690068092848D368690478CA
:1033C000224668462969FFF705FB9DF80000422860
:1033D0001CD19DF800004D2818D121466846FFF702
:1033E000C2FF611E1DF80120A11E1DF8011042EA56
:1033F000012188420AD1042004E01DF80010174A78
:103400001154401CA042F8DB01261FE09DF800008B
:10341000AA281BD19DF80800BB2817D12146684671
:10342000FFF7A1FFA11E1DF80120E11E1DF80110EC
:1034300042EA0121884209D1012004E01DF8001070
:10344000064A1154401CA042F8DB012600BF0020B0
:1034500069690860304608B070BD00002C18002073
:103460002DE9F04104460D460D4845700921FFF74E
:103470007AFF064630120A498871CE7109274FF447
:1034800080712069FFF7BFFA217A022003F068FEFD
:10349000217A3B46024A606801F07AFBBDE8F08180
:1034A000B802002010B5202002F0F0FD04461620DE
:1034B00002F0ECFDA061162002F0E8FDE06120467C
:1034C00010BD000010B5FFF7EDFF0A4908600123A9
:1034D0004FF4165208490748006800F00FF803F04F
:1034E0006FFE04480068FFF735FF02480068FFF7E9
:1034F00055FF10BDC40200200048004030B5002434
:1035000004704160C260174C04610372164C446140
:103510000A2485692C70002485692C7585696C7076
:1035200085696C808569AC808569EC8085696C8271
:103530000025C469A56025730A24C5692C70002480
:10354000C5692C75C5696C70C5696C80C569AC802E
:10355000C569EC80C5696C820025C469A5602573C6
:1035600030BD0000471D0020D402002070B5182097
:1035700002F08CFD044614480568012020701348B1
:103580004078207312480078606011480078401C31
:103590000F49087041F23400A0600C484068206177
:1035A00000206061182221460A48FFF713FA00E064
:1035B0006D6968690028FBD1686960616C610020F1
:1035C0000549087070BD0000600200200818002046
:1035D000AC02002014180020780200207047000080
:1035E0000EB5002000BF08E0114A02EB8001D1F8BF
:1035F000E8174DF82010411CC8B20328F4DB002066
:1036000012E0042806DAC0F10302D2000199D14089
:10361000C9B205E0C0F10702D2000099D140C9B299
:10362000044A1154411CC8B20828EADB0EBD000050
:1036300000F0FF1FF00000207FB50546D5E902032A
:10364000D5E90012CDE90203CDE90012BDF804006E
:103650009349888001200870BDF80200488000204E
:103660008860BDF8020041F25102811A904270D088
:1036700009DCA0F58050A0F1480040B3012846D0F5
:10368000082867D150E003297ED004297DD0052980
:10369000F7D100F023F904464FF0FF31814800686C
:1036A00004F0D2FB8048007800F03F007E490870AB
:1036B00008460078A10740EA11607B4908700023A2
:1036C0001A4619467748006804F06AFAE4E00120D7
:1036D00002F0DCFC724988600120087302980478CB
:1036E000042C03DB0220896808700FE0204600F0FC
:1036F000EEF800F0F3F8A04204D10120684989688F
:10370000087003E00020664989680870C4E0012061
:1037100002F0BCFC624988600120087300F0DEF80A
:103720005F4989680870B7E0012002F0AFFC5C498E
:103730008860012008730298C0780299897840EA6D
:103740000124B4F57A7F06DB0220554989680870A8
:1037500021E021E09FE0029840780299097840EA50
:1037600001262146304600F00FFE00F0FBFD4F48D9
:103770000088B0420AD14D484088A04206D10120BD
:1037800047498968087005E023E05FE0002044496C
:103790008968087000BF7FE0042002F077FC404990
:1037A0008860042008734148008800128968087006
:1037B0003E4800783A49896848703C484088001281
:1037C0003749896888703948807835498968C87070
:1037D00062E0012002F05AFC314988600120087340
:1037E000029840780299097840EA01260298C07848
:1037F0000299897840EA0124B4F57A7F04DB03203A
:1038000027498968087020E02948007800F0CF0037
:1038100040F0200026490870244840882349098840
:1038200040EA014044EA0641884207D2012000F004
:103830004EF800201A498968087006E0022000F05E
:1038400046F8012016498968087025E0012002F039
:103850001DFC13498860012008731548007800F0AA
:10386000CF0040F0100012490870032000F02FF83C
:1038700000F034F8032809D10D48007800F030003A
:10388000012803D106498968087003E00020044933
:103890008968087000E000BF00BF014804B070BD37
:1038A000B017002054020020F4170020EA00002086
:1038B0000818002010B5FFF757FB10BD10B5FFF733
:1038C000F9FF032000F003F800F04CFD10BD70B5C7
:1038D000044625462846FFF7AFFB70BD10B504240B
:1038E000FFF7F6FB0446204610BD00001FB5FFF7AA
:1038F000E5FF16E04FF0FF3269460A48006804F021
:1039000021FA0546012D0CD16846FFF795FE0446C5
:10391000A06830B10023642221460348006804F007
:103920003FF9E7E7100000200800002010B54FF431
:10393000805001F00FFF28B100F08AF84FF480505A
:1039400001F002FF10BD10B5402001F003FF20B1CF
:1039500001F082F9402001F0F7FE10BD2DE9F041A1
:1039600086B006460F469046002400BF09E01B497A
:1039700001EB8400D0F8E80703A941F82400601C9B
:10398000C4B2032CF3DB002412E0042C06DAC4F1E9
:103990000301C9000498C840C0B205E0C4F10701A2
:1039A000C9000398C840C0B201A90855601CC4B240
:1039B000082CEADB1C2002F069FB05463012287057
:1039C0006E700198C5F802000298C5F806002F73C2
:1039D00085F80D80284606B0BDE8F08100F0FF1F95
:1039E00010B50121084602F0ADF810BD70B50546CE
:1039F0000E4600243146284600F00DF804462CB14E
:103A0000A178284600F005F86068804770BD8160A5
:103A100070470170704710B502460B46002111E057
:103A2000906810F831001478A04209D1906800EB3A
:103A3000C1004078984203D1906800EBC10010BDEE
:103A4000481CC1B250688842EADC0020F7E7000059
:103A500010B54FF48051044802F0FEF910B900206F
:103A600002F0D0F810BD0000000C014000BFFEE7DE
:103A700010B50446012C17D140210C4802F040F942
:103A8000FFF7D0FA8021094802F03AF9022001F04C
:103A9000F9FB4021054802F035F9022001F0F2FB64
:103AA0004021024802F02CF910BD0000000C01403A
:103AB00010B50446012C17D140210C4802F020F922
:103AC000FFF7B0FA8021094802F01CF9022001F04A
:103AD000D9FB4021054802F015F9022001F0D2FB84
:103AE0004021024802F00CF910BD0000000C01401A
:103AF0002DE9F04106460F460025012E26D1FFF79D
:103B000087FA002418E04021124802F0F9F8022058
:103B100001F0B8FB40210F4802F0F4F86806050EEA
:103B200080210C4802F098F908B1681CC5B2012048
:103B300001F0A8FB601CC4B2082CE4DB1FB9012013
:103B4000FFF7B6FF02E00120FFF792FF2846BDE82D
:103B5000F0810000000C014070B506460C46012EB5
:103B600029D1FFF75FFA4021134802F0C9F8002578
:103B70001FE0E00920B180210F4802F0C3F803E004
:103B800080210D4802F0BCF86006040E022001F00E
:103B900079FB4021084802F0B5F8022001F072FBE1
:103BA0004021054802F0ACF8022001F06BFB681CD4
:103BB000C5B2082DDDDB70BD000C014010B5044618
:103BC000012C17D1FFF72EFA80210B4802F09AF84A
:103BD0004021094802F096F8042001F053FB8021AF
:103BE000054802F08DF8042001F04CFB402102480A
:103BF00002F086F810BD0000000C014010B504462C
:103C0000012C1AD1FFF70EFA40210C4802F078F887
:103C100080210A4802F074F8042001F033FB4021AF
:103C2000064802F06FF8022001F02CFB80210348C7
:103C300002F068F8042001F025FB10BD000C0140E3
:103C400070B504460025012C23D1FFF7E1F980214E
:103C5000114802F057F8012001F014FB40210E48F2
:103C600002F050F8012001F00DFB08E0681CC5B21D
:103C7000FA2D04DD0120FFF7C1FF012070BD802176
:103C8000054802F0E9F80028F0D14021024802F08E
:103C900037F80020F2E70000000C014070470000F8
:103CA00010B50348017803480068FFF79FFE10BD78
:103CB0000F020020080100201FB500BF00F04AF8E5
:103CC0004FF496510C4802F0E5FE13E06422694679
:103CD0000A48006804F036F80446684600F0A4F884
:103CE000012C02D1029803F087FDFFF7D9FF642071
:103CF00003F0BAFDEAE70000004400400C00002099
:103D000010B50C2002F0C2F90949086009490848B9
:103D10000068FFF77CFE002105480068FFF779FE88
:103D2000082003490968486001200349087010BD54
:103D300008010020100200200F02002010B5002012
:103D400000F064F80A2001F097FA012000F05EF814
:103D500010BD000070B54FF4E1311D4803F0C8FA02
:103D60004FF4FA7001F088FA00F03CF84FF47A70E2
:103D700001F082FAFFF7E2FF4FF47A7001F07CFA6B
:103D800000F0EEF9FFF7BCFFFFF72AFC0F2200213D
:103D900044F65420FFF7E2FD0E490860182002F0B7
:103DA00075F90446002060610B4804600C2002F0A5
:103DB0006DF905460020A860084805600C2002F057
:103DC00065F906460020B0600548066070BD000039
:103DD00000380140FC0000206C020020000100209F
:103DE000C802002010B540F2036002F023FE4FF439
:103DF000807303221021044801F0D8FF4FF4807033
:103E000001491031086010BD000C014020B14FF491
:103E10008071044A116004E04FF48071014A121D60
:103E200011607047100C014070B505462C463848AB
:103E30000078012827D16088A0F58050523810B151
:103E400001281ED110E0A068027832A1344800F0A9
:103E500017FFA068427833A13148203000F010FFEE
:103E60000120334908700DE032A12D4800F008FF11
:103E700033A12B48203000F003FF01202C490870AB
:103E800000E000BF42E02248007802282BD12F48F2
:103E900000680078032826D1214A813A2C4B1B78F0
:103EA00002EB431202F11601A068FEF7B7FD70B1F4
:103EB00028480078401E26490978884203D1052009
:103EC0001B49087022E00220194908701EE02248B0
:103ED0000078052803DA03201549087016E004204D
:103EE0001349087012E00A48007878B91B48027834
:103EF00008A10B4800F0C4FE1948027809A108483F
:103F0000203000F0BDFE012009490870002070BD7E
:103F10000E02002041542B5350443D25640D0A00ED
:103F20008F01002041542B43483D25640D0A0000B9
:103F30000F02002041542B5350443D3F0D0A000016
:103F400041542B43483D3F0D0A000000080100206A
:103F50000C010020C01700200D010020F8000020F7
:103F6000F90000202DE9F04707463C460025207B5C
:103F7000152877DBA06800784A2873D1A0684078BC
:103F80005428FAD1A068807CA168497C40EA0126C7
:103F900006F11400A168095C401EA268105C41EAA9
:103FA000002906F11302D1B2A068FFF731F94845A4
:103FB00074D1A168881C082264490968891CFEF72D
:103FC0003FFD0028F4D1A068407B0F2868D1102065
:103FD00002F0E8FB0546A068C07AA168897A40EA49
:103FE0000120A880A068007CA168C97B40EA01206C
:103FF00068802E73304602F0D5FB8046A06800F141
:10400000130132464046FEF7E5FCC5F80880688893
:1040100041F24802811A904262D029DC41F2330217
:10402000A0EB0201904246D012DC04282ED006DC20
:10403000012828D0022827D0032875D125E0A0F533
:104040008050303858B301282CD002286CD12AE097
:104050000F293BD007DC01292ED002292DD00E29B3
:1040600062D132E069E0102931D011295CD12FE012
:104070000E2959D2DFE801F05835363738393A3B46
:104080003C3D4E4F454600BF00BF00BF00233222DB
:1040900029462F48006803F083FD46E04CE000E02D
:1040A00048E000BF00BF00233222294628480068AC
:1040B00003F076FD39E000BF00BF0023322229461D
:1040C0002448006803F06CFD2FE000BF00BF00BF74
:1040D0000023322229461F48006803F061FD24E0D6
:1040E00000BF00BF00BF00BF00BF00BF00BF00BFD8
:1040F00000BF0023322229461748006803F050FD14
:1041000013E000BF0023322229461348006803F061
:1041100047FD0AE000BF0023322229460F4800680D
:1041200003F03EFD01E0FFE700BF00BF284603F0BB
:1041300063FB00E000BF00BF00BFA06803F05CFBB2
:104140000020A0602846BDE8F0870000FC000020A9
:104150001C00002014000020100000200C00002093
:1041600008490868411C29B1010E074A1170010C69
:10417000064A117004490978054A517003490978C3
:104180001170704700900008F8000020F90000202E
:1041900004010020F8B50646344600276088A0F5E3
:1041A0008050313810B103281FD101E003271EE0F1
:1041B000032741F23400608017480088A080164829
:1041C0000088401C14490880391F1448006803F017
:1041D0003BFE1348A0601420207300231A461946A2
:1041E0000E48006803F0DCFC01E0022700BF00BFBE
:1041F000207B00906288A0883946A36800F026F8EA
:1042000005462988686800F00DF8686801F072FCBE
:10421000284601F06FFCF8BD500200205402002037
:10422000F417002070B504460D4600262646EAB273
:104230003146024800F050FC70BD000000380140DB
:104240000020014908707047AD0200202DE9F05FA1
:104250000746894690469A460A9D05F1150001F0E9
:1042600015FF04460C2001F011FF06464A2020707D
:10427000542060701A480168C4F802104068C4F8FD
:1042800006003812A072E772002020730F206073BE
:1042900084F80E904FEA2820E07384F810802812EA
:1042A0006074A5742A46514604F11300FEF792FB90
:1042B00005F11300C1B22046FEF7AAFF83464FEA7C
:1042C0002B2105F113002154401C04F800B0401CC0
:1042D000308074600020B0603046BDE8F09F000080
:1042E000F00000201FB519E04FF0FF3269460C487E
:1042F000006803F027FD0446012C0FD19DF8000053
:1043000010B1012808D103E06846FFF72BFE04E056
:104310006846FFF73FFF00E000BF00BFE4E7000092
:104320000800002010B500F00FF8002001490870C7
:1043300010BD00007802002000BFFEE70120014907
:10434000087070470E02002010B5182001F09EFE84
:104350000249086000200968486110BD6002002021
:104360007047000006490868411C21B1010C054A4C
:104370001180508003E00021024A11805180704773
:1043800004FC0008EA00002038B504460D460A483F
:104390000088A04203D108484088A8420BD045EAD3
:1043A000044000906A460121044801F051FB024894
:1043B0000480458000BF38BDEA00002004FC0008EE
:1043C00010B5FEF74BFDFEF73DFF10BD10B500F038
:1043D000FBFB0446532C09DB0A480078012805D171
:1043E0000020FEF723FF002006490870412C08DA60
:1043F0000448007828B90120FEF718FF0120014980
:10440000087010BDB002002000BFFFF7D9FF07E021
:10441000FFF7DCFF002001F0F5FB642003F024FA35
:10442000F6E7000000200149087070470D010020E8
:1044300004480078401C03490870002002490870B5
:10444000704700000D0100200F02002070B51548D4
:104450000078401C13490870084600781E2803DDC8
:104460000520114908701BE00E4800780A2190FBD6
:10447000F1F201FB120098B9182001F007FE054681
:104480000A48046818220A492846FEF7A3FA00E001
:10449000646960690028FBD160696861656100BF7B
:1044A00070BD0000AD0200207802002060020020F4
:1044B000141800203EB5054600246A4601A902A84A
:1044C00002F01EFB002865D100BF4B49096809783E
:1044D000491C494A12681170474909680978052240
:1044E00091FBF2F302FB1311434A12681170BDF8FD
:1044F0000810414A126851803F4909684A883E497C
:1045000009680B783C490968083121F813203A49B9
:1045100009684988384A12689288891A364A1268A6
:10452000D180354909684988334A126891803249F7
:104530000968C988642906DD2F490968097D491C75
:104540002D4A1268117500212B4A1268518216E01B
:10455000294909684A8A28490968083131F8101040
:104560001144254A12685182234A1268518A01EB8C
:10457000D1725210204B1B685A82411CC8B20528C8
:10458000E6DB1D4A0199126891611B4A0099126885
:10459000D16100BF002425E0022C0ADA1648006829
:1045A000408AC4F10101C9000841C1B2601C29540C
:1045B00016E0062C0ADA104800688069C4F105018B
:1045C000C9000841C1B2A01C295409E00A4800688A
:1045D000C069C4F10901C9000841C1B2E01C2954F5
:1045E000601CC4B20A2CD7DB092028700A20E870AE
:1045F0000B2028723EBD0000B40200201FB500F061
:1046000011F80BE04FF0FF3269460548006803F0EF
:1046100099FB0446012C01D100F010F8F2E70000EC
:104620001400002010B502F03FFAFEF74BFF02F035
:10463000A5F8FFF7D5F900F01DFB10BD00B585B05A
:10464000642000F019FE6846FFF734FF0DF10D00FD
:10465000FEF75CFC4FF0FF310848006803F0F4FB04
:10466000132269460648FEF7B5F900231A46194693
:104670000248006803F094FA05B000BD540200201F
:10468000F517002010B503F005FA10BD08B5304845
:10469000006840F001002E49086000BF2C48006807
:1046A00000F002000028F9D000BF2948406840F01F
:1046B0008000274948600020009002E00098401CDC
:1046C000009000985028F9D32148406840F09000AD
:1046D0001F4948600020009002E00098401C0090B4
:1046E00000985028F9D300BF1948406820F0030013
:1046F0001749486008460068164908401449086090
:104700000846406814490840114948600846006856
:10471000104908400E4908600846006820F48020CF
:104720000860084640680D49084009494860084645
:10473000006808490840064908604FF41F00886077
:1047400002F0B6FB00214FF0006001F035FD08BD1E
:1047500000100240FFFFF6FE0C00FFE8FFFF00F72D
:104760000020014908707047AD0200201FB500BF4E
:104770003BE01E480078401C1C4908700846007841
:10478000322190FBF1F201FB1200A8B941F2560070
:10479000ADF802000023642269461548006803F062
:1047A000FFF941F25600ADF8020000236422694689
:1047B0001048006803F0F4F90C480078642190FB7D
:1047C000F1F201FB120068B941F23400ADF80200C9
:1047D00001208DF800000023642269460648006825
:1047E00003F0DEF9642003F03FF8C2E70400002084
:1047F00010000020140000200800002070B540497F
:10480000404802F061FF002878D03D493D4802F061
:104810004EFF3C4802F0F6FC04213B4800F038FD16
:104820000421394800F00FFFC0F1FF00374908604C
:10483000374800784A2822D13548407854281ED17C
:10484000086801F0AFFF0546304831490268284644
:10485000FEF7C0F8102001F0A5FF044600202070EC
:104860002A4800782073A56000232A4A21462A4856
:10487000006803F021FA204602F0BEFF25E023493C
:10488000086801F08FFF0546204821490268284644
:10489000FEF7A0F803F0DEF80646102001F082FFD4
:1048A000044603F0D7F80646002020701748007829
:1048B0002073A5600023174A21461848006803F0BA
:1048C000FBF9204602F098FF00BF114A04210E4870
:1048D00000F06EFEFF2204210B4800F0A1FE04212F
:1048E000094800F0EEFC0B48006838B14FF08050EA
:1048F0000B490860BFF34F8FBFF36F8F70BD00008F
:10490000040304000038014000000240CC020020F3
:104910004C180020DC020020080000200C000020C1
:1049200004ED00E02DE9F0412D492E4802F0CCFEC7
:10493000002852D02A492B4802F0B9FE294802F03B
:1049400061FC0521284800F0A3FC0521264800F061
:104950007AFEC0F1FF00254908602548006840B391
:10496000244800784A2824D122484078542820D16D
:10497000086801F08BFB06461C481E490268304659
:10498000FEF728F80C2001F081FB044600BFEFF38E
:104990000880074615480078207066600020A060F7
:1049A0001348056800E0AD68A8680028FBD1AC603A
:1049B00005E00E480F4902680F48FEF70BF80D4A54
:1049C0000521094800F0F4FDFF220521064800F00A
:1049D00027FE0521044800F074FCBDE8F0810000CA
:1049E000040304000044004000000240D002002004
:1049F000C80200204A1A0020491B00202DE9F0417E
:104A00002D492E4802F060FE002853D02A492B4839
:104A100002F04DFE294802F0F5FB0221284800F083
:104A200037FC0221264800F00EFEC0F1FF002549A8
:104A300008602548006848B3244800784A2825D1F2
:104A400022484078542821D12149086801F01EFBF2
:104A500006461F481D4902683046FDF7BBFF0C2083
:104A600001F014FB044600BFEFF308800746154829
:104A70000078207066600020A0601348056800E0A0
:104A8000AD68A8680028FBD1AC6005E00D480F496F
:104A900002681048FDF79EFF0C4A0221084800F00A
:104AA00087FDFF220221064800F0BAFD02210448DA
:104AB00000F007FCBDE8F08104030400004800405A
:104AC00000000240D4020020C8020020481C002040
:104AD000D0020020471D002070B504460D46164642
:104AE000274884421FD10321264800F0D1FB2A46E3
:104AF0000321244800F05CFD32460321214800F0E8
:104B00008FFD03211F4800F0DCFB00BF02220321C0
:104B10001C4800F048FC0028F8D002220321194864
:104B200000F039FC2AE01848844212D106211548C9
:104B300000F0AEFB2A460621124800F039FD32464D
:104B40000621104800F06CFD06210E4800F0B9FB6C
:104B500014E00E48844211D101210A4800F098FB6C
:104B60002A460121074800F023FD3246012105486D
:104B700000F056FD0121034800F0A3FB70BD0000CA
:104B8000003801400000024000440040004800405E
:104B90002DE9F04106460F4614461D460BE014F879
:104BA000011B304602F033FB00BF0721304602F004
:104BB00090FB0028F9D0281EA5F10101CDB2EED15D
:104BC000BDE8F08100BFFEE72DE9F04F87B04FF060
:104BD000000AD3460020069000BF06E0FEF776F9F3
:104BE00083440AF1010000F0FF0ABAF1050FF5DB7A
:104BF0005846FDF7E4FF14490190FDF730FF4FF0F0
:104C00008B410290FDF72BFF0390FDF7F1FF4FF072
:104C100066320E4BCDE90401FDF75FFF0646002228
:104C20000B4BFDF75AFF044600220A4BFDF755FFD8
:104C30008046FDF7F0FF06900698FDF7C5FFC0B26D
:104C400007B0BDE8F08F00000000A04066660A4093
:104C5000000024400000264010B54FF48051044865
:104C600001F0FAF810B9012000F0CCFF10BD0000EF
:104C7000000C014010B50121002000F063FF10BDC1
:104C80000FB4084B10B504A902AA039800F01CF851
:104C9000044602A9002000F0B8F9204610BC5DF8D7
:104CA00014FB00000B50000802E008C8121F08C1E6
:104CB000002AFAD170477047002001E001C1121F9D
:104CC000002AFBD1704700002DE9FF4F8BB08846CA
:104CD0000546002606E025280BD0DDE90D12904799
:104CE0006D1C761C28780028F5D10FB03046BDE841
:104CF000F08F0024A146A2460122AE4900E0044301
:104D000015F8013F203B02FA03F00842F7D128785A
:104D10002A2810D06FF02F022878A0F1300109293D
:104D200015D809EB890102EB410144F0020400EBC4
:104D300001096D1CF0E758F8041B5FEA010903D56F
:104D400044F40054C9F1000944F002046D1C2878B1
:104D50002E2817D115F8010F44F004042A280ED08C
:104D60006FF02F022878A0F1300109290AD80AEB48
:104D70008A0102EB410100EB010A6D1CF2E758F8D1
:104D800004AB6D1C28786C280FD006DC4C2817D09B
:104D900068280DD06A2814D104E0742810D07A282D
:104DA0000FD10DE044F400140AE044F4801401E053
:104DB00044F440146978814202D104F580146D1CDA
:104DC0006D1C2878692865D006DC00288DD0632802
:104DD00027D0642806D15DE06E2808D073282AD039
:104DE000752877D0DDE90D129047761CE0E0C4F31A
:104DF0000250022809D003280DD0D8F8001004284A
:104E00000DD00E6008F10408D2E0D8F80010F217B7
:104E1000C1E90062F6E7D8F800100E80F2E70E70E4
:104E2000F0E718F8041B8DF8001000208DF8010041
:104E3000EB46012003E058F804BB4FF0FF30610758
:104E40004FF0000701D40AE07F1C57450DDA874276
:104E5000FADB1BF807100029F6D106E07F1C874219
:104E6000FCDB1BF807100029F8D1DDE90D23A9EBC5
:104E700007008146214600F0B1F83044C61904E02D
:104E8000DDE90D121BF8010B90477F1EF8D2214679
:104E9000484688E058F8040BC4F302514FF00A0B5F
:104EA000032900D100B2042900D140B2002802DA5F
:104EB00040422D2102E0210505D52B218DF824103B
:104EC000012104E006E0E10710D02021F6E708AF59
:104ED000089113E058F8040BC4F302514FF00A0B89
:104EE000032900D180B2042900D1C0B20021EEE72D
:104EF0005946FDF7ACFE303107F8011D0028F7D107
:104F0000ADEB070000F1200B600702D524F48034DC
:104F100001E04FF0010ADA4502DDAAEB0B0000E0E8
:104F20000020824600EB0B0108980144A9EB010028
:104F30000A90E00306D4DDE90D2321460A9800F02B
:104F40004DF806444FF0000908E009A911F80900DE
:104F5000DDE90D12904709F10109761C0899894590
:104F6000F3DBE0030CD5DDE90D2321460A9800F0C0
:104F700035F8064404E0DDE90D1230209047761C38
:104F8000BAF10001AAF1010AF5DC05E0DDE90D1234
:104F900017F8010B9047761CBBF10001ABF1010B38
:104FA000F4DC0A982146DDE90D2300F005F80644FB
:104FB0006D1C97E6092801002DE9F0410446002503
:104FC0001E461746880404D405E039462020B04721
:104FD0006D1C641EF9D52846BDE8F0812DE9F0412D
:104FE000044600251E469046C80301D5302700E040
:104FF0002027880404D505E041463846B0476D1C9B
:10500000641EF9D52846BDE8F0810A68531C0B6080
:1050100010707047816841F00801816000BF8168AD
:1050200001F008010029FAD1816841F00401816092
:1050300000BF816801F004010029FAD1704730B542
:10504000012902D002291AD10CE0C36A23F47003AB
:10505000C362C36A541E4FF4700505EA0454234327
:10506000C3620DE0836B23F440138363836B541E90
:105070004FF4401505EA04542343836300E000BF66
:1050800000BF30BD21B1826842F40062826003E05B
:10509000826822F4006282607047816801F0010139
:1050A00019B9816841F001018160704772B101F066
:1050B00001031BB1836843F48013836001F0020392
:1050C00093B1836843F4004383600DE001F0010372
:1050D0001BB1836823F48013836001F002031BB1CA
:1050E000836823F4004383607047012902D00229BA
:1050F00010D107E0836823F460238360836813433F
:10510000836008E0836823F4E0438360836813438B
:10511000836000E000BF00BF704702688A430260FE
:1051200070470246002013680B4003B1012070470E
:105130000549096821F47021034A11601146096884
:10514000014311607047000004240140F0B51D4682
:1051500006290CDA436B01EB81071F26BE40B343DF
:1051600001EB810602FA06F63343436322E00C2981
:105170000EDA036B8E1F06EB86071F26BE40B34375
:105180008E1F06EB860602FA06F63343036311E030
:1051900010290FDAC36AA1F10C0606EB86071F2659
:1051A000BE40B343A1F10C0606EB860602FA06F6F2
:1051B0003343C3620A2A0CDA046902EB420707266A
:1051C000BE40B44302EB420605FA06F634430461DE
:1051D00011E0122A0FDAC468A2F10A0606EB4607AC
:1051E0000726BE40B443A2F10A0606EB460605FABE
:1051F00006F63443C460F0BD0146C86C80B2704707
:1052000001F001021AB1826842F48002826001F06A
:1052100002021AB1826842F4001282607047AAB199
:1052200001F480731BB1436843F48073436001F45D
:1052300080631BB1436843F48063436001F0020361
:10524000CBB1836843F00203836014E001F4807300
:105250001BB1436823F48073436001F480631BB186
:10526000436823F48063436001F002031BB1836849
:1052700023F002038360704710B50446204602F015
:10528000F3FA10BD01E0401E00BF0028FBD17047BB
:1052900070B505460C462146284600F0B5F908B918
:1052A00000BFFEE704EB8400810005F108004058D0
:1052B00020F0010104EB8400820005F10800815018
:1052C00070BD70B505460C462146284600F09CF995
:1052D00008B900BFFEE704EB8400810005F1080077
:1052E000405840F0010104EB8400820005F1080001
:1052F000815070BD70B505460C462146284600F029
:1053000083F908B900BFFEE704EB8400810005F1D2
:105310000800405820F0200104EB8400820005F1D1
:105320000800815070BD70B504460D4629462046E0
:1053300000F06AF908B900BFFEE705EB85008100BF
:1053400004F10800405820F0010105EB85008200BF
:1053500004F108008150002105EB8500820004F172
:105360000800815005EB8500820004F10C0081509B
:1053700005EB8500820004F11000815005EB8500EB
:10538000820004F1140081506068AA000F2191404E
:105390000843606070BD10B543688C0002FA04F4E5
:1053A0002343436010BD30B503461C688D0002FAEC
:1053B00005F52C400CB1012000E0002030BD2DE9A6
:1053C000F04104460D4616462946204600F01CF9D9
:1053D00008B900BFFEE705EB8500820004F110006C
:1053E0003168815005EB8500820004F11400B1683A
:1053F0008150308A81B205EB8500820004F10C00F7
:10540000815005EB8500810004F10800475827F41E
:105410007C57F1687068084371690843074305EBDE
:105420008500810004F108004750307E01280ED12C
:1054300005EB8500810004F10800405840F0400170
:1054400005EB8500820004F1080081500DE005EBBA
:105450008500810004F10800405820F0400105EB70
:105460008500820004F108008150707E01280ED171
:1054700005EB8500810004F10800405840F08001F0
:1054800005EB8500820004F1080081500DE005EB7A
:105490008500810004F10800405820F0800105EBF0
:1054A0008500820004F108008150B07E70B905EBE0
:1054B0008500810004F10800405820F0100105EB40
:1054C0008500820004F1080081500DE005EB8500A5
:1054D000810004F10800405840F0100105EB850000
:1054E000820004F108008150BDE8F08170B50446E7
:1054F0000D4616462946204600F086F808B900BF3A
:10550000FEE705EB8500810004F1080040583043B8
:1055100005EB85018A0004F10801885070BD10B5C3
:1055200043688C0002FA04F42343436010BD70B555
:10553000034600BF00BF022A04D0042A11D0082A63
:105540002DD11DE018688E0002FA06F600EA060565
:1055500001EB8100860003F10800805900F002048D
:105560001FE018688E0002FA06F600EA060501EB55
:105570008100860003F10800805900F0040410E067
:1055800018688E0002FA06F600EA060501EB8100B3
:10559000860003F10800805900F0080401E000BF14
:1055A000FEE700BF15B10CB1012070BD0020FCE783
:1055B00070B506460C4615462146304600F024F8E4
:1055C00008B900BFFEE704EB8400810006F1140077
:1055D000455070BD70B505460C462146284600F082
:1055E00013F808B900BFFEE704EB8400810005F161
:1055F0000800405820F4804104EB8400820005F14B
:105600000800815070BD000002460120034B9A4201
:1056100002D1042900DD0020704700000004024090
:1056200070B506460C46154621463046FFF7ECFF9E
:1056300008B900BFFEE7A9B204EB8400820006F1BE
:105640000C00815070BD70B505460C4621462846B9
:10565000FFF7DAFF08B900BFFEE704EB8400810022
:1056600005F10C00405870BD10B540F2036001F028
:10567000E1F9042303221021034800F097FB0420E2
:1056800001491031086010BD000C014010B52D4BD0
:105690001B6883432B4C2360231D1B688343241DFD
:1056A0002360231D1B688343241D2360231D1B6867
:1056B0008343241D236011B101290ED105E0214B44
:1056C0001B6803431F4C236008E01E4B1B1D1B6817
:1056D00003431C4C241D236000E000BF00BF32B117
:1056E000012A11D0022A1CD0032A27D127E0154B0A
:1056F00008331B680343134C08342360231D1B68C5
:105700008343241D23601BE00E4B08331B68834337
:105710000C4C08342360231D1B680343241D2360A5
:105720000EE0084B08331B680343064C0834236023
:10573000231D1B680343241D236001E000BF00BF3D
:1057400000BF10BD0004014001490860704700001F
:1057500014040140014604480068084008B10120D3
:1057600070470020FCE70000140401400348006972
:1057700040F08000014908617047000000200240AD
:1057800000B50346012200BF00F00CF802465B1E84
:10579000012A01D1002BF7D1012A00D104221046A1
:1057A00000BD000000200A49C96801F0010109B1EB
:1057B00001200CE00649C96801F0100109B103207D
:1057C00005E00349C96801F0040101B102207047F6
:1057D000002002400548006900F0800020B1044824
:1057E00002494860034848607047000000200240BA
:1057F00023016745AB89EFCD0348006D40F0800081
:1058000001490865704700000020024000B50346CA
:10581000012200BF00F00CF802465B1E012A01D1F4
:10582000002BF7D1012A00D10422104600BD000050
:1058300000200A49C96C01F0010109B101200CE006
:105840000649C96C01F0100109B1032005E00349C4
:10585000C96C01F0040101B1022070470020024030
:105860000548006D00F0800020B1044802494864FA
:105870000348486470470000002002402301674548
:10588000AB89EFCD064A02EB9011096800F01F03C7
:1058900001229A401143024B03EB901211607047B2
:1058A0000020024030B5054636480088B0F5007F3C
:1058B00048D9354885421ED24FF47020FFF760FF6B
:1058C0000446002C5BD13148006940F002002F49AA
:1058D000086108464561006940F0400008614FF4E6
:1058E0007020FFF74DFF04462848006920F00200B1
:1058F0002649086143E04FF47020FFF787FF044614
:10590000002C3CD12148006D40F002001F49086581
:1059100008464565C06900F0020008B108464561C7
:105920001A48006D40F04000184908654FF4702097
:10593000FFF76CFF04461548006D20F00200134984
:1059400008651CE04FF47020FFF71AFF0446B4B955
:105950000E48006940F002000C49086108464561A4
:10596000006940F0400008614FF47020FFF708FF25
:1059700004460648006920F00200044908612046F8
:1059800030BD0000E0F7FF1FFFFF070800200240C6
:1059900070B504460D4600262A480088B0F5007F01
:1059A00035D92948844219D24FF47020FFF7E8FE18
:1059B0000646002E43D12548006940F001002349E6
:1059C000086125604FF47020FFF7DAFE06461F4895
:1059D000006920F001001D49086130E04FF470209B
:1059E000FFF714FF064656BB1848006D40F0010053
:1059F0001649086525604FF47020FFF707FF06463B
:105A00001248006D20F001001049086517E04FF4BE
:105A10007020FFF7B5FE06468EB90C48006940F0CD
:105A200001000A49086125604FF47020FFF7A8FEC5
:105A300006460648006920F0010004490861304626
:105A400070BD0000E0F7FF1FFFFF070800200240C5
:105A5000F0B504460E4615462548844223D9FFF783
:105A6000FFFE002700BF19E0C4F3090000B117B919
:105A70002046FFF717FF20462968FFF789FF241DFE
:105A80002D1D41F20530FFF7FDFE41F20430FFF716
:105A9000F9FE41F20230FFF7F5FE7F1CB742E3D377
:105AA000FFF7AAFE23E0FFF795FE002700BF19E0ED
:105AB000C4F3090000B117B92046FFF7F3FE2046F2
:105AC0002968FFF765FF241D2D1D40F20530FFF703
:105AD000D9FE4FF44170FFF7D5FE40F20230FFF7D8
:105AE000D1FE7F1CB742E3D3FFF740FE00BFF0BDFD
:105AF000FFFF070810B5002821D0114B0022001F1E
:105B0000196803E0814203D80A4649680029F9D19F
:105B100052B11368841A9C4204D100681844106082
:105B2000104602E0506000E0186039B102680B1ABC
:105B3000934203D10B681A4402604968416010BD6A
:105B4000E002002070B504460D46174931F81400F4
:105B500000F070FF4FF4C06000F06CFF134951F883
:105B60002430134951F824000322042100F01EF9C7
:105B7000012D17D10F49085D0022022100F0BCFA67
:105B80000D4A115D0D4A105D00F0C4F80C4951F842
:105B9000240001220021FFF779FD094951F8240072
:105BA000FFF7D2FD70BD0000D8000020D00000201B
:105BB000C8000020E8000020E6000020E4000020EB
:105BC000DC00002010B504460B4931F8241088B2DF
:105BD00000F030FF094951F82430094951F82400F8
:105BE0000322102100F0E2F8044850F82400044990
:105BF00051F82410086110BD8000002090000020A2
:105C00008800002070B504460A4A52F824100A4A57
:105C100052F8240000F020F9C0F10100C5B2054A95
:105C200052F82410044A52F824002A4600F06CF876
:105C300070BD00009000002088000020012803D1E2
:105C40001021044A116003E01021024A121D116064
:105C5000704700001008014010B540F2026000F0EB
:105C6000E9FE102303221946034800F09FF8102094
:105C700001491431086010BD0008014010B5044608
:105C800024B1012C15D0022C33D11FE040F2026068
:105C900000F0D0FE4FF4007303221821164800F0E4
:105CA00085F84FF4806303220421134800F07EF846
:105CB00020E00423032218210F4800F077F808237E
:105CC000032204210C4800F071F813E040F2036055
:105CD00000F0B0FE4FF4806303221821074800F063
:105CE00065F84FF4006303220421044800F05EF8D5
:105CF00000E000BF00BF10BD00080140000C0140E3
:105D000041617047016170470AB1016100E0416182
:105D10007047000010B500228B071C0F0F2303FAF9
:105D200004F204290EDA204B9B6893431E4CA360B7
:105D300023469B688C07240F00FA04F423431A4C73
:105D4000A3602FE008290EDA174BDB689343164C4B
:105D5000E3602346DB688C07240F00FA04F4234336
:105D6000114CE3601EE00C290EDA0F4B1B699343C4
:105D70000D4C236123461B698C07240F00FA04F4A1
:105D80002343094C23610DE0074B5B699343064CA9
:105D9000636123465B698C07240F00FA04F42343F4
:105DA000014C636110BD000000000140F0B50446E5
:105DB00016460025002201F00F0501F0100707B17B
:105DC000354300201EE0012787401F40C7B12268ED
:105DD0004FEA800C0F2707FA0CF7BA43870005FA41
:105DE00007F73A43282904D1012787401F406761FC
:105DF00005E0482903D1012787401F402761226021
:105E0000471CB8B20828DED3082022E001278740CB
:105E10001F40E7B16268A0F108074FEA870C0F271F
:105E200007FA0CF7BA43A0F10807BF0005FA07F715
:105E30003A43282904D1012787401F40676105E0C4
:105E4000482903D1012787401F4027616260471C12
:105E5000B8B21028DAD3F0BD02469068084008B105
:105E6000012070470020FCE70246D068084008B1D6
:105E7000012070470020FCE7F0B50A46002300240B
:105E80000021002500F00046B6F1004F02D11D4E62
:105E9000F16901E01B4E7168C0F3034583B200F461
:105EA0004016B6F5401F08D121F07061154E766896
:105EB00026F07066134F7E6012E000F48016B6F58F
:105EC000801F06D1032606FA05F4A14341F0706154
:105ED00006E0460D360103FA06F6B14341F0706163
:105EE00022B1460D360103FA06F6314300F00046B2
:105EF000B6F1004F02D1034EF16101E0014E716035
:105F0000F0BD0000000001401CB56C21002000F035
:105F1000D3FF0020FFF756FE0120FFF753FE0022BB
:105F20001021052001F0E1FD344908600022102114
:105F3000052001F0DAFD3249086000221021052019
:105F400001F0D3FD2F49086000221021052001F047
:105F5000CCFD2D49086000221021052001F0C5FD6F
:105F60002A49086000221021052001F0BEFD2849C1
:105F70000860012001F0A8FD2649086000200521E5
:105F800003468022CDE9001023A1264802F022F822
:105F90000020032103468022CDE9001022A12648DB
:105FA00002F018F80020032103468022CDE90010FA
:105FB00022A1254802F00EF800200321034680228A
:105FC000CDE9001021A1264802F004F800200321A9
:105FD00003464022CDE9001022A1274801F0FAFF34
:105FE0000020042103464022CDE9001023A12648C9
:105FF00001F0F0FF01F0C4FC00BFFEE70C00002040
:1060000008000020100000201400002018000020CC
:106010001C000020540200204D534754525F54612D
:10602000736B0000E54200084C4F524143544C5FF3
:106030005461736B00000000B93C0008446972654C
:1060400063745F5461736B00ED38000853656E73C1
:106050006F724D6F6E69746F725F5461736B000085
:10606000FD450008506F7765724D6F6E69746F72F1
:106070005F5461736B0000000944000854696D654A
:10608000725F5461736B00006D470008F0B50B3010
:10609000154D20F007010024144A0FE003688B42DD
:1060A0000BD38B4205D95E1A43184768C3E90067D2
:1060B00000E04368136002C004E0021D106800287D
:1060C000ECD12046002802D1286808B10020F0BD9C
:1060D000064A07481060074A121A22F00702C0E970
:1060E000002401202860D7E7E4020020E00200201D
:1060F0004C1E0020482000202DE9F04103460D46AB
:10610000164600240027A0462448006800F4E060FA
:10611000B0F5A06F15D006DCB0F5407F18D0B0F513
:10612000806F19D110E0B0F5C06F06D0B0F5E06F08
:1061300012D100274FF0040815E001274FF00308A3
:1061400011E00227B8460EE003274FF001080AE0ED
:1061500004274FF0000806E04FF4A06000F022F89A
:106160000227B84600BF00BFC7F1040005FA00F4DB
:10617000C8F104010F20C8403040044324010848FE
:10618000C45403F01F01012088405911890001F116
:10619000E021C1F80001BDE8F08100000CED00E055
:1061A00000E400E002490143024A11607047000028
:1061B0000000FA050CED00E0034A0A400243034BDD
:1061C0001A60BFF34F8F704780FFFF1F08ED00E09C
:1061D0002DE9F04105460E461C4807681C4800683A
:1061E000001D01F09DFA50B91948006890F82C1074
:1061F0000120884017490968814316480160681CDE
:1062000038B936B112480168091D134801F0C6FAC1
:106210001AE07C190E4800684460BC4207D20C4862
:106220000168091D0D48006801F09EFA0CE008485D
:106230000168091D0A48006801F096FA09480068DB
:10624000844201D207480460BDE8F0813400002098
:1062500020000020380000209C030020280000209F
:10626000240000205000002010B5044601F0A2FADE
:1062700023480068401C224908602248006840B951
:10628000204804600846006801280DD100F08EF90E
:106290000AE01D48006838B91A480068C06AE16A17
:1062A000884201D81748046018480068401C174904
:1062B000086094F82C1001208840154909680843AB
:1062C00013490860E16A01EB8101124A02EB810087
:1062D000211D01F063FA01F07FFA0B48006868B1F4
:1062E00008480068C06AE16A884207D24FF08050CF
:1062F00009490860BFF34F8FBFF36F8F10BD0000D7
:1063000030000020200000203C0000204C00002035
:1063100038000020E802002004ED00E010B516E08F
:1063200001F048FA0C48C068C468201D01F0F8F973
:106330000A480068401E0949086009480068401E74
:106340000749086001F048FA204600F05FF8044869
:1063500000680028E4D110BD880300203000002030
:106360002C00002070B504460D46206C70B1216CE5
:10637000E0680144E160D4E90210884201D3216859
:10638000E1602846226CE168FCF724FB70BD2DE932
:10639000F04104460F4615464FF00008A66B206CEE
:1063A00048B9206800282CD1A06801F0D1FE8046B1
:1063B0000020A06025E07DB93946226C6068FCF7BA
:1063C00009FB216C606808446060D4E901018842DF
:1063D00017D32068606014E03946226CE068FCF74F
:1063E000F9FA216CE068411AE1602168E0688842AE
:1063F00003D2216CA068411AE160022D01D106B1DF
:10640000761E701CA0634046BDE8F08110B50446BE
:10641000206B01F0F1F9204601F0EEF910BD0146C4
:106420004A6A22B10A6B1268C2F1050000E000203E
:106430007047000030B54FF4A053174800F0070430
:106440002CB1C01D20F00700134C041B1B1B02467F
:10645000124C22600024114D6C60D018083820F0D6
:1064600007000F4C206000240D4D2D686C600C4D12
:106470002D682C601146441A4C60094C24680C604D
:10648000084D4C682C60084D4C682C604FF000445F
:10649000064D2C6030BD0000B003002060000020DD
:1064A00068000020700000206C0000207C000020AC
:1064B00000BFFFF733FF064800680128F9D94FF005
:1064C000805004490860BFF34F8FBFF36F8FF0E730
:1064D000E802002004ED00E010B5044654B10020AD
:1064E000A06020600021E16000231A461946204682
:1064F00001F056FB10BD2DE9F04106460D4617464A
:106500009846069C0DB9246000E02760E663256488
:106510000121204601F004FBBDE8F0812DE9FF5F79
:1065200080460E469146DDE90E7A109CA9F10100E5
:10653000216B01EB800B2BF0070B86B1002507E0E8
:10654000715D04F134004155705D00B902E06D1CCD
:10655000102DF5D300BF00214320015502E000209B
:1065600084F83400052F00D30427E7626764002015
:10657000A064201D01F0F5F804F1180001F0F1F815
:106580002461C7F10500A06164620020E06484F822
:10659000500041465846039A00F084F92060BAF151
:1065A000000F01D0CAF80040BDE8FF9F10B50024DD
:1065B00007E004EB84010F4A02EB810001F0C4F80C
:1065C000641C052CF5D30C4801F0BEF80B4801F013
:1065D000BBF80B4801F0B8F80A4801F0B5F80A48D2
:1065E00001F0B2F804480949086004480849086005
:1065F00010BD0000E80200204C03002060030020D2
:1066000074030020880300209C0300202400002045
:106610002800002010B50146164800E00068036815
:106620008B42FBD30246436813448B4204D1436838
:106630004C682344436001460A464B68134404688F
:10664000A34211D10C4C03682468A34208D04B68C4
:106650000468646823444B6003681B680B6005E0B2
:10666000054B1B680B6001E003680B60884200D09B
:10667000016010BD600000206800002070B5054674
:1066800001F098F8A86B08B9012400E0002401F09B
:10669000A3F8204670BD70B5054601F08BF8A86BD5
:1066A000E96B884201D1012400E0002401F094F854
:1066B000204670BD0A490968096809B9012100E04E
:1066C000002121B14FF0FF31064A116006E0044974
:1066D0000968C968C868034A4168116070470000CA
:1066E000240000205000002000BFBF2080F311884C
:1066F000BFF34F8FBFF36F8F00BF00BFFEE770B5D2
:10670000044601F057F894F9455010E0606A08B962
:10671000012000E0002038B904F1240001F0B6FDAA
:1067200018B101F0C7F800E003E0681E45B2002D83
:10673000ECDC00BFFF2084F8450001F04DF801F0CB
:1067400039F894F9445010E0206908B9012000E0BC
:10675000002048B904F1100001F098FD08B101F0E3
:10676000A9F8681E45B200E001E0002DECDC00BF96
:10677000FF2084F8440001F02FF870BD10B540F2FE
:10678000026000F057F94FF480730322102104488F
:10679000FFF70CFB4FF4807001491431086010BD05
:1067A000000801402DE9F04105464FF0000801F0D6
:1067B00019F92E48006808B9FFF73CFE2C4800681C
:1067C000284000284CD145B1083505F0070020B11C
:1067D00005F00700C0F108000544002D40D0254811
:1067E000006885423CD8244E3046046801E02646C5
:1067F00024686068A84202D220680028F7D11B48AC
:10680000006884422CD0306800F1080820683060AD
:106810006068401B102807D967196068401B7860C2
:1068200065603846FFF7F6FE124960680968081A85
:10683000104908600846006810490968884203D278
:106840000C4800680D4908600949606809680843F8
:106850006060002020600A480068401C0849086009
:1068600001F054FD4046BDE8F081000068000020C2
:106870007C0000206C0000206000002070000020E0
:10688000740000200648006830B10549096801F12C
:106890004800896C491C016001480068704700008D
:1068A00020000020001F4FF080730360001F21F0C4
:1068B00001030360001F034B03601438026020389B
:1068C00070470000E96600080F4A51680F4A1140FE
:1068D000082814D2DFE800F004050607130A130B9A
:1068E00000BF00BF00BF41EA803109E000BF20F0D7
:1068F00004004FF0805242EA8032114300E000BFB2
:1069000000BF014A5160704700100240FF3FFFEF97
:106910002DE9F04F8BB00746002009903EA090E88B
:10692000004CC068CDE905BECDF810A007900FF26D
:10693000EC0ADAE9000ACDE9020A0FF2E00ADAE924
:10694000000ACDE9000A38484068C0F381000A9087
:106950000A9820B1012804D0022829D103E0334944
:1069600028E0324926E03048406800F48038B8F525
:10697000803F09D12D4C2C48406800F40039B9F50E
:10698000003F02D1641000E0294C27484068C0F362
:1069900083422548406800F0006008B142F01002D0
:1069A0000F2A01D2921C00E0521C04FB02F101E00C
:1069B0001E4900BF00BF1C484068C0F3031504A86F
:1069C000465D21FA06F318484068C0F3022502A884
:1069D000465D23FA06FC14484068C0F3C2251DF842
:1069E000056023FA06F0089037B1012F06D0022F78
:1069F00006D0032F0AD106E0099108E0099306E0CA
:106A0000CDF824C003E00898099000E000BF00BF63
:106A100009980BB0BDE8F08F0000000000000000F6
:106A200001020304060708090010024000127A0060
:106A300000093D00064A02EB9011096800F01F03AF
:106A400001229A401143024B03EB901211607047F0
:106A500000100240064A02EB9011096800F01F0383
:106A600001229A409143024B03EB90121160704750
:106A700000100240064A02EB9011096800F01F0363
:106A800001229A401143024B03EB901211607047B0
:106A90000010024070B504460D462946204600F01D
:106AA00027FCFFF7D9F870BD10B500F0EFF800F043
:106AB00095F800F07BF82020FFF7E8FA0F4908600E
:106AC0000020096808700D49096848800B49096869
:106AD00008750A490968C880084909684882074951
:106AE0000968888005490968886104490968C8619E
:106AF0000248006800218160017310BDB4020020CB
:106B00002DE9FC4107460C4615466A4601A9384660
:106B100000F018F8064616B13046BDE8FC81BDF815
:106B2000040045F2735148434AF6C871C1EB603026
:106B30002060BDF8000043F2D401484340132860B0
:106B40000020EAE72DE9FE4305460E4617464FF0C2
:106B500000084EF605424146684600F05FF8804660
:106B600042466946C42000F043F9044614B1204669
:106B7000BDE8FE834FF47A7000F0BEF80622694645
:106B8000C42000F0F6F804460CB12046F0E7684651
:106B900000F03EF828800DF1020000F039F8308056
:106BA00001A800F035F838800020E1E738B500256D
:106BB00042F2B1122946684600F030F805462A46EE
:106BC0006946C42000F014F904460CB1204638BDD3
:106BD0004FF47A7000F090F80020F8E738B50025FF
:106BE00043F686722946684600F018F805462A469C
:106BF0006946C42000F0FCF804460CB1204638BDBC
:106C0000024800F079F80020F9E7000020A1070011
:106C1000014648780A7840EA0220704730B50346BA
:106C2000150A08464C1CA1B21D5408464C1CA1B2C2
:106C30001A54084630BD70B505460E461446314616
:106C4000284600F006F8A04201D0012070BD0020C7
:106C5000FCE730B502460B46FF20002113E0555CEF
:106C6000684008240BE000F0800525B1312585EA55
:106C70004005E8B201E04506280E651EECB2002C86
:106C8000F1DC4D1CA9B29942E9DB30BD10B5002002
:106C9000FCF79CF910BD2DE9F04705460E46174656
:106CA0004FF0000934460120FCF788FF681CC1B290
:106CB0000120FCF751FF0120FCF7C2FF08B10120C1
:106CC00000E0002081464FF0000807E0012108465F
:106CD000FCF70EFF2070641C08F10108781E404587
:106CE000F4DC00210120FCF703FF20700120FCF7F9
:106CF00085FF4846BDE8F08710B504462046FEF7FC
:106D0000C1FA10BD2DE9F04704460D46164600278E
:106D1000A8460120FCF752FFE1B20120FCF71CFF5E
:106D20000120FCF78DFF08B1012000E0002007469C
:106D30004FF0000916E098F800100120FCF70CFF56
:106D40000120FCF77DFF08B1012000E0002007468C
:106D500017B13846BDE8F08708F1010809F10100D4
:106D60001FFA80F9B145E6DB0120FCF747FF384602
:106D7000F0E72DE9F04782460C461646304606EB12
:106D8000D071491001EB41011FFA81F906EBD07176
:106D90004910A6EB410111B10420BDE8F0874A4635
:106DA00021465046FFF777FF07460FB13846F4E714
:106DB0000025A84618E0A91C625C60190221FFF7B3
:106DC0003AFF07460FB13846E7E7625D4046411C8F
:106DD0001FFA81F82254681C225C4046411C1FFAAD
:106DE00081F82254E81C85B24D45E4DB0020D4E74D
:106DF00070B504460D461646324629462046FFF732
:106E000081FF70BD00200021264A126842F0010275
:106E1000244B1A6000BF401C224A126802F0020193
:106E200011B9B0F5A06FF6D11E4A126802F0020245
:106E30000AB900BFFEE71B4A52681A4B5A601A464D
:106E400052685A601A46526842F480625A601A4682
:106E50005268154B1A40134B5A601A465268134B2E
:106E60001A43104B5A601A46126842F080721A6038
:106E700000BF0C4A126802F00072002AF9D0094AD9
:106E8000526822F00302074B5A601A46526842F0D9
:106E900002025A6000BF034A526802F00802002A48
:106EA000F9D0704700100240FFFFC3F70000280828
:106EB00010B5FFF7A7FF10BD7FB505460C4640F2A1
:106EC0000B60FFF7B7FD0D4800F020F8ADF800505B
:106ED0000020ADF80200ADF804000294ADF80C00FB
:106EE0008DF80E006946054800F082F8034800F06E
:106EF00007F80121014800F077F87FBD002C014020
:106F0000016841F0800101607047000010B504463F
:106F10003349601A8C4244D00CDCB4F1804F1CD051
:106F20003048204410B3B0F5806F28D0B0F5006F22
:106F300052D12DE0B0F5806F3CD0B0F58E3F03D03C
:106F4000B0F5923F48D13EE040F20B30FFF792FDA2
:106F500040F20B30FFF77EFD3FE04FF48060FFF71B
:106F600089FD4FF48060FFF775FD36E040F2014087
:106F7000FFF780FD40F20140FFF76CFD2DE040F28D
:106F80000240FFF777FD40F20240FFF763FD24E087
:106F900040F20340FFF76EFD40F20340FFF75AFD59
:106FA0001BE040F20440FFF765FD40F20440FFF7AC
:106FB00051FD12E040F20540FFF75CFD40F2054054
:106FC000FFF748FD09E040F20D30FFF753FD40F2B6
:106FD0000D30FFF73FFD00E000BF00BF10BD000017
:106FE0000010004000FCFFBFCA4302617047000070
:106FF0000A888262294A904220D0B0F1804F1DD089
:10700000274A90421AD0274A904217D0264A9042E7
:1070100014D0264A904211D0254A90420ED0254ADB
:1070200090420BD0244A904208D0244A904205D086
:10703000234A904202D0234A90420FD1026822F0A4
:107040007002026002688B7803F060031A430260EA
:1070500002680B7903F010031A4302608A68C26267
:10706000194A90420CD0194A904209D0026822F481
:107070004072026002688B8903F440731A43026015
:10708000064A904202D0094A904201D18A7B0263AB
:10709000426942F00102426170470000002C014049
:1070A0000004004000080040000C00400034014093
:1070B000004C0140005001400054014000180040C5
:1070C000001C004000200040001000400014004060
:1070D0002DE9F04704460D460027B846B94600267C
:1070E0001D49601A8C421CD006DC1C48204470B13B
:1070F000B0F5806F1FD10FE0B0F5806F16D0B0F5FE
:107100006C4F18D10320FFF703FC074614E0022060
:10711000FFF7FEFB07460FE00220FFF7F9FB0746EB
:107120000AE00220FFF7F4FB074605E00220FFF724
:10713000EFFB074600E000BF00BF07EB5500B0FBC8
:10714000F5F64FF6F07006EA000806F00F0948EA77
:107150000900A060BDE8F087004C004000BCFFBF04
:1071600031B101290BD0022911D0032920D116E019
:107170000122114B1A608022104B1A6019E0012283
:107180000D4B1B1F1A6080220C4B1A6011E001226C
:10719000094B1A608022094B1B1F1A6009E001226B
:1071A000054B1B1F1A608022044B1B1F1A6000E056
:1071B00000BF00BF70470000140C014014080140DC
:1071C00010B540F20360FFF735FC40F20260FFF7B4
:1071D00031FC0123032210210848FEF7E7FD80233C
:1071E000032210210648FEF7E1FD01200349143176
:1071F0000860802002491431086010BD000C014075
:107200000008014001464868C0F308007047C1F318
:10721000080242607047000010B504462049601A19
:107220008C4228D006DC1F48204490B1B0F5806F16
:1072300033D117E0B0F5806F26D0B0F56C4F2CD16C
:1072400040F20E30FFF716FC40F20E30FFF702FC62
:1072500024E040F21140FFF70DFC40F21140FFF72F
:10726000F9FB1BE040F21240FFF704FC40F2124031
:10727000FFF7F0FB12E040F21340FFF7FBFB40F298
:107280001340FFF7E7FB09E040F21440FFF7F2FB81
:1072900040F21440FFF7DEFB00E000BF00BF10BD6E
:1072A000004C004000BCFFBF0A460021416921F0AC
:1072B00040011143416170470A460021416921F0B4
:1072C0008001114341617047C16841F40051C160C0
:1072D000704710B5024602EB9110006801F01F04E0
:1072E0000123A340184008B1012010BD0020FCE795
:1072F00030B587B004460D46DE48204400287DD0D6
:10730000B0F5806F7BD0B0F5744F79D10020FEF7D7
:10731000B5FC40F20E60FFF78DFBD748FFF77CFF0E
:107320002946D548FFF7D4FE0421D34800F0E8F9F8
:107330000821D14800F0ECF9CF48FFF7C5FF4FF422
:10734000A060FFF777FB0421CC48FDF7ECFF00209D
:107350008DF81A00CA48029001208DF8190000200B
:107360000390FF200490C448001D009000208DF879
:10737000180001904FF4405005906A460421BF4820
:10738000FEF71DF80421BD48FDF7B4FF0421BB48FA
:10739000FEF720F90421B948FDF793FF0321B74810
:1073A000FDF7C1FF01208DF81A00B54802900120B9
:1073B0008DF8190000200390FF200490AE48001DB6
:1073C000009000208DF8180001904FF44050059077
:1073D0006A460321A948FDF7F2FF0321A748FDF7FC
:1073E00089FF0321A548FEF7F5F80321A348FDF71F
:1073F0004FFF8021A048FFF75FFF02E010E0A5E00B
:1074000034E140219C48FFF74FFF00220221252054
:10741000FEF772FE4FF44171974800F03BF926E108
:107420000120FEF72BFC40F21170FFF703FB91489F
:107430004042FFF7F1FE29468E484042FFF748FEE2
:1074400004218C48404200F05BF908218948404201
:1074500000F05EF987484042FFF736FF4FF4A06026
:10746000FFF7E8FA05218548FDF75DFF00208DF85C
:107470001A008448029001208DF819000020039022
:10748000FF2004908048009000208DF818000190A3
:107490004FF4405005906A4605217848FDF78FFF6C
:1074A00005217648FDF726FF05217448FEF792F87E
:1074B00005217248FDF705FF06217048FDF733FFEF
:1074C00001208DF81A006F48029001208DF81900F4
:1074D00000200390FF2004906B48009000208DF85E
:1074E000180001904FF4405005906A460621634809
:1074F000FDF765FF06216148FDF7FCFE06215F48A8
:10750000FEF768F806215D48FDF7C2FE80215E485F
:10751000001FFFF7D1FE40215B48001FFFF7C4FEAC
:10752000002202212620FEF7E7FD4FF44171564864
:10753000001F00F0AFF8002202211120FEF7DCFD51
:10754000022206214D48FDF7D1FF90E00220FEF710
:1075500095FB40F21270FFF76DFA4C48FFF75CFEA6
:1075600029464A48FFF7B4FD0421484800F0C8F80E
:107570000821464800F0CCF84448FFF7A5FE4FF438
:10758000A060FFF757FA02213C48FDF7CCFE00202F
:107590008DF81A003E48029001208DF81900002055
:1075A0000390FF2004903948001D009000208DF8C2
:1075B000180001904FF4405005906A4602212F4870
:1075C000FDF7FDFE02212D48FDF794FE02212B4818
:1075D000FEF700F802212948FDF773FE0121274834
:1075E000FDF7A1FE01208DF81A0029480290012024
:1075F0008DF8190000200390FF2004902348001DFF
:10760000009000208DF8180001904FF44050059034
:107610006A4601211948FDF7D2FE01211748FDF7FE
:1076200069FE01211548FDF7D5FF01211348FDF73B
:107630002FFE80211548FFF73FFE40211348FFF73A
:1076400033FE002202212720FEF756FD4FF4417140
:107650000E4800F01FF8002202210C20FEF74CFD1E
:10766000022201210548FDF741FF00E000BF00BFF5
:1076700007B030BD00BCFFBF003801400000024031
:107680004C1800204A1A00200444004000480040E2
:10769000481C002010B5C1F38912825801F01F0464
:1076A0000123A3401A43C1F38913C25010BD10B582
:1076B00000EB91521268C1F304440123A3409A43A2
:1076C00000EB91531A6010BD70B5024600230024F0
:1076D000C1F38910105801F01F060125B54000EADA
:1076E000050302EB91500068C1F304460125B54043
:1076F00000EA050414B10BB1012070BD0020FCE7C5
:107700000A460021C16821F004011143C16070479D
:107710000A460021C16821F008011143C160704789
:1077200001460A69D1E901309860D1E90103586046
:107730005068884201D18868506000200861106854
:10774000401E10601068704700F1080141604FF062
:10775000FF31816000F10801C16001610021016019
:10776000704700210161704710B502460B685C1C30
:107770000CB9106907E002F1080000E040684468B5
:1077800024689C42FAD944684C604C68A1608860C7
:1077900041600A611468641C146010BD42684A604C
:1077A00093688B60936859609160086103685B1C03
:1077B0000360704700BFBF2080F31188BFF34F8F75
:1077C000BFF36F8F00BF03480068401C0149086089
:1077D000704700005C00002006480068401E054914
:1077E00008600846006820B9002080F3118800BFB7
:1077F00000BF70475C00002070B506463546FEB1FC
:10780000083D2C460F49606809680840C0B12068EF
:10781000B0B90C49606809688843606000F0E2F81C
:107820000949606809680844074908602046FEF76E
:10783000F1FE06480068401C0449086000F066FD3F
:1078400070BD00007C0000206C000020780000204B
:1078500000204FF0E021086188610248486107205C
:1078600008617047DFA5010070B50446002544B1EA
:1078700000F0B8F800212046FEF7AAFC00F046FD13
:1078800005463DB94FF0805003490860BFF34F8F64
:10789000BFF36F8F70BD000004ED00E0034909687D
:1078A00001600349096841607047000048000020FA
:1078B0003400002001200149086070474400002086
:1078C00070B505460C460548016818312846FFF793
:1078D0004BFF01212046FEF77BFC70BD20000020FD
:1078E0002DE9F04706460F4634464FF00109002EB9
:1078F00040D0606CB84201D23D4600E0656CE06A61
:10790000A84237D0A06C012834D1D4F82C80E5628D
:10791000A06900F0004010B9C5F10500A06108EBB6
:107920008801154A02EB81016069884201D101207A
:1079300000E00020F0B1201DFFF7F2FE40B994F8FE
:107940002C10012088400D49096881430B480160D3
:1079500094F82C1001208840084909680843074919
:107960000860E16A01EB8101034A02EB8100211DFD
:10797000FFF714FFBDE8F087E80200203800002080
:107980001CB5114800210B468022CDE900100FA143
:10799000104800F01FFB0446012C14D100BFBF208B
:1079A00080F31188BFF34F8FBFF36F8F00BF4FF08D
:1079B000FF30094908600120084908600020084993
:1079C000086000F04DF81CBD5400002049444C45AF
:1079D00000000000B1640008500000203C000020BE
:1079E0003400002002480068401C014908607047CC
:1079F000580000201248006818B1012011490860A1
:107A00001DE000200F4908600F480068B0FA80F0C0
:107A1000C0F11F0101EB81020C4B03EB82004268B5
:107A20005268426000F108024368934202D1426802
:107A3000526842604268D268054B1A6000BF7047C6
:107A4000580000204400002038000020E8020020F8
:107A50002000002001480068704700006C000020F2
:107A600010B50A48006840F47F00084908600846DD
:107A7000006840F07F400860FFF7EAFE00200449FC
:107A80000860FAF75BFF002010BD000020ED00E069
:107A90005C00002010B500BFBF2080F31188BFF349
:107AA0004F8FBFF36F8F00BF00F0C4FA18B14FF0D3
:107AB00080500449086000BF002080F3118800BF97
:107AC00010BD000004ED00E02DE9F0410446012660
:107AD000002722460021012000F007F8054628462D
:107AE000FEF7FAFC2846BDE8F0812DE9F84305468B
:107AF0000E46174605FB06F909F14800FEF752FE4F
:107B000004464CB1A04608F148083B46424631467F
:107B100028460094FEF7EFFC2046BDE8F8830000FD
:107B200070B505460E462C46FFF744FED4E90F1209
:107B3000206801FB0200A0600020A0632068606054
:107B4000E06B401E226C216800FB0211E160FF2007
:107B500084F8440084F845009EB9206908B90120E2
:107B600000E00020A8B904F1100000F08FFB80B104
:107B70004FF0805009490860BFF34F8FBFF36F8FFC
:107B800007E004F11000FFF7DFFD04F12400FFF728
:107B9000DBFDFFF721FE012070BD000004ED00E0D9
:107BA0002DE9FF4383B0074688461D464FF0000984
:107BB0003C4600BFFFF7FEFDA06BE16B884201D39E
:107BC000022D28D12A4641462046FEF7E0FB064614
:107BD000606A08B9012000E0002068B904F12400BF
:107BE00000F054FB88B14FF0805032490860BFF379
:107BF0004F8FBFF36F8F08E03EB14FF080502D499B
:107C00000860BFF34F8FBFF36F8FFFF7E5FD0120D3
:107C100007B0BDE8F083059818B9FFF7DDFD002037
:107C2000F6E7B9F1000F04D101A8FFF737FE4FF0D6
:107C30000109FFF7D1FDFFF7D5FEFFF7BBFD94F972
:107C40004400401C10B9002084F8440094F9450019
:107C5000401C10B9002084F84500FFF7BDFD05A9C0
:107C600001A800F089F9F0B92046FEF714FDA0B193
:107C700004F110000599FFF723FE2046FEF73FFDB3
:107C800000F044FB002895D14FF08050094908606E
:107C9000BFF34F8FBFF36F8F8CE72046FEF72FFDAA
:107CA00000F034FB86E72046FEF729FD00F02EFBAE
:107CB0000020ADE704ED00E02DE9F84F05468A46C7
:107CC00016461F462C4600BFBF21EFF3118081F3FB
:107CD0001188BFF34F8FBFF36F8F00BF8146A06B3A
:107CE000E16B884201D3022F22D194F945B0A06BF9
:107CF00000903A4651462046FEF749FB0BF1010041
:107D000070B9606A08B9012000E0002038B904F1B8
:107D1000240000F0BBFA10B10EB10120306004E085
:107D20000BF1010040B284F845004FF0010801E07A
:107D30004FF0000800BF89F3118800BF4046BDE83E
:107D4000F88F00002DE9F74183B005460F464FF04C
:107D500000082C4600BFFFF72DFDA66BF6B1394693
:107D60002046FEF7FFFA701EA063206908B90120C3
:107D700000E0002060B904F1100000F087FA38B18B
:107D80004FF080502F490860BFF34F8FBFF36F8FC4
:107D9000FFF722FD012006B0BDE8F081059818B973
:107DA000FFF71AFD0020F6E7B8F1000F04D101A893
:107DB000FFF774FD4FF00108FFF70EFDFFF712FE0D
:107DC000FFF7F8FC94F94400401C10B9002084F837
:107DD000440094F94500401C10B9002084F8450087
:107DE000FFF7FAFC05A901A800F0C6F8F0B9204693
:107DF000FEF744FCA0B104F124000599FFF760FDF3
:107E00002046FEF77CFC00F081FA0028A3D14FF059
:107E100080500C490860BFF34F8FBFF36F8F9AE714
:107E20002046FEF76CFC00F071FA94E72046FEF75E
:107E300066FC00F06BFA2046FEF720FC00288AD092
:107E40000020A8E704ED00E02DE9F34182B00546EB
:107E500000272C46B84600BFFFF7ACFCA66BFEB16E
:107E6000701EA063206810B9FEF70CFDA0602069A9
:107E700008B9012000E0002060B904F1100000F012
:107E800005FA38B14FF080503A490860BFF34F8F80
:107E9000BFF36F8FFFF7A0FC012004B0BDE8F081B5
:107EA000039818B9FFF798FC0020F6E71FB9684659
:107EB000FFF7F4FC0127FFF78FFCFFF793FDFFF7B7
:107EC00079FC94F94400401C10B9002084F8440067
:107ED00094F94500401C10B9002084F84500FFF7D4
:107EE0007BFC03A9684600F047F840BB2046FEF73C
:107EF000C5FBF0B1206838B9FFF75CFCA06800F062
:107F000069F98046FFF768FC04F124000399FFF744
:107F1000D7FC2046FEF7F3FB00F0F8F900289BD1D0
:107F20004FF0805013490860BFF34F8FBFF36F8F3E
:107F300092E72046FEF7E3FB00F0E8F98CE72046E5
:107F4000FEF7DDFB00F0E2F92046FEF797FB002884
:107F500082D0B8F1000F0BD0FFF72CFC2046FEF7C3
:107F60005EFA06463146A068FFF7BAFCFFF734FC1C
:107F7000002092E704ED00E070B506460C46FFF7DE
:107F800019FC124802687068131A2068401C08B96E
:107F9000002517E00E4930680968884204D07068EF
:107FA000904201D801250DE02068984207D9206849
:107FB000C01A20603046FFF771FC002502E0002067
:107FC00020600125FFF708FC284670BD3400002022
:107FD000480000202DE9FF4F85B0804689461746AE
:107FE000DDE912ABB800FEF7DDFB064656B15420C2
:107FF000FEF7D8FB04460CB1266304E03046FFF7D9
:10800000FBFB00E000247CB10020CDE900ABCDE912
:1080100002403A4649464046089BFEF77FFA204612
:10802000FEF722F9012501E04FF0FF35284609B09F
:10803000BDE8F08F2DE9F04100273A48006800289C
:1080400067D139480068451C374805608DB9374805
:10805000D0F8008036480068344908603448C0F8D9
:10806000008034480068401C32490860FEF722FB5B
:1080700000BF3148006885423BD300BF2B480068F1
:10808000006808B9012000E0002020B14FF0FF3067
:10809000294908602CE025480068C068C468666803
:1080A000B54202D22448066022E0201DFFF738FBCB
:1080B000A06A18B104F11800FFF732FB94F82C10F5
:1080C000012088401D49096808431C490860E16A8D
:1080D00001EB81011A4A02EB8100211DFFF75EFBD3
:1080E0001849E06A0968C96A8842C7D30127C5E709
:1080F00000BF14480068C06A00EB8000104951F8C6
:108100002000012800D901270F48006800B101278D
:1081100004E00E480068401C0C4908603846BDE881
:10812000F0810000580000203400002024000020CE
:1081300028000020480000205000002038000020C7
:10814000E802002020000020440000204000002021
:1081500070B505462C460026ADB3A06C401EA06449
:10816000616CE06A88422ED0A06C60BB201DFFF7D6
:10817000D7FA78B9E06A00EB8000144951F8200082
:1081800040B994F82C1001208840114909688143B6
:108190000F480160606CE062E06AC0F10500A06118
:1081A00094F82C10012088400949096808430849BF
:1081B0000860E16A01EB8101044A02EB8100211DA4
:1081C000FFF7ECFA0126304670BD0000E8020020FF
:1081D0003800002070B505462C460026002D4DD0F5
:1081E0002749E06A0968C96A884240D2A06900F05C
:1081F000004028B922480068C06AC0F10500A061AB
:10820000E16A01EB81011F4A02EB8101606988424A
:1082100001D1012000E0002018B3201DFFF780FAF3
:1082200040B994F82C10012088401749096881430F
:108230001548016012480068C06AE06294F82C108A
:10824000012088401049096808430F490860E16A25
:1082500001EB81010B4A02EB8100211DFFF79EFA21
:1082600003E007480068C06AE062012606E00449AE
:10827000606C0968C96A884200D20126304670BD28
:1082800020000020E80200203800002070B50646DB
:10829000F068C46804F11800FFF742FA1548006856
:1082A000A8B9201DFFF73CFA94F82C100120884053
:1082B00011490968084310490860E16A01EB81012E
:1082C0000E4A02EB8100211DFFF768FA04E004F179
:1082D00018010B48FFF762FA0A49E06A0968C96A9F
