:020000040800F2
:10000000584E002099010008A54A0008293100082F
:100010004D360008D9110008C16400080000000036
:1000200000000000000000000000000001010008C6
:10003000DB11000800000000450100085D600008B9
:10004000B3010008B3010008B3010008B3010008C0
:10005000B3010008B3010008B3010008B3010008B0
:10006000B3010008B3010008B3010008B3010008A0
:10007000B3010008B3010008B3010008B301000890
:10008000B3010008B3010008B3010008B301000880
:10009000B3010008B3010008B3010008B301000870
:1000A000B3010008B3010008B3010008B301000860
:1000B00009610008B3010008B3010008B30100089A
:1000C000B3010008B3010008B3010008B301000840
:1000D000B301000849640008556400086164000821
:1000E000B3010008B3010008B3010008DFF80CD029
:1000F00000F0CEFD0048004781730008584E0020F4
:10010000224B19680868B0E8F00F80F30988BFF344
:100110006F8F4FF0000080F311884EF00D0E704786
:100120000000000006480068006880F3088862B696
:1001300061B6BFF34F8FBFF36F8F00DF00BF00BF0B
:1001400008ED00E0EFF30980BFF36F8F0F4B1A68E3
:1001500020E9F00F106008B54FF0500080F31188CF
:10016000BFF34F8FBFF36F8F09F088FC4FF0000093
:1001700080F31188BDE8084019680868B0E8F00FFE
:1001800080F30988BFF36F8F704700BF58000020CD
:10019000EFF3058070470000064880470648004797
:1001A000FEE7FEE7FEE7FEE7FEE7FEE7FEE7FEE727
:1001B000FEE7FEE705610008ED000008202A04DBE9
:1001C000203A21FA02F00021704721FA02F3D040D0
:1001D000C2F1200291400843194670470048704719
:1001E000ACA7000810B50446FFF7F8FF0068005DF3
:1001F00000F0010010BDA0F14101192900D8203004
:100200007047000038B5D0E90221491E01EB4101D9
:1002100002EBC1014268C1EB011102EB81010268EE
:10022000C1EB011102EB8102D0E9043101EB410184
:1002300003EB81013023A1F5527191FBF3F4174DCB
:100240006C4302EBC41291FBF3F403FB1411009214
:100250001A2902DB124B1A4400920C2291FBF2F392
:10026000104C6343009C04EBC313009391FBF2F327
:1002700002FB13110C4A08E0491E40F2A324535C10
:100280006343009C04EBC31300930029F4DC014694
:10029000684600F0A5FB009838BD00003F0C0F0039
:1002A0008051010067C20300B0A7000810B5431ACF
:1002B000934209D28318881803E010F8011D03F84F
:1002C000011D521EF9D210BD40EA01039B0703D065
:1002D00009E008C9121F08C0042AFAD203E011F885
:1002E000013B00F8013B521EF9D210BDD2B201E031
:1002F00000F8012B491EFBD270470022F6E710B52B
:1003000013460A4604461946FFF7F0FF204610BD83
:10031000421E12F8013F002BFBD111F8013B02F8FD
:10032000013B002BF9D1704730B505462A460B46F4
:1003300012F8010B13F8014B08B1A042F8D01CB120
:10034000002802D06D1CF1E7284630BDCAB2401E1D
:1003500010F8011F8A4202D00029F9D1002070470D
:10036000421C10F8011B0029FBD1801A704703467C
:1003700011F8012B00F8012B002AF9D1184670471B
:1003800030B505460020034600E05B1C934205D2D1
:10039000EC5CC85C201A01D1002CF6D130BD80EA9B
:1003A000010210B502F00043400022D04A001FD0E5
:1003B000010E01EB1261C0F35600C2F3560240F485
:1003C000000042F40002A0FB022000047F39140464
:1003D00000D0401C50EA124001D44000491EC2B275
:1003E0000C0604EBD010401C4008802A02D003E029
:1003F000002010BD20F00100002900DA0020184381
:1004000010BD30B480EA010202F0004530F0004235
:1004100021F0004013D090B1C30DD40DC2F31601EA
:10042000C0F31600E41A41F4000140F400027D34E8
:10043000914201D3641C00E04900002C02DA30BC78
:10044000002070474FF400000023914201D3891A25
:10045000034340084FEA4101F7D151B1914202D123
:100460004FF0004105E002D24FF0010101E06FF0D2
:10047000010103EBC450284430BC00F045BB2DE91A
:10048000FE4F804681EA0300C00F0C46009021F029
:10049000004123F00045B8EB0200A94105D24046D7
:1004A000214690461C460B46024623F0004010436E
:1004B00047D0270DC7F30A00C3F30A510290401A30
:1004C000019040286BDAC3F3130040F4801B0098BE
:1004D000924620B10023D2EB030A63EB0B0B019889
:1004E0005946C0F14002504600F053FA06460D4608
:1004F00050465946019A00F05BFA10EB0800614142
:10050000002487EA115284EAE7731A4340D0009A24
:1005100062B3019A012A4FEA075215DC001B61EB16
:1005200002014FF0004202EA0752CDE90042001CEE
:1005300041F5801132462B4600F02CFB03B0BDE89C
:10054000F08F40462146F9E7001B61EB0201001CD9
:1005500041F5801300185B412018A2F5001747EB06
:10056000030140EAD570B6196D4111E06D084FEAFC
:10057000360645EAC0754FEA0752001B61EB0201DF
:10058000001C41F5801149084FEA30000019514123
:1005900032462B4603B0BDE8F04F00F0ECBA0098AD
:1005A000012240000023D0EB020263EBE0730098CD
:1005B00021464FEAE074B8EB000061EB0401E9E783
:1005C00083F000435BE781F0004158E72DE9FE4FDF
:1005D00081EA030404F0004421F0004100944FF04C
:1005E000000B23F0004350EA01045ED052EA0304FA
:1005F0005BD0C3F30A54C1F30A552C44A4F2F3347C
:100600000194A0FB0254C1F3130141F48011C3F320
:10061000130343F4801301FB024400FB034E840ADE
:10062000970A44EA815447EA8357A4FB0768029576
:100630008D0A05FB07854FEA932C04FB0C54270514
:10064000029D4FEA065847EA1637B5EB08056EEBF0
:10065000070C870E920E47EA811742EA8312A7FB26
:100660000201B6EB0B0164EB00042B0D43EA0C33E3
:100670005E1844EB1C50DA465146E7FB0201C5F315
:1006800013044FEA0B3343EA14534FEA0432019C3C
:1006900043EA0603A4F10C040294009CCDE900B4E3
:1006A00000F078FA03B0BDE8F08F00200146F9E7CA
:1006B0002DE9F04D81EA030404F0004B21F00045E0
:1006C00014464FF0000A23F0004150EA050220D002
:1006D00054EA01021DD0C5F30A570246C5F31303BD
:1006E000C1F31300C1F30A5640F4801543F480139C
:1006F000A7EB0608101BD64608F2FD3873EB050081
:1007000002D308F1010801E092185B41B8F1000F33
:1007100003DA00200146BDE8F08D00204FF480117F
:10072000064684460EE0171B73EB050705D3121B24
:1007300063EB050306434CEA010C49084FEA30001D
:1007400092185B4150EA0107EDD152EA030012D042
:1007500082EA040083EA0501084305D0101BAB417F
:1007600006D20122002306E000224FF0004302E0FF
:100770006FF0010253101AEB06004CEB085110EB1E
:100780000A0041EB0B01BDE8F04D00F0F4B9C10FD8
:1007900080EAE0700844CA079623002100F0BDB942
:1007A00096230022114600F0B8B90EB5C10F80EAB9
:1007B000E0700844CA07002140F233438DE80E0080
:1007C0000A460B4600F0E6F903B000BD0EB540F254
:1007D000334102910021CDE900110A460B4600F099
:1007E000D9F903B000BD20F00040C10DC0F31600E0
:1007F00040F400007F2901DA00207047962903DCCD
:10080000C1F19601C840704796398840704770B56D
:10081000C1F30A5201F000450024C1F3130140F274
:10082000FF3341F480119A4201DA002070BD40F29A
:1008300033439A42A2F2334203DC5242FFF7BEFC3A
:1008400000E090402C43F1D0404270BDC1F30A5209
:1008500010B5C1F3130140F2FF3341F480119A4205
:1008600001DA002010BD40F233439A42A2F2334233
:1008700003DC5242FFF7A2FC10BD904010BD00F017
:10088000004230F000400AD0C10D01F56071C0F3A4
:10089000160042EA0151C208400711437047002088
:1008A0000146704730B5041E71F1000404DB4FF0BF
:1008B0000044404264EB0101141E73F1000405DBA7
:1008C0001C464FF00043524263EB04038B4208BFC7
:1008D000824230BD30B5041E71F1000404DB4FF0DC
:1008E0000044404264EB0101141E73F1000405DB77
:1008F0001C464FF00043524263EB0403994208BF89
:10090000904230BD30B50B46014600202022012424
:1009100009E021FA02F59D4205D303FA02F5491BCD
:1009200004FA02F52844151EA2F10102F1DC30BDE3
:100930002DE9F05F0546002092469B468846064614
:10094000814640241BE02846414647462246FFF7A1
:1009500035FC53465A46C01A914110D311461846E9
:10096000224600F016F82D1A67EB01084F46224682
:100970000120002100F00DF817EB00094E41201E68
:10098000A4F10104DFDC484631462A464346BDE86F
:10099000F09F202A04DB203A00FA02F10020704781
:1009A0009140C2F1200320FA03F3194390407047AD
:1009B000202A06DBCB17203A41FA02F043EAE07323
:1009C00006E041FA02F3D040C2F120029140084310
:1009D00019467047014900F003B800002C4A002076
:1009E00010B500683C22B0FBF2F302FB1303B0FB2E
:1009F000F2F00B60B0FBF2F302FB1303B0FBF2F07A
:100A000018224B60B0FBF2F302FB1303B0FBF2F0D1
:100A1000021D8B600723B2FBF3F403FB142280005A
:100A200040F2B55300F66C308A61B0FBF3F2B0FBD4
:100A3000F3F403FB1400443280084A61C8613B2888
:100A400002D3920700D0401C0022074C13460A61D3
:100A5000E25C824203D8801A5B1C0B61F8E7401C01
:100A6000C860084610BD0000C8A700080FB40023E6
:100A700000B589B00CA900910B996FF00042CB60D2
:100A80001E4B06931E4B07930423CDE901321D4AEA
:100A9000089202466B46002000F08CF909B05DF820
:100AA00014FB70B586B006464FF0FF300091CDE9DB
:100AB0000101002015460C4604903246694604A800
:100AC000FFF7D4FF02460498211825B108B1084663
:100AD00000E020462860049800280DD0002A02DD9E
:100AE0000098884208D0081B0094CDE901043246E2
:100AF000694604A8FFF7BAFF06B070BDED0F000805
:100B00000B100008E50100080029A8BF7047401C31
:100B1000490008BF20F00100704710B4B0FA80FC13
:100B200000FA0CF050EA010404BF10BC704749B150
:100B3000CCF1200421FA04F411FA0CF118BF0121C0
:100B400021430843A3EB0C01CB1D4FEA00614FEAA0
:100B5000102042BF002010BC704700EBC35010446F
:100B60000029A4BF10BC7047401C490008BF20F0FA
:100B7000010010BC704710B5141E73F1000408DAB0
:100B8000401C41F1000192185B411A4301D120F051
:100B9000010010BD2DE9F04D92469B4611B1B1FA0E
:100BA00081F202E0B0FA80F220329046FFF7F1FEC7
:100BB00004460F4640EA0A0041EA0B0153465A46F2
:100BC000084313D0114653EA010019D0C8F140027E
:100BD0005046FFF7F3FA05460E4650465946424640
:100BE000FFF7D7FE084305D0012004E02046394630
:100BF000BDE8F08D0020054346EAE0762C433743FC
:100C00000A986305E40AA0EB08000022FD0A44EA02
:100C100047540A3002D500200146E9E701051019C2
:100C20006941DDE9084500196941BDE8F04DA2E7D9
:100C300070B521F0004303430CD0C1F30A550024E2
:100C4000D5EB040564EB0403D617AD1AB34102DB00
:100C50000020014670BD201841EB025170BDC1F368
:100C60000A52C1F3130140F2FF3341F480119A425A
:100C700002DA00200146704740F233439A42A2F262
:100C8000334202DC5242FFF799BAFFF782BE0000FE
:100C9000064C074D06E0E06840F0010394E80700C9
:100CA00098471034AC42F6D3FFF724FA60A8000846
:100CB00080A800082DE9FF4F087881B09946FF28E9
:100CC00005D0491C2D2804D00024002308E000236F
:100CD0000BE00124F9E703EB830300EB4303491C1A
:100CE0000878FF28F7D104B15B4200200090147807
:100CF00001462D2C01D02B2C04D1521C2D2C12D0AE
:100D00000024009400251678FF2E0ED00A24A0FBA4
:100D100004C801FB0481002700FB0711521C16EBDD
:100D20000C006941EFE70124EBE7994450EA010226
:100D30000ED00024AA4D2646DFF8A88200F0C7F99D
:100D400082468B46B9F1000009DAC9F100071BE0C1
:100D500001980021C0E9001105B0BDE8F08F0746F9
:100D600012E0F80707D022462B4630464146FFF7EF
:100D70002DFC0646884622462B4610461946FFF7AC
:100D800025FC04460D467F10002FEAD1B9F1000F73
:100D9000324643465046594602DAFFF789FC01E0E5
:100DA000FFF714FC009A0AB181F00041019AC2E9F0
:100DB0000001D1E72DE9FF4F1F468DB0D7E901466D
:100DC0004FF0FF382E2045464FF000090B90B969CF
:100DD0006D1C0E988847396A824688470028F6D1EC
:100DE000BAF1FF3F0AD024F4D064002E11DDBAF12D
:100DF0002B0F08D0BAF12D0F0BD102E0404611B0F5
:100E0000ABE744F48064B9696D1C0E98884782464C
:100E1000761E6946600501D52D2000E02B208DF857
:100E2000000001F1010B0DF1200809E0B9696D1C0A
:100E30000E98884782460F9844F40074761E056029
:100E4000002E02DDBAF1300FF0D00B998A453ED169
:100E500044F0800406E00F99681CA9F1010944F4EC
:100E600000740860B9696D1C761E0E98884782462A
:100E70003028F0D02BE00B998A4505D1200603D409
:100E800044F08004761E18E0504605F0A1FC08B33B
:100E90000DF11301761E44F400748B4508D2AAF1BB
:100EA00030000BF8010B200607D5A9F1010003E083
:100EB000200602D409F101008146A00502D50F9950
:100EC000681C0860B9696D1C0E9888478246002E20
:100ED000D1DC53E0002E51DDBAF1650F02D0BAF13A
:100EE000450F4BD1A00549D5B9696D1C24F4407458
:100EF000761E0E9888478246002E0CDD2B2804D0E3
:100F0000BAF12D0F07D144F48074B9696D1C0E98A5
:100F100088478246761EE00501D52D2100E02B2171
:100F200008F8011BCDF82C8021E00DF12901761E77
:100F300044F4007488450CD2AAF1300010F0FF0090
:100F400088F8000002D10B99884509D908F10108F9
:100F500006E0E00501D5244801E042F20F70814629
:100F6000B9696D1C0E98884782460F980560002E5F
:100F700004DD504605F02CFC0028D6D1F9690E9806
:100F80008847FF208BF8000088F8000000200690BA
:100F900007904B466A4608A906A8FFF78BFEA005F6
:100FA00002D46FF001002AE714F0240F0AD0E00702
:100FB00014D1DDE906123868031D3B600068C0E902
:100FC00000120BE0DDE9060100F08DF80146E007B4
:100FD00004D13868021D3A600068016028460EE7B7
:100FE000000024400000F03FF1D8FFFF426842B10A
:100FF000016811F8013B23B1521EC0E900121846E6
:1010000070470121C160881E704742685AB1C368A9
:10101000016843B983688B4205D0491E521CC0E960
:101020000012002070474FF0FF3070472DE9F04D5F
:1010300000231A461B1A8A4103DB00200146BDE843
:10104000F08DC1F30A52C1F3130141F480154FF042
:10105000000BD10702D100186D41521E0027044633
:1010600040F2FF11384601EB620A3E4680460246D6
:1010700000204FF48011FFF7A1F8C2197141BB188D
:1010800046EB0100B4EB030C75EB000C04D3E41A3F
:1010900065EB000517460E46241908F101006D4165
:1010A00080463428E3DDF91946EB0600091BA84108
:1010B00003D24FF0FF32134601E0002213461BEB30
:1010C000070046EB0A51BDE8F04DFFF754BD0EB5E1
:1010D00040F2334202920022CDE900221346FFF78C
:1010E00059FD03B000BD01F0004330B421F00041D0
:1010F00050EA010206D00A0DA2F56072C1F3130195
:10110000002A02DC30BC00207047440F44EAC104CE
:10111000C100E01830BC00EBC250FFF7F5BC70B561
:101120008C1810F8015B15F0070301D110F8013B92
:101130002A1106D110F8012B03E010F8016B01F819
:10114000016B5B1EF9D12B0705D40023521E0DD471
:1011500001F8013BFAE710F8013BCB1A921C03E0BF
:1011600013F8015B01F8015B521EF9D5A142D8D3F7
:10117000002070BD04F0BEBB10B54188B1F57A7F88
:1011800025D20288134803889A4214D140888142AC
:1011900005D14FF0030000F0BDFA002010BD05D2CC
:1011A0004FF0020000F0B6FA002010BD012000F060
:1011B000B1FA002010BD05D24FF0020000F0AAFAEB
:1011C000002010BD012000F0A5FA002010BD032072
:1011D00010BD00003C000020FEE7704770B54FF4E2
:1011E000FA75B0FBF5F1CCB2B0FBF5F105FB1106D9
:1011F00004E0284600F02CF8641EE4B2002CF8D17C
:10120000002E04D03046BDE8704000F021B870BD1B
:1012100070B500214FF0E0256B690B4A0B4C12684A
:10122000B2FBF4F44443AA69A8699042FCD003D20B
:10123000A2EB0002114403E0A3EB00063244114488
:101240000246A142F0D370BD5400002040420F007E
:10125000B0F5004F02D2401E00F04ABB70470000BC
:1012600002494988018000207047000034000020B6
:1012700070B50446104D20882988884203D16088C3
:101280006988884216D00D4E02222146304604F06D
:101290005DFE02220849304604F044FE2888218879
:1012A000884205D168886188884201D1002070BDDC
:1012B000012070BD002070BD3800002008F000083B
:1012C00010B5054804F03FFE411C03D00349020C51
:1012D0004A80088010BD000008F000083800002097
:1012E00003490A8802604988416000207047000075
:1012F0003C00002070B504466088B0F57A7F20D2AB
:10130000114D21882A88914202D16988884216D0DD
:101310000E4E02222146304604F018FE02220A49EF
:10132000304604F0FFFD28882188884205D168886E
:101330006188884201D1002070BD012070BD00206D
:1013400070BD032070BD00003C00002000F00008CC
:1013500008B502226946084804F0E4FDBDF8001013
:101360004FF6FF72914206D0BDF80200904202D0C3
:10137000024A1180508008BD00F000083C000020A7
:10138000FEB50020144A694602EB8003D3F8E83723
:1013900041F82030401CC0B20328F5D300240F4D83
:1013A0000F4E042C06D2C4F103010198C900C840B5
:1013B000C2B205E0C4F107010098C900C840C2B23A
:1013C0002A5506EB440007A105F07CF8641CE4B242
:1013D000082CE6D3FEBD000000F0FF1F40000020F7
:1013E0008C0800202532780001B582B002A8FFF7F2
:1013F000F1FA017D64398DF80710017C491C8DF8E4
:101400000510017B8DF80610017A08318DF8001067
:1014100001798DF8011000788DF8020000226946EC
:10142000044801F047FA002201A9024801F0D8F966
:101430000EBD0000A008002031B5BDF80000B0F5D9
:10144000616F19D80D4C2188884213D00C4D0122B0
:101450006946284604F07AFD01222146284604F018
:1014600061FD2088BDF80010884201D1002038BD00
:10147000012038BD002038BD032038BD34000020D5
:1014800004F0000808B501226946064804F04AFD48
:10149000BDF80000A0F57F41FF3901D00249088066
:1014A00008BD000004F0000834000020024909884B
:1014B00001800020704700003400002000F084BC50
:1014C0002DE9F0414FF400412F4C304D8E10304F3C
:1014D000002808D001281AD002282CD003283ED09A
:1014E0000020BDE8F0810022204600F07EFB0022B3
:1014F0000821284600F079FB00220221204600F056
:1015000074FB00223146384600F06FFB3AE00122BE
:10151000204600F06AFB00220821284600F065FB07
:1015200001220221204600F060FB002231463846AD
:1015300000F05BFB26E00022204600F056FB012273
:101540000821284600F051FB00220221204600F02D
:101550004CFB01223146384600F047FB12E00122E5
:10156000204600F042FB01220821284600F03DFB06
:1015700001220221204600F038FB01223146384684
:1015800000F033FB0120ACE700080140000C0140F3
:10159000001001402DE9F04786B000240294039426
:1015A000049405943448816941F010018161816996
:1015B00001F010010191816941F0040181618169AB
:1015C00001F004010191816941F0080181618169A3
:1015D00001F008010191816941F001018161806997
:1015E00000F0010001902549486820F0E06040F0DB
:1015F00000704860DFF888804D140022294640467C
:1016000000F0F3FADFF87C9000220221484600F057
:10161000ECFADFF874A000220821504600F0E5FA49
:10162000AF0000223946484600F0DFFA0295012655
:10163000039604940225059502A9404600F0CEF9D0
:10164000029503960494059502A9484600F0C6F950
:10165000029703960494059502A9484600F0BEF946
:101660000820029003960494059502A9504600F0C4
:10167000B5F906B0BDE8F087001002400000014057
:101680000010014000080140000C0140F8B50020A6
:1016900000900024194F6E46A7F1100537F824007A
:1016A00081B255F8240000F091FA3055641CE4B280
:1016B000042CF3D39DF8000010B99DF8011011B16E
:1016C000012802D004E00020F8BD9DF8011009B106
:1016D00010B105E00120F8BD9DF80110012902D0EC
:1016E000012802D005E00220F8BD9DF80100012884
:1016F00001D00420F8BD0320F8BD00001000002038
:10170000FFF748BF10B5FFF7FBFFBDE8104003200F
:10171000AFF30080FFF7D4BEFFF7B8BF72B6FEE7A5
:10172000064A0021D16106490A6942F002020A61B3
:101730004861086940F0400008617047C008002017
:1017400000200240044B0022DA61044A136943F08E
:101750000103136101807047C0080020002002408F
:1017600000201449CA68D306134A04D5D06940F052
:101770000200D0611020CB685B0705D5D36943F028
:101780000103D36140F00400CB69DB0707D0D369C4
:1017900043F00403D361CA6922F00102CA61A0F5D3
:1017A0008072013A01D0C8607047C86920F001001A
:1017B000C861704700200240C008002070B5044690
:1017C00000F01AFA0546114E09E0601C07D024B15A
:1017D00000F012FA401BA04201D9032070BDF0684E
:1017E000C007F2D1F068800601D52020F060F068D3
:1017F000C00605D4F069C00702D1F068400703D5E0
:10180000FFF7AEFF012070BD002070BD0020024038
:1018100010B590F821100022022905D0042181631F
:1018200080F82020012010BD01680B6823F00E0312
:101830000B6001680B6823F001030B6090F84030E7
:10184000C46B012101FA03F3636080F8211080F872
:101850002020104610BD000010B5002490F8211083
:10186000022903D00421816301243DE001680A6854
:1018700022F00E020A6001680A6822F001020A6082
:101880001A4A0168914201D1012121E0174A14321C
:10189000914201D110211BE0144A2832914201D11A
:1018A000891515E0114A3C32914201D189140FE0AB
:1018B0000E4A5032914202D14FF4803108E00B4A77
:1018C0006432914202D14FF4801101E04FF08071F7
:1018D000064A083A5160012180F82110002180F861
:1018E0002010416B01B18847204610BD080002401E
:1018F00070B5044600F080F90546601C02D004482B
:101900000078044400F078F9401BA042FAD370BD7F
:10191000480000200348016941F080010161002076
:1019200070470000002002402DE9F05F074688461E
:1019300015461E460024DFF8749099F81800012817
:1019400009D0012089F818004CF2503B5846FFF7A7
:1019500035FF18B126E00220BDE8F09F012F05D029
:10196000022F05D00427DFF848A019E00127FAE785
:101970000227F8E7220128463146FEF71FFC81B214
:1019800008EB4400FFF7DEFE5846FFF717FFDAF8D2
:10199000101021F00101CAF8101018B9641CE4B24B
:1019A000BC42E7D3002189F81810D5E7C008002011
:1019B00000200240002006490A69120607D5054AA0
:1019C0004A60054A4A600969090600D50120704746
:1019D0000020024023016745AB89EFCD2DE9F84F88
:1019E00000240023DFF8C4914FF00F0809F1040A26
:1019F0000AF1040B0BF1040ED1E00127A7403A4095
:101A0000BA4275D1DFF8A8C14D68A5EB0C06654553
:101A10002BD00DDC032D34D005DC35B3012D19D0CE
:101A2000022D2FD11BE0112D16D0122D2AD119E035
:101A3000B6F5881F19D006DCB6F5803F15D0B6F58F
:101A4000801F1FD111E0B6F5001F0ED0B6F5041FA0
:101A500018D10AE0CB6815E0CB681B1D12E0CB68FB
:101A600008330FE0CB680C330CE08B6823B1012BFB
:101A700004D00823476105E0042303E0082307613D
:101A800000E00023FF2A01D8054601E000F104052B
:101A900002D84FEA840603E0A4F108064FEA86065E
:101AA0002F6808FA06FC27EA0C0703FA06F647EA4D
:101AB00006072F604D68ED0070D53E4DAE6946F0CB
:101AC0000106AE61AD6905F0010500953A4D24F0BF
:101AD00003067719BE68A5072D0F08FA05FC26EA4C
:101AE0000C06DFF8D8C0604503D14FF0000C17E0BA
:101AF00054E0DFF8CCC0604502D14FF0010C0FE09C
:101B0000DFF8C0C0604502D14FF0020C08E0DFF8FA
:101B1000B8C0604502D14FF0030C01E04FF0040C57
:101B20000CFA05FC4CEA060CC7F808C04D68ED033A
:101B300005D5D9F800501543C9F8005004E0D9F88C
:101B400000509543C9F800504D68AD0305D5DAF84B
:101B500000501543CAF8005004E0DAF800509543ED
:101B6000CAF800504D68ED0205D5DBF8005015436A
:101B7000CBF8005004E0DBF800509543CBF8005060
:101B80004D68AD0205D5DEF800501543CEF8005083
:101B900004E0DEF800509543CEF80050641C0A685B
:101BA00032FA04F57FF429AFBDE8F88F0004014054
:101BB0000000111000100240000001400008014028
:101BC000000C0140001001400014014080680842F0
:101BD00001D00120704700207047C26821EA02034B
:101BE0000A4043EA024101617047002A01D00161C5
:101BF0007047090401617047014880687047000020
:101C00004800002070B50446002C11D021684CF625
:101C1000CC400860216845F255500860D4E90010B6
:101C200048602168A0688860FFF7E6FF05460CE081
:101C3000012070BDFFF7E0FF401B272805D9206871
:101C4000C068800701D0032070BD2068C06880078D
:101C5000F0D121684AF6AA200860002070BD006813
:101C60004AF6AA21016000207047000002488168FE
:101C700002781144816070474800002010B5074881
:101C8000016841F010010160032000F08BF80F2083
:101C900000F006F800F03EF8002010BD00200240E1
:101CA00000B587B0014600221C2000F05BF81C2024
:101CB00000F04AF81448C16941F00101C161C069EE
:101CC00000F00100009001A902A800F02DFA00F038
:101CD0004FFA40000D49B0FBF1F1491E0C484FF09E
:101CE0008042026040F2E732C2604160002101613F
:101CF000816000F05BFE10B1012007B000BD044818
:101D000000F07AFEF9E700000010024040420F00A8
:101D10004408002082B00B48816941F001018161D3
:101D2000816901F001010191C16941F08051C161F6
:101D3000C06900F08050019000220F21901E02B077
:101D400000F010B800100240002809DB00F01F026C
:101D5000012191404009800000F1E020C0F800110D
:101D600070470000F0B40D460D4B1B68C3F302230F
:101D7000C3F10704042C00D90424191D072901D23A
:101D8000002300E0DB1E012606FA04F1491E29406B
:101D900099409E40761E16403143F0BC04F0BABB19
:101DA0000CED00E000F00701054A10684FF6FF0354
:101DB000184040EA012003490843106070470000C2
:101DC0000CED00E00000FA05BFF34F8F05480168F5
:101DD000054A01F4E06111430160BFF34F8F00BF7A
:101DE000FDE700000CED00E00400FA0501490120C8
:101DF0000862704700000E4210B586B001462AA066
:101E000090E81C00C068CDE90334029205902AA036
:101E1000006801900020294C012922D0022939D0E4
:101E200010291CD161682268D20118D502A8C1F31B
:101E30008342805CC90309D5616801AAC1F34041AE
:101E4000515C1F4AB2FBF1F1484301E01D49484390
:101E50006168490203D440000321B0FBF1F006B0F1
:101E600010BD216AC1F30122012A03D1890701D5DE
:101E7000D003F4E7022A05D1616A890702D549F641
:101E80004040ECE7032AEAD121688903E7D54FF205
:101E90002440E4E700F07CF96168C1F38131491C1A
:101EA0004900B0FBF1F0DAE7020304050607080970
:101EB0000A0B0C0D0E0F1010010200000010024062
:101EC00000127A0000093D002DE9F8430446DFF8CE
:101ED000F8802078C0075FD00027D8F81C00C00029
:101EE0000BD4D8F81C0040F08050C8F81C00D8F87B
:101EF0001C0000F0805000900127344D2868C00578
:101F000012D4286840F480702860FFF775FE0646FA
:101F100007E0FFF771FE801B642802D90320BDE8AB
:101F2000F8832868C005F4D5D8F8200000F4407084
:101F300010B3A18801F4407181421DD0D8F820006F
:101F400020F44070224901220A6000220A60C8F889
:101F50002000C00710D0FFF74FFE054641F288363B
:101F600006E0FFF749FE401BB04201D90320D6E747
:101F7000D8F820008007F4D5D8F82000616820F454
:101F800040700843C8F82000012F05D1D8F81C0084
:101F900020F08050C8F81C002078800707D5D8F8BA
:101FA0000400A16820F440400843C8F804002078E9
:101FB000C00607D5D8F80400E16820F48000084383
:101FC000C8F804000020AAE700100240007000409A
:101FD000400442422DE9F04704460D46002C17D03C
:101FE000DFF83081D8F8000000F00700A84211D2D5
:101FF000D8F8000020F007002843C8F80000D8F8FF
:10200000000000F00700A84204D00120BDE8F087DE
:102010000120FBE72068404E810712D5400703D519
:10202000706840F4E06070602078000703D5706845
:1020300040F4605070607068A16820F0F0000843C0
:1020400070602078C0072CD06068012806D0022874
:1020500009D0316889070BD40120D7E7316889039B
:1020600006D40120D2E73168890101D40120CDE7EF
:10207000716821F0030101437160FFF7BDFD074660
:1020800041F2883906E0FFF7B7FDC01B484501D98A
:102090000320BBE77068616800F00C00B0EB810FB3
:1020A000F1D1D8F8000000F00700A8420ED9D8F806
:1020B000000020F007002843C8F80000D8F800000E
:1020C00000F00700A84201D001209FE720784007D8
:1020D00005D57068E16820F4E060084370602078FE
:1020E000000706D57068216920F4605040EAC100FD
:1020F000706000F05DF87168084AC1F30311515C2B
:10210000C8400749086007480068FFF7C9FD00207C
:102110007CE7000000200240001002405CA500089F
:10212000540000204C0000200F2202600B4A53682C
:1021300003F003034360536803F0F00383605368C4
:1021400003F4E063C360526802F46052D208026193
:102150000348006800F00700086070470010024064
:102160000020024001480068704700005400002031
:1021700000B5FFF7F7FF04494968044AC1F302219B
:10218000515CC84000BD0000001002406CA5000872
:1021900000B5FFF7E7FF04494968044AC1F3C221CB
:1021A000515CC84000BD0000001002406CA5000852
:1021B00085B014A090E80E00C068CDE9022301911B
:1021C000049014A000680090134B5968134801F064
:1021D0000C02042A10D0082A0ED101A8C1F38342B0
:1021E000805CC9030AD55968C1F340411DF801104C
:1021F0000A4A5043B0FBF1F005B070470849484324
:10220000FAE7000002030405060708090A0B0C0D93
:102210000E0F1010010200000010024000127A00A0
:1022200000093D002DE9F84F0446002C0ED020781F
:10223000D94DC0075ED06868C0F3810001280BD07B
:102240006868C0F38100022803D00CE00120BDE8DB
:10225000F88F6868C00306D5286880034AD560688F
:10226000A8BB0120F3E76068B0F5803F11D0A8B1AA
:10227000B0F5A02F1BD0286820F480302860286893
:1022800020F480202860606830B3FFF7B5FC064674
:102290001EE0286840F480302860F4E7286820F4C5
:1022A00080302860286820F480202860EBE72868C8
:1022B00040F480202860286840F480302860E2E7FD
:1022C000FFF79AFC801B642802D90320BFE711E0C6
:1022D00028688003F4D50DE0FFF78EFC064606E083
:1022E000FFF78AFC801B642801D90320AFE7286828
:1022F0008003F5D42078DFF8A48280074FF0010A2C
:102300004FF0000945D5686810F00C0F07D06868D9
:10231000C0F38100022812D16868C0030FD4286876
:10232000800704D52069012801D001208FE72868A3
:10233000616920F0F80040EAC100286029E02069C6
:10234000B8B1C8F800A0FFF757FC064606E0FFF753
:1023500053FC801B022801D9032078E728688007F6
:10236000F5D52868616920F0F80040EAC1002860CE
:102370000FE0C8F80090FFF73FFC064606E0FFF7C5
:102380003BFC801B022801D9032060E728688007F6
:10239000F5D42078000726D58148A16999B1C0F805
:1023A00000A0FFF729FC064606E0FFF725FC801B8E
:1023B000022801D903204AE7686A8007F5D5012081
:1023C00003F080FB0FE0C0F80090FFF715FC064615
:1023D00006E0FFF711FC801B022801D9032036E735
:1023E000686A8007F5D42078400773D50026E8692D
:1023F000C00008D4E86940F08050E861E86900F066
:10240000805000900126DFF89CB1DBF80000C00589
:1024100014D4DBF8000040F48070CBF80000FFF724
:10242000EBFB074606E0FFF7E7FBC01B642801D97A
:1024300003200CE7DBF80000C005F4D5E0680128B4
:1024400012D0B0B105281DD0286A20F00100286202
:10245000286A20F004002862E06841F2883B28B333
:10246000FFF7CAFB07461DE0286A40F0010028621A
:10247000F2E7286A20F001002862286A20F00400B0
:102480002862E9E7286A40F004002862286A40F0E0
:1024900001002862E0E7FFF7AFFBC01B584501D9F8
:1024A0000320D4E6286A8007F5D50DE0FFF7A4FBEA
:1024B000074606E0FFF7A0FBC01B584501D90320E3
:1024C000C5E6286A8007F5D4012E03D1E86920F01B
:1024D0008050E861E069A0B36968C1F38101022915
:1024E00046D0022805D0C8F86090FFF785FB044667
:1024F0003AE0C8F86090FFF77FFB064606E0FFF77A
:102500007BFB801B022801D90320A0E628688001FC
:10251000F5D4206AB0F5803F05D16868A16820F441
:10252000003008436860D4E908010843696821F471
:10253000741108436860C8F860A0FFF75DFB0446AB
:1025400007E026E0FFF758FB001B022801D9032013
:102550007DE628688001F5D51BE0FFF74DFB001BE9
:10256000022801D9032072E628688001F5D410E022
:1025700001280CD06868226A00F48031914204D1AD
:10258000616A00F47010884203D001205FE60120E8
:102590005DE600205BE600000010024000004242C1
:1025A0008004424200700040F8B505460C461646CD
:1025B00000200090002D08D03CB10022694628463A
:1025C00000F01BF818B10120F8BD0120F8BD287BF0
:1025D0002070E87BE070697B6170A97BA17056B1C7
:1025E00003F08BFAE070607803F087FA6070A078EF
:1025F00003F083FAA0700020F8BD2DE9F0470746EC
:102600000C469046002F07D034B138684068400728
:1026100004D50120BDE8F0870120FBE7384603F030
:1026200020FB05464FF46160B5FBF0F1B5FBF0F21D
:1026300000FB12533C22B3FBF2F36370B5FBF0F3E3
:1026400000FB1350B0FBF2F302FB1300A07018293B
:1026500036D31820B1FBF0F9B1FBF0F200FB1210F9
:102660002070384603F0F6FA411C03D0A84201D985
:10267000461B01E04FF0FF36A9EB091000EB4000CC
:10268000C0EB001005EBC0152946384603F043FBAC
:1026900008B10120BEE7701C06D07119384603F05E
:1026A00023FB40B10120B5E73146384603F01CFB5F
:1026B00008B10120AEE74946384603F029FA00E0A8
:1026C0002170B8F1000F0BD0207803F016FA2070BB
:1026D000607803F012FA6070A07803F00EFAA07030
:1026E000002097E770B50446002C03D0607C0026DC
:1026F00010B105E0012070BD2674204600F04CF8B2
:1027000002206074204600F031F9042510B1657490
:10271000012070BD204603F052FA10B1657401200B
:1027200070BD2068416821F007014160A06820B1B8
:102730001848016821F0010101601648001F016876
:10274000A26821F46071114301606068411C04D1EA
:102750000120FFF751FB98B1401E21688A6822F0E2
:102760000F0242EA10428A602168CA6860F30F02D1
:10277000CA60204603F03DFA28B16574012070BD9F
:102780006574012070BDE67301206073A0736074EE
:10279000002070BD306C004008B500680D498842CB
:1027A00017D1FFF723FB0C48C16941F00061C161FB
:1027B000C06900F000600090084901200860002214
:1027C00005210320FFF7CEFABDE808400320FFF7FC
:1027D000BBBA08BD00280040001002403C04424241
:1027E0002DE9F04104460D46002C3FD0E5B3207C96
:1027F00001283DD00126267402206074AAB3E8782F
:1028000003F072F9E073687803F06EF96073A878EA
:1028100003F06AF9A073A27B617BE07B03F031FADD
:1028200020732870204603F01CFA4FF46161B0FB5E
:10283000F1F10025182936D91822B1FBF2F1A1EBEC
:10284000011101EB4101C1EB011100EBC117394648
:10285000204603F060FA4FF0040890B184F811802C
:1028600025740120BDE8F08100E003E00120F9E7D4
:102870000220F7E7E878E07368786073A878A073BF
:10288000C9E7204603F0E6F9411C0CD0B8420AD251
:1028900007490144204603F027FA20B184F811804B
:1028A00025740120DEE7667425740020DAE7000055
:1028B000805101002DE9F04104460D46002C28D03E
:1028C0003DB3207C012826D00126267402206074A6
:1028D0001AB3287803F008F94FF4616100FB01F79F
:1028E000687803F001F9C0EB001007EB8007A878C7
:1028F00003F0FAF83D182946204603F00CFA0027A9
:102900004FF00408A8B184F8118027740120BDE8B5
:10291000F0810120FBE70220F9E729784FF461609C
:1029200041436878C0EB001001EB8000A97845189E
:10293000E1E72068416821F005014160204603F08D
:1029400089F9411C0CD0A8420AD20749014420460B
:1029500003F0CAF920B184F8118027740120D6E76A
:10296000667427740020D2E78051010070B50446D8
:10297000002C0AD02068416821F008014160FFF76F
:102980003BF905464FF47A7608E0012070BDFFF769
:1029900033F9401BB04201D9032070BD2068406864
:1029A0000007F4D5002070BD7047704710B504468D
:1029B000002C03D094F83D0010B107E0012010BDB9
:1029C000002084F83C00204600F015F8022084F82E
:1029D0003D00211D206803F09DFB01203D34607205
:1029E0006070A070E07020716071A071E071207261
:1029F0002070002010BD704790F83D10012901D0D3
:102A000001207047022180F83D100168CA6842F039
:102A10000102CA6000680E49884208D0B0F1804FB8
:102A200005D00C49884202D00B49884209D18168FF
:102A300001F00701062908D0016841F00101016099
:102A400003E0016841F001010160002070470000CF
:102A5000002C01400004004000080040704770B5A1
:102A60000446206801694FF00005C943890716D460
:102A7000C168C943890712D4E91E0161012020778A
:102A800020688069800703D02046FFF7E7FF05E054
:102A9000204600F09BF8204600F099F82577206842
:102AA0000169C943490718D4C168C943490714D407
:102AB0006FF004010161022020772068806910F422
:102AC000407F03D02046FFF7C9FF05E0204600F015
:102AD0007DF8204600F07BF8257720680169C9431E
:102AE000090717D4C168C943090713D46FF0080157
:102AF0000161042020772068C069800703D0204648
:102B0000FFF7ACFF05E0204600F060F8204600F03B
:102B10005EF8257720680169C943C90618D4C168E1
:102B2000C943C90614D46FF0100101610820207751
:102B30002068C06910F4407F03D02046FFF78EFF65
:102B400005E0204600F042F8204600F040F82577E6
:102B500020680169C943C90708D1C168C943C907C9
:102B600004D1891E0161204600F032F82068016915
:102B7000C943090609D4C168C943090605D46FF0E1
:102B8000800101612046FFF70FFF20680169C943FA
:102B9000490609D4C168C943490605D46FF040010C
:102BA0000161204600F01BF820680169C9438906CD
:102BB0000BD4C168C943890607D46FF020010161B5
:102BC0002046BDE87040FFF7F0BE70BD704770470B
:102BD0000068B0F1804F01D1FFF748B870477047E7
:102BE00008B5034693F83E00202801D0022008BD16
:102BF00091B18AB193F83C0001280FD0012083F8ED
:102C00003C001863184603F0A3FB0028EFD1196BB2
:102C1000012905D0012008BD012008BD022008BD02
:102C200019680A684A680092CA6842F01002CA60CD
:102C300008BD00000068054A904205D0044A904251
:102C400002D1084602F032BF704700000044004045
:102C50000048004000680649884208D10549002024
:102C600081F83C00642204490248FFF7B9BF70476D
:102C70000048004000080020D4460020F8B5044673
:102C800022681068D168536900F00F05002D08D143
:102C9000860606D58E0604D52046BDE8F84003F02A
:102CA0009CBA0026002D60D003F0010501F4907756
:102CB0002F435AD0C20705D0CA0503D5226C42F073
:102CC00001022264420705D5DA0703D0226C42F0E4
:102CD00002022264820705D5DA0703D0226C42F093
:102CE00004022264020707D501F020022A4303D020
:102CF000226C42F008022264226C002A2BD080064B
:102D000004D5880602D5204603F067FA206840699A
:102D1000C0F38010216C090700D408B3204603F0EB
:102D200037FA20684169490616D5416921F040010A
:102D30004161A06B60B143494163A06BFEF78CFD1C
:102D4000002808D0A06B416B01B0BDE8F0400847F7
:102D50002046FFF77FFFF8BD2046FFF77BFFF8BD59
:102D60002046FFF777FF2664F8BD236B012B57D170
:102D7000C30655D5CB0653D51068506800905069EE
:102D80004FF0200340062DD5A16B0868406880B243
:102D90000028E9D0A58D8542E6D9E08588692028FC
:102DA00018D0D06820F48070D0602068416921F08C
:102DB000010141612068416921F04001416184F8CD
:102DC0003E3026632068C16821F01001C160A06B0D
:102DD000FEF71EFDA08DE18D401A81B22046FFF75F
:102DE00029FFF8BDA08DE18D401A81B2E08D002849
:102DF000F7D00029F5D0D06820F49070D06020681A
:102E0000426922F00102426184F83E302663206864
:102E1000C26822F01002C2602046FFF70BFFF8BD27
:102E2000020606D50A0604D52046BDE8F84003F0A0
:102E3000AABA4006F3D54806F1D52046BDE8F840C9
:102E400003F0BEB98161000870B50446002C04D0BF
:102E500094F83D00002510B106E0012070BD84F813
:102E60003C50204600F022F8242084F83D002068E1
:102E7000C16821F40051C160204603F00DFA2068BA
:102E8000016921F4904101612068416921F02A0122
:102E900041612068C16841F40051C160256420206F
:102EA00084F83D0084F83E00002070BD2DE9F04715
:102EB00086B0804600240294039404940594484903
:102EC000D8F80000474D02260327DFF81C914FF485
:102ED000806A884227D1A86940F48040A861A86927
:102EE00000F480400190A86940F00400A861A8693E
:102EF00000F004000190481502900396059702A97E
:102F00004846FEF76BFDCDF808A00394049402A98F
:102F10004846FEF763FD002202212520FEF722FF2E
:102F20002520FEF711FF3149D8F8000088422AD148
:102F3000E86940F40030E861E86900F4003001908D
:102F4000A86940F00400A861A86900F0040001909D
:102F5000042002900396059702A94846FEF73EFD1D
:102F6000082102910394049402A94846FEF736FD15
:102F7000002202212620FEF7F5FE2620FEF7E4FEC1
:102F800006B0BDE8F0871A498842F9D1E86940F4F3
:102F90008020E861E86900F480200190A86940F091
:102FA0000800A861A86900F008000190CDF808A009
:102FB000039605970F4D02A92846FEF70FFDE91469
:102FC00002910394049402A92846FEF707FD00220B
:102FD00002212720FEF7C6FE2720FEF7B5FECFE729
:102FE0000038014000100240000801400044004049
:102FF00000480040000C014090F83E30202B01D0EA
:103000000220704759B152B190F83C30012B08D0E2
:10301000012380F83C300023036303F099B90120B9
:1030200070470220704700000B49884212D10B49BB
:103030000888B0F5C87F01D30020088008480368DD
:103040000888421C08440A8003710122054902488D
:10305000FFF7D2BF704700007807002058470020D4
:1030600004380140EC4800202DE9F84304460E46A0
:1030700015461F4694F83D00202802D00220BDE8E6
:10308000F883C6B1BDB194F83C00012815D00120E9
:1030900084F83C004FF00009C4F84090212084F8E7
:1030A0003D00FEF7A9FD8046A584E584A068B0F543
:1030B000805F04D005E00120E1E70220DFE720691E
:1030C00020B13546002684F83C9013E00025FAE74D
:1030D0004346002280212046009703F083F908B17F
:1030E0000320CCE79DB1216815F8010B4860E08C06
:1030F000401EE084E08C0028EAD1434600224021B3
:103100002046009703F06EF940B10320B7E736F888
:10311000020B2168C0F308004860E8E7202084F82B
:103120003D000020ABE77047FEE7000010B586B019
:10313000002002900390049005900D48816941F0B1
:1031400008018161806900F008000190094C0022AB
:10315000C0212046FEF749FDC021029101210391C3
:103160000491059102A92046FEF738FC06B010BD77
:1031700000100240000C014070B5012817D10C4C22
:10318000850525600A481038016821F0704101600A
:10319000016841F040510160680020600220FEF7A4
:1031A00037F8402020600220FEF732F8256070BD1D
:1031B000100C014010B5FFF7B9FF03484021016032
:1031C0008021016010BD0000100C014070B5012885
:1031D00017D10C4C850525600A481038016821F08C
:1031E00070410160016841F0405101608020206021
:1031F0000220FEF70DF8402020600220FEF708F8BC
:10320000256070BD100C01402DE9F0478A4600246E
:1032100001282ED11A48016821F07041016001682F
:1032200041F0004101600025154EDFF854904FF445
:10323000800710364FF0400809F108093760022076
:10324000FDF7E6FFC6F800806006040ED9F800001E
:10325000000601D5641CE4B20120FDF7D9FF6D1C06
:10326000EDB2082DEAD3BAF1000F05D00120FFF727
:1032700083FF2046BDE8F0870120FFF7A7FFF8E7AE
:10328000000C01402DE9F0470D4601282DD11848CA
:10329000016821F070410160016841F04051016016
:1032A000134F4FF480081037C7F8008000248026A1
:1032B0004FF400094FF0400A280601D53E6001E0B6
:1032C000C7F800906806050E0220FDF7A1FFC7F8B9
:1032D00000A00220FDF79CFFC7F800800220FDF748
:1032E00097FF641CE4B2082CE6D3BDE8F087000029
:1032F000000C014010B501281AD10E48016821F0D8
:1033000070410160016841F040510160094C80202A
:1033100010342060402020600420FDF779FF4FF436
:10332000000020600420FDF773FF4FF48000206050
:1033300010BD0000000C014010B501281ED110483E
:10334000016821F070410160016841F04051016065
:103350000B4C4FF4800010342060400020600420AB
:10336000FDF756FF402020600220FDF751FF80202E
:103370002060BDE810400420FDF74ABF10BD0000EA
:10338000000C014070B50024012826D114480168C2
:1033900021F070410160016841F000410160104D71
:1033A0008020103528600120FDF732FF4020286082
:1033B0000120FDF72DFF0A48083008E0641CE4B244
:1033C000FA2C04D90120FFF7B7FF012070BD016876
:1033D0000906F3D44FF480002860002070BD00007F
:1033E000000C014000F0B0F84FF47A7400F004F8DB
:1033F000204603F0E0FFF9E70148FEF730BC00008B
:10340000B408002010B5A4B01C221C491DA8FCF76C
:103410004DFF00211DA803F0EFFF194CE0601C22B6
:1034200016491C3116A8FCF741FF002116A803F02D
:10343000E3FF20611C22114938310FA8FCF736FF49
:1034400000210FA803F0D8FFA0601C220B495431C3
:1034500008A8FCF72BFF002108A803F0CDFF20608F
:103460001C220649703101A8FCF720FF002101A8A9
:1034700003F0C2FF606024B010BD0000D0A40008BB
:10348000200000202DE9F04F85B000240194029423
:10349000039404942848816941F010018161816995
:1034A00001F010010091816941F00401816181699D
:1034B00001F004010091816941F008018161806996
:1034C00000F008000090DFF874904FF400550022DF
:1034D00029464846FEF789FBDFF864A049F2030756
:1034E000002239465046FEF780FBDFF858B046F21E
:1034F0000818002241465846FEF777FB0195012542
:10350000029503940226049601A94846FEF766FA3E
:10351000019702950394049601A95046FEF75EFABE
:10352000CDF8048002950394049601A95846FEF74D
:1035300055FA05B0BDE8F08F0010024000100140C0
:1035400000080140000C014010B50948074901601E
:103550000521416040F6FF718160FEF753FB0028B2
:1035600003D0BDE81040FEF7D9B810BD00300040D0
:10357000B40800201CB50024019400941648154995
:103580000160611E41608460FFF7ACF808B1FEF78E
:10359000C5F88DF804408DF805408DF806400122ED
:1035A00001A90D48FFF786F908B1FEF7B7F8012029
:1035B0008DF800008DF801008DF802008DF80340B1
:1035C000012269460448FFF70BF9002801D0FEF7F5
:1035D000A5F81CBD00280040A008002010B50C482C
:1035E0000A4901604FF4E131416000218160C1600E
:1035F00001610C2242618161C161FFF725FC002855
:1036000003D0BDE81040FEF789B810BD0038014076
:103610007807002010B50C480A4901604FF4165194
:10362000416000218160C16001610C2242618161C1
:10363000C161FFF709FC002803D0BDE81040FEF788
:103640006DB810BD0048004000080020FEE72DE9DD
:10365000F0470446894609F10C06704200F0030069
:103660008519A068A8422FD2D4E90510814219D14A
:10367000012101EB40084FEA8800064605F0CCFD29
:103680000746380030D03146FCF737FEA069E168C4
:1036900082003846FCF70AFEE06806F045F8C4F8F8
:1036A0001880E7604FF48066B54200D32E4630465E
:1036B00005F0B2FDD0B16169491C6161E268491E43
:1036C00042F82100A66020612069C0F800902169BD
:1036D0000C31416000218160216929442161A16888
:1036E000491BA160BDE8F0870020FBE70020F9E757
:1036F0002DE9F04180460F4616461D46002D01D0AB
:10370000314600E00C214046FFF7A1FF044644B1DA
:103710005DB104F10C00606032463946FCF7C6FD2D
:1037200005E04FF0FF30BDE8F0816760266021467C
:10373000404600F002F80020F5E700228A60426867
:10374000002A02D09160416001E001604160C269DD
:1037500009681144C161704700F00AB80021016096
:1037600041608160C160416181610161C1617047F7
:1037700070B50546002405E0E86850F8240005F01F
:10378000D3FF641C6869A042F6D8E86805F0CCFF56
:103790002846BDE87040FFF7E1BF000070B5CCB02F
:1037A0001446549E539D4FF4967101A8FCF7A5FD55
:1037B0000DA10E4802F085FE3246294601A8FCF70D
:1037C00075FD01AA0AA1094802F07BFE0B492046BB
:1037D000FCF7AAFD10B101A801F066F901A801F0FB
:1037E000E5FC4CB0002070BD0D0A000078070020F9
:1037F000636D643A2025730D0A0000008C080020D8
:1038000070B50C4615462B46224606A1144802F018
:1038100058FE2C4304D11348017841F00101017096
:10382000002070BD5375636365737320746F2063EC
:103830006F6E6E65637420746F20746865207365A5
:10384000727665722C20666C616773282530782942
:103850002C20636F6465282564292E0D0A00000062
:1038600078070020C80100200249012081F8C30028
:10387000002070470601002010B50A4602A10D483D
:1038800002F01FFE002010BD52656376207468654B
:10389000207075626C6973682061636B2C207061A5
:1038A000636B65742069642069732025642E0D0A9A
:1038B000000000007807002010B50A4602A10D485C
:1038C00002F0FFFD002010BD52656376207468652C
:1038D000207075626C69736820636F6D702C207046
:1038E00061636B65742069642069732025642E0A06
:1038F000000000007807002010B5A0F8B0100A46BC
:1039000002A10D4802F0DDFD002010BD5265637676
:1039100020746865207075626C69736820726563D5
:103920002C207061636B65742069642069732025A5
:10393000642E0D0A000000007807002010B5A0F8E2
:10394000B0100A4602A10C4802F0BBFD002010BDD9
:103950005265637620746865207075626C6973685F
:103960002072656C2C207061636B65742069642023
:1039700069732025642E0A007807002030B5CBB08B
:103980001C464E9D4FF496716846FCF7B6FC2A46DD
:1039900021466846FCF78AFC684601F085F84BB082
:1039A000002030BD70B515461E460A46334608490C
:1039B000084802F086FD002406E02B5D224606A1A1
:1039C000044802F07EFD641CB442F6D3002070BDB2
:1039D000F8A7000878070020202020636F64652581
:1039E000643D253032780A0010B50A4602A10D4820
:1039F00002F067FD002010BD526563762074686593
:103A000020756E7375627363726962652061636BA2
:103A10002C207061636B65742069642069732025B4
:103A2000642E0A007807002010B5044600202060AC
:103A30001D49C4F89C1084F8B2004FF4C871201DD1
:103A400000F018FC024632B118A1234802F039FDFB
:103A50004FF0FF3010BD214860612148E0612148EE
:103A6000E062A462204860622462204860632463AC
:103A70001F48E063A4631F48606424641E48E06438
:103A8000A4641E48606524651D48E065A4651D4862
:103A9000606624661C48E066A46604F17000FFF7C7
:103AA0005DFE002010BD0000060100204661696C2B
:103AB000656420746F20696E6974204D51545420E0
:103AC000636F6E7465787420657272636F646520CD
:103AD000697320256400000078070020493B000836
:103AE000AD3C000801380008693800087D3900083D
:103AF00079380008F93800083D390008B93800085D
:103B0000A5390008E93900089D3700087FB5064649
:103B10000C461546206F002803D06FF0060004B055
:103B200070BD2846FCF71CFC00220121CDE90002F3
:103B3000CDE902212B46324604F1700000F06CFC06
:103B40000028ECD1EBE7000070B50D46022000F034
:103B50000BFF064C30B1A28805492846FCF7A6FBAE
:103B600000F0B2FEA0880021A18070BDFE00002000
:103B70005C4700202DE9FF41064688460A2740465B
:103B8000FCF7EEFB84B2204605F046FB0546280014
:103B900012D022464146FCF789FB306FA0B128467F
:103BA00005F0C2FD1F4A20A1294802F08AFC6FF0EF
:103BB000060004B0BDE8F0811A4A26A1244802F0AC
:103BC00080FC6FF00A00F4E72A48FCF7C9FB1C30C0
:103BD00005F022FB28A1FCF7CAFB2649FCF798FB5D
:103BE0002AA1FCF795FB804600200121CDE9004089
:103BF000CDE902012B464246394606F1700000F03D
:103C00000BFC0446284605F08FFD404605F08CFD70
:103C100034B1044A21A10E4802F053FC2046C8E703
:103C20000020C6E77BA600083C25733E3A2063745B
:103C3000782D3E6D7174746275662D3E666972737F
:103C4000745F657874207A65726F0D0A0000000059
:103C5000780700203C25733E3A20745F7061796CD0
:103C60006F6164206D616C6C6F63206572726F723E
:103C70000D0A00008C0800203130303232302F73B2
:103C800073625F757569642F000000002F70726F9A
:103C900070657274792F7570000000003C25733ECA
:103CA0003A206572726F720D0A0000002DE9F0462D
:103CB000ADF2044D0F469146002500240DF1040A93
:103CC0000CE007EBC40657F834100AEB05007268E5
:103CD000FCF7ECFAB088284405B2641C4C45F0DBD4
:103CE0000C2005F099FA0446284605F095FA064698
:103CF0002A4601A93046FCF7D9FA25606660002003
:103D0000A0600849086808B905E0084681680029EC
:103D1000FBD1846000E00C600DF2044D4046BDE82C
:103D2000F0860000D800002008B50B460092012262
:103D30000221703000F0F4FB10B14FF0FF3008BDED
:103D4000002008BD2DE9F04105460E4600200C4F2D
:103D500013E0295C795C491CC9B24418B44203D908
:103D60006FF00500BDE8F081284600F097FA0028C2
:103D7000F8D12046295C0029F4D0B042E9D3F1E71C
:103D80007BA5000830B40C4604F00F012409A41EE2
:103D90000C2C22D2DFE804F0090C0F121518211B9D
:103DA000211E210630BC00F047B830BC00F02BB813
:103DB00030BC00F0DDB830BC00F047B830BC00F0DB
:103DC00070B830BC00F0A0B830BC00F054B830BCC3
:103DD00000F012BA30BC00F037BA30BC6FF003000C
:103DE0007047012200F07F030B70C00948B143F017
:103DF000800301F8013B521C042AF3DD4FF0FF3031
:103E000070471046704730B46FF00304002901D1A9
:103E1000022B02D0204630BC704711785278CB0775
:103E200000D00AB9052A01D92046F4E7D0E90934BF
:103E3000A44630BC18466047194302D06FF0030017
:103E40007047D0E907211046084770B50446104670
:103E50006FF00305002901D1022B01D0284670BD67
:103E600000F0E6FB014621B1D4E90D02BDE8704047
:103E70001047284670BD70B5044610466FF0030524
:103E8000002901D1022B01D0284670BD00F0D0FBE3
:103E9000014621B1D4E91302BDE87040104728461D
:103EA00070BD70B5064688B010466FF00304002957
:103EB00001D1022B02D0204608B070BD00F0B8FB43
:103EC000054685B1D6E90F02294690470446002CE5
:103ED00018DB6846FFF742FC2946684600F07EFA88
:103EE000044614B10BE02046E6E70022694630465E
:103EF00000F013FC0799884201D06FF00D0468466A
:103F0000FFF72AFC2046D7E770B5064688B0104672
:103F10006FF00304022901D1022B02D0204608B021
:103F200070BD00F085FB054685B1D6E91102294632
:103F300090470446002C18DB6846FFF70FFC294623
:103F4000684600F007FA044614B10BE02046E6E7A5
:103F500000226946304600F0E0FB0799884201D014
:103F60006FF00D046846FFF7F7FB2046D7E7000027
:103F70002DE9FF4F8DB081469B4601F008000C9063
:103F8000C1F3410801F0010000210B91002700243A
:103F900025468BA10991BBF1020F03D2201F11B05E
:103FA000BDE8F08F10B16FF00300F8E70F9800F054
:103FB0003FFB0646B01C834502D26FF00300EEE7DC
:103FC000B8F1000F08D0B8F1010F1BD0B8F1020F03
:103FD00018D06FF00300E2E70C9810B16FF0030007
:103FE000DDE70F993246891C0F98FCF75FF9ABEBC0
:103FF000060BABF1020BDDF83CA00AEB0600801CBF
:104000000A9018E0DDF83CA00AF1020A301D58457C
:1040100002D96FF00300C2E70F9830440246801CBB
:1040200000F006FB0B900B9888B1ABEB060BABF1E5
:10403000040B121D0A9200200AF806003146504671
:10404000FFF780FEB04205D06FF00300A7E76FF0E6
:104050000300A4E7504604E02B2921D023291FD0D8
:10406000401C01780029F7D19AF8000031281AD0B5
:104070000C98CDF80880CDE900B0D9E90B04DDE952
:104080000A315246A0470746002F72DB01A8FFF70E
:1040900065FBB8F1010F75D0B8F1020F77D16BE075
:1040A0006FF003007BE747A15046FCF73DF94A4E0D
:1040B000D0B30AF1100A49495046FCF735F9B8B1B6
:1040C00047A15046FCF730F90028DDD00A980C993A
:1040D000CDF81880CDE904B103900998CDE90045E9
:1040E0000290D9E9190352460B9998470746CBE746
:1040F00096F8C2008007C7D439A15046FCF714F9DE
:104100000028C1D00A980C99CDF81880CDE904B1E7
:1041100003900998CDE900450290D9E91903524668
:104120000B9998470746AFE7FFE72FA15046FCF7EA
:10413000FBF80028A8D096F8C2008007A4D40AF1A2
:104140000F0A27A15046FCF7EFF800289CD00A98E8
:104150000C99CDF81880CDE904B103900998CDE908
:1041600000450290D9E9190352460B999847074632
:104170008AE723E006E00AE001A80B9900F00CF9B9
:10418000074604E001A80B9900F0C2F807466FF05B
:104190000D0467B9B8F1000F09D0002201A9484603
:1041A00000F0BBFA0899884205D0274603E0B8F131
:1041B000000F00D0274601A8FFF7CEFA3846EEE6FA
:1041C000000000003130303232302F7373625F757F
:1041D0007569642F00000000060100208C08002093
:1041E0002F646F776E0000003130303232302F7123
:1041F000745F757569642F002DE9F04105466FF015
:104200000306002901D1022B02D23046BDE8F0811D
:10421000104600F00DFA0146080002D0901CD41898
:1042200008E03046F2E7077817F07C0F01D03046FF
:10423000ECE7401C8442F6D8D5E91504A446BDE855
:10424000F0419B1E921C604770B5044610466FF00B
:104250000305002901D1022B01D0284670BD00F0D2
:10426000E7F9014621B1D4E91702BDE870401047D3
:10427000284670BD70B504460D466C212046FCF7FB
:104280003CF8284604F0C8FF206020B14119616065
:10429000A060002070BD4FF0FF3070BD03465A187B
:1042A0006FF0050001292AD002290DD0032906D07C
:1042B00004292CD112F8011D8039402927D212F887
:1042C000011D8039402922D212F8011CA1F180027F
:1042D000402A1CD21A78E02A06D0ED2A07D0F02A0C
:1042E00008D0F42A0BD108E0A02910D307E09F29B9
:1042F0000DD804E090290AD301E08F2907D8197856
:10430000A1F18002422A02D3F42900D8002070478C
:1043100070B505460C46002C16D004212846FFF740
:1043200096F903469BB159684020087059680220ED
:10433000487059682046891C00F039FA1946284609
:10434000FFF7FBF9002070BD6FF0060070BD4FF065
:10435000FF3070BD70B505460C46002C16D0042108
:104360002846FFF774F903469BB15968702008701E
:1043700059680220487059682046891C00F017FAD5
:1043800019462846FFF7D9F9002070BD6FF00600E6
:1043900070BD4FF0FF3070BD70B505460C46002C67
:1043A00016D004212846FFF752F903469BB15968FD
:1043B0005020087059680220487059682046891CAE
:1043C00000F0F5F919462846FFF7B7F9002070BD4F
:1043D0006FF0060070BD4FF0FF3070BD70B5054640
:1043E0000C46002C15D004212846FFF730F903466F
:1043F0006220596808705968022048705968204640
:10440000891C00F0D4F919462846FFF796F90020D8
:1044100070BD6FF0060070BD2DE9FF4F81B0904672
:10442000DDE90E79109E02986FF0060A002801D08F
:10443000002408E0504605B0BDE8F08F23280FD0D7
:104440002B280DD0641C18F804000028F6D1214652
:104450004046FFF777FCA04204D06FF00500EAE782
:104460005046E8E705210198FFF7F1F805464FF0BF
:10447000FF3B9DB169683020087016B16868312132
:104480000170E619B61CB9F1000F16D0B9F1010F91
:1044900006D0B9F1020F0AD05046CCE75846CAE719
:1044A0006868017841F002010170B61C05E0686897
:1044B000017841F004010170B61C69683046491C5E
:1044C000FFF78FFC002802DA6FF00700B3E7401C0B
:1044D0002860F11B0198FFF7BAF80646F6B170683C
:1044E0000090A2B24146684600F08FF8B9F1000F83
:1044F00003D00099029800F05AF929460198FFF775
:104500001CF931460198FFF718F92FB13A46119B73
:1045100004990198FFF7ECF800208CE758468AE7E9
:104520002DE9FF4F81B091460E9F984600250298D5
:104530006FF0060B002801D0002417E0584605B0A4
:10454000BDE8F08F58F824606EB13046FBF708FFE5
:104550008246554451463046FFF7F4FB504504D09F
:104560006FF00500EBE75846E9E7641CBC42E9DB65
:1045700005210198FFF76BF806464FF0FF34BEB1F6
:10458000716880200870781C05EB4005AD1C294639
:104590000198FFF75CF882465FEA0A000AD071686A
:1045A0002846491CFFF71DFC002805DAE000C6E795
:1045B0002046C4E72046C2E7401C3060DAF8041009
:1045C0000091029800F0F3F80098801C00900024FD
:1045D0000FE058F824502846FBF7C2FE82B2294665
:1045E000684600F012F8009880F80090401C009097
:1045F000641CBC42EDDB31460198FFF79EF8514642
:104600000198FFF79AF8002099E770B504460B4629
:1046100015462846216800F0CAF820682A46801C02
:104620001946FBF743FE2068AD1C2844206070BD8E
:104630004178007841EA00207047F0B50446012334
:10464000002010605D0512E0275C166807F07F0708
:1046500007FB03661660265C360601D4401CF0BDDD
:10466000DB01AB4202D36FF00100F0BD401C884279
:10467000EADB4FF0FF30F0BDF8B5044600200090B3
:10468000D4E90101421AD4E903039847002803D072
:1046900007DA6FF00200F8BD2068A0606FF001003B
:1046A000F8BDA1680844A0606168884202D96FF033
:1046B0000800F8BD2568A068411B022920DB491EBF
:1046C0006A46681CFFF7B9FF0646701C18D0B01C7C
:1046D00013D0009BA168E8183044401C88420FD8D2
:1046E000AA19521C29782046FFF74CFB0028E0DB72
:1046F0000098304405446D1CDDE76FF00300F8BD01
:104700002068A84207D22E1A32462946FBF7CEFD72
:10471000A068801BA0600020F8BD2DE9F04781460D
:104720009246C869504502D80020BDE8F0870C6861
:10473000002602E020680644A4680CB15645F9D36F
:10474000A046002701E07F1CA468002CFBD19FB18C
:10475000F80004F061FD054628000FD0D8F80410D9
:10476000AAEB060001442960D8F80010081A686016
:104770000120D8F808300DE00020D6E74FF0FF30D8
:10478000D3E7596845F8301005EBC002196851604D
:10479000401C9B68002BF4D1D9E905033A46294611
:1047A00098470446284604F0BFFF2046BDE7020AAA
:1047B0000A7048707047000010B51D4B1D4C002852
:1047C00011D001281BD0022825D003282FD1012287
:1047D00011461846FDF709FA20460122BDE81040AF
:1047E0008021FDF702BA002201211846FDF7FDF9EC
:1047F00020460022BDE810408021FDF7F6B90122D5
:1048000011461846FDF7F1F920460022BDE8104098
:104810008021FDF7EAB9002201211846FDF7E5F9EC
:1048200020460122BDE810408021FDF7DEB910BD11
:10483000000C01400008014070B586B000200290D5
:104840000390049005901D48816941F00801816141
:10485000816901F008010191816941F004018161E0
:10486000806900F004000190154D002201212846C6
:10487000FDF7BBF9134E002280213046FDF7B5F954
:104880000124029403940494059402A92846FDF798
:10489000A5F88020029003940494059402A9304660
:1048A000FDF79CF8012211462846FDF79EF90122EA
:1048B00080213046FDF799F906B070BD0010024026
:1048C000000C01400008014000F092B82DE9F041D1
:1048D00086B0002002900390049005901F488169E3
:1048E00041F008018161816901F00801019181694C
:1048F00041F004018161806900F004000190184FCB
:104900004FF48076002231463846FDF76EF9DFF825
:1049100054803501002229464046FDF766F902968B
:10492000012403940494059402A93846FDF756F82F
:10493000029503940494059402A94046FDF74EF8AD
:10494000012231463846FDF750F9012229464046FA
:10495000FDF74BF906B0BDE8F08100000010024001
:10496000000C01400008014070B504464FF49675F4
:1049700000F064F838B1284602F01DFD641EA4B2B0
:10498000F6D2002070BD0348034A30F8041B918022
:1049900070BD000058470020FE000020024800883B
:1049A000C0F3C32070470000FE00002010B5FFF7E1
:1049B0008DFF0848018821F40041018000F024F8AF
:1049C0004FF47A70FCF70AFCBDE81040142102484D
:1049D00000F02AB8FE0000208C08002000F024B867
:1049E00002490A8860F3CE220A807047FE00002048
:1049F00004480021018041804FF4C871001DFBF77D
:104A00007CBC00005847002010B5FEF7E7FD0122EE
:104A100003490448FEF7F0FABDE81040FFF7E8BF8D
:104A2000EC480020780700200A4601464FF6FF7345
:104A30000148FEF719BB00007807002006490888E6
:104A4000002804D04A88904203D1002070470120FA
:104A50007047488001207047584700200024FFF726
:104A6000A5FF0120FFF7BCFF0D4D40F6B83695F8C5
:104A7000C200810707D4641CA4B2B4420BD900F071
:104A8000D3FB002407E0C10705D140F0010085F801
:104A9000C20000F099FE142002F08DFCE7E7000050
:104AA00006010020FEE700002DE9FE4F02F03AFB70
:104AB0000546280066D0FBA102F012FB0069FBA1AD
:104AC000FBF732FC4FF0000B10B1FA4880F800B051
:104AD000F9A1284602F004FB0446200057D0F8480C
:104AE000FBF73EFC1D3004F097FBF6A1FBF73FFC03
:104AF000F349FBF70DFCF8A1FBF70AFC0290FAA1C1
:104B00002069FBF711FCEB4EFA4F761C002843D0CE
:104B1000F9A1284602F0E4FA0446200031D0F8A1B9
:104B200002F0DEFA01460029F8D0D1E906010022A0
:104B3000F64BFBF7BDFDFBF76AFEFCF755FC0020CA
:104B4000394602F037FA0246F1A1204602F0F2F9A6
:104B5000D6A002F049FA0246D2A1284602F03CFB58
:104B6000284602F015FB04462146029800F044FC5A
:104B7000204604F0D9FD16F8C20F20F01C00001DDD
:104B80003070E8E2E5A1EB4801F09BFCE6E2EAA127
:104B9000E84801F096FCE1E2F0A12069FBF7C4FBD4
:104BA000002838D0D4A1284602F09AFA0446200002
:104BB000E7D0EDA102F094FA0028E2D0007DC0B267
:104BC000FCF7A8FD0746E8A1204602F03BFA38466C
:104BD000FBF7FCFD02F0EEF90246CDA1204602F003
:104BE000A9F9B2A002F000FA0246AEA1284602F0EE
:104BF000F3FA284602F0CCFA04462146029800F067
:104C0000FBFB204604F090FD16F8C20F20F01C00BC
:104C1000001D30709FE2D6A12069FBF785FB0028BC
:104C20004BD0B5A1284602F05BFA8146B9F1000FDE
:104C3000A7D0D3A1484602F053FA82465FEA0A00A1
:104C40009FD002F045FA8046B8F1020F99D1CDF815
:104C500004B000240DF1040B07E02146504602F099
:104C60002EFA808A2BF81400641C4445F5DB01A859
:104C7000FCF7FEFA0020394602F09CF90246A4A196
:104C8000484602F057F989A002F0AEF9024685A124
:104C9000284602F0A1FA284602F07AFA0446214694
:104CA000029800F0A9FB204604F03EFD16F8C20F62
:104CB00020F01C00001D30704DE2B4A12069FBF70C
:104CC00033FBA8B38CA1284602F00AFA0446200060
:104CD000A0D0CDF804B001A8FCF7E8FB0646BDF86B
:104CE0000400FBF773FD02F065F90246AAA1204615
:104CF00002F020F93046FBF769FD02F05BF902464D
:104D0000A6A1204602F016F968A002F06DF902464D
:104D100064A1284602F060FA284602F039FA0446F7
:104D20002146029800F068FB204604F0FDFC12E2E8
:104D3000FFE79CA12069FBF7F7FA60B36EA1284654
:104D400002F0CEF904462000B6D097A102F0C8F9CF
:104D50000028B1D0808A80B2FCF76EFBFBF736FDED
:104D600002F028F902466AA1204602F0E3F84FA0BB
:104D700002F03AF902464BA1284602F02DFA2846E5
:104D800002F006FA04462146029800F035FB204660
:104D900004F0CAFCDFE185A12069FBF7C5FAA8B3DE
:104DA00055A1284602F09CF90446200084D0CDF895
:104DB00004B001A8FCF754FA0646BDF80400FBF75E
:104DC00005FD02F0F7F802467BA1204602F0B2F89A
:104DD0003046FBF7FBFC02F0EDF802466FA12046DF
:104DE00002F0A8F831A002F0FFF802462DA12846F3
:104DF00002F0F2F9284602F0CBF904462146029867
:104E000000F0FAFA204604F08FFCA4E1FFE76CA161
:104E10002069FBF789FAE8B337A1284602F060F968
:104E20000446002CB6D069A1204602F059F9064686
:104E30003000AFD0002102F042F901468069C96913
:104E4000FBF704FDADF804000121304602F037F90C
:104E500001468069C969FBF7F9FCADF8060001A8B5
:104E6000FCF748FAFBF7B2FC02F0A4F8024628A1CE
:104E7000204602F05FF80DA002F0B6F8024609A144
:104E8000284602F0A9F9284602F082F90446214694
:104E9000029800E09EE000F0AFFA204604F044FCE7
:104EA00059E1000074797065000000007265706C53
:104EB00079000000050100206D6574686F640000D2
:104EC0008C0800203130303232302F7373625F75BE
:104ED0007569642F000000002F66756E6374696F3A
:104EE0006E2F75700000000053796E635F54696D1A
:104EF000650000000000F03F706172616D7300009A
:104F000054696D657374616D7000000000408F40DE
:104F1000657865635F726573756C740043616E27B5
:104F2000742066696E642076616C696420636D64C8
:104F30000D0A00007807002043616E27742066691F
:104F40006E642076616C6964206D6574686F64209E
:104F50006B65793A76616C75650D0A004368675F29
:104F60004C677444697200004C67745F4469720056
:104F700053656E645F47726F7570496E666F0000AF
:104F800047726F7570496E666F000000526561640C
:104F90005F445550000000004475700072657375E1
:104FA0006C7400004368675F44555000526561644B
:104FB0005F465756657200004677566572000000DE
:104FC0004368675F4465764C6F6300004465765FB5
:104FD0004C6F630064A12069FBF7A6F9D0B3AFF270
:104FE000E801284602F07CF80446200031D0CDF8D4
:104FF00000B0CDF804B06846FCF772F9064602210D
:10500000684601F0B7FF0246AFF24001204601F0CA
:1050100091FF3046FBF7DAFB01F0CCFF0246AFF21E
:105020008401204601F086FFAFF2801001F0DCFF22
:105030000246AFF29011284602F0CEF8284602F060
:10504000A7F804462146029800F0D6F9204604F05D
:105050006BFB80E0FFE747A12069FBF765F90028BB
:1050600079D147A12069FBF75FF9E8B3AFF2781176
:10507000284602F035F8044620006CD044A102F026
:105080002FF80646300066D0002102F018F80146DD
:105090008069C969FBF7DAFBADF8040001213046ED
:1050A00002F00DF801468069C969FBF7CFFBADF846
:1050B000060001A8FCF760F8FBF788FB01F07AFF17
:1050C0000246AFF2B411204601F034FFAFF22420C3
:1050D00001F08AFF0246AFF23421284602F07CF844
:1050E000284602F055F800E008E004462146029800
:1050F00000F082F9204604F017FB2CE027A120697C
:10510000FBF712F938B3AFF21021284601F0E8FF9F
:10511000044604B30020394601F04CFF0246AFF2CA
:105120001021204601F006FFAFF2802001F05CFF65
:105130000246AFF29021284602F04EF8284602F0CF
:1051400027F804462146029800F056F9204604F05C
:10515000EBFAFCF7B3F9029804F0E6FA2846BDE84A
:10516000FE4F01F04FBF0000526561645F446576F9
:105170004C6F63005570646174655F467700000092
:1051800053656E645F41626E4576744C6F630000D8
:1051900041626E4576745F4C6F6300005265626FCA
:1051A0006F745F44657669636500000010B501F0B7
:1051B000B9FF0446200019D00FA101F091FF80B182
:1051C0000069002104F00EFA00220E4BFBF770FA82
:1051D000FBF73CFBFCF708F90B48017841F00201B2
:1051E00001702046BDE8104001F00CBF07A10D483A
:1051F00001F067F9F5E7000074696D657374616D1E
:105200007000000000408F40C801002043616E27FD
:10521000742066696E642076616C696420636D64D5
:105220000D0A0000780700207FB504F047FA01F06E
:10523000D3FE044646A001F0D7FE024645A1204613
:1052400001F078FE45A001F0CFFE024645A12046C0
:1052500001F070FE45A001F0C7FE024644A12046C1
:1052600001F068FE0020009001900290039000F091
:10527000A3FD02460B463FA1684601F023F96846AC
:1052800001F0B2FE02463DA1204601F053FE684601
:1052900001F0AAFE02463AA1204601F04BFE3BA0D7
:1052A00001F0A2FE02463BA1204601F043FE01F0C0
:1052B00093FE0546394801F097FE024638A128467C
:1052C00001F038FE2A4637A1204601F033FE204681
:1052D00001F05EFF0546204601F094FE2F48FBF7E3
:1052E0003FF8193003F098FF04462046FBF738F8E2
:1052F00001462046FBF701F82CA12046FBF737F8C2
:105300002649FBF705F82EA1FBF702F806462A46C8
:105310002E493046FEF7FAFB2C4C703488B12CA194
:10532000344801F0CEF8304604F0FEF9284604F087
:10533000FBF92046FEF71CFA04F0E0F904B0002067
:1053400070BD224800222146001DFFF7E6F9EAE77A
:10535000312E300076657273696F6E006576656E0A
:1053600074000000747970650000000031000000D6
:1053700061636B00256C6C640000000069640000D0
:1053800074696D657374616D700000004F6E4C69D7
:105390006E6500006D6574686F6400008C08002005
:1053A0004D616300706172616D73000031303032A5
:1053B00032302F7373625F757569642F00000000CF
:1053C0002F6576656E742F7570000000F848002018
:1053D0005741524E3A09094D71747453616D706CA6
:1053E000655F5361766564617461204661696C65CF
:1053F000640D0A007807002070B505460C46124877
:1054000090F8C200C00703D0FFF7C8FA012801D006
:10541000012070BDFFF758FA0CA1114801F051F8B6
:10542000224610492846FEF771FB0E4C703428B90D
:1054300000222146A4F16C00FFF76FF92046FEF729
:1054400097F9002070BD0000060100204F6E654EE8
:1054500065745F5075626C6973680D0A0000000026
:1054600078070020F84800207FB568490878401C7C
:10547000C0B20870491C052805D991F8C20020F077
:10548000010081F8C20091F8C200C0077ED004F08C
:1054900015F901F0A1FD05465DA001F0A5FD02464C
:1054A0005CA1284601F046FD5CA001F09DFD02468E
:1054B0005DA1284601F03EFD5DA001F095FD02468C
:1054C0005CA1284601F036FD00240094019402946A
:1054D000039400F071FC02460B4657A1684600F0A9
:1054E000F1FF684601F080FD024655A1284601F013
:1054F00021FD684601F078FD024652A1284601F0E0
:1055000019FD46A001F070FD024651A1284601F0A8
:1055100011FD01F061FD06464F480068FBF7AFF949
:1055200001F048FD02464DA1304601F003FD4E4812
:105530000068FBF7A4F901F03DFD02464BA130469F
:1055400001F0F8FC4C480068FBF72FF901F032FD40
:1055500002464AA1304601F0EDFC49480068FBF7DD
:1055600024F901F027FD024646A1304601F0E2FC95
:1055700046480068FBF719F901F01CFD024644A1FA
:10558000304601F0D7FCFCF7C7F800E034E0FBF749
:105590001DF901F00FFD02463FA1304601F0CAFCA3
:1055A0003F4801F021FD02463EA1304601F0C2FC19
:1055B00032463DA1284601F0BDFC284601F0E8FD39
:1055C0000646284601F01EFD31463948FEF7D2FA5C
:1055D000374D703590B137A13F4800F072FF30462B
:1055E00004F0A2F804F08AF82846FEF7C1F83B4818
:1055F0000470002004B070BD0120FBE72C4800229D
:105600002946001DFFF789F8E9E7000005010020A1
:10561000312E300076657273696F6E0070726F7034
:1056200065727479000000007479706500000000F4
:105630003100000061636B00256C6C6400000000A9
:105640006964000074696D657374616D70000000B9
:105650006D6574686F640000E000002054656D7033
:105660005F456E7600000000E400002048756D691B
:105670005F456E7600000000DC000020434F3200E2
:10568000E8000020504D322E35000000EC000020D4
:10569000504D3130000000004C67745F4469720067
:1056A0008C0800204D616300706172616D730000B1
:1056B000F84800205741524E3A09094D717474530D
:1056C000616D706C655F53617665646174612046DD
:1056D00061696C65640D0A007807002004010020F0
:1056E0002DE9F04FE5B000F02DFBDFF8D0A04FF42E
:1056F0007A72BAF800105143B0FBF1F201FB1200CC
:105700002F4A304C4FF0000913884FF4C87B5BB12F
:1057100052884AB1B1FBF3F1521E51438DB205F5E7
:1057200048711FFA81F841E0206880B18568C0F8AF
:10573000089001888AB2416801A8FAF7B7FD20688D
:10574000406803F0F1FF206803F0EEFF2560594642
:1057500001A8FAF7D2FD2DE02068C0B18768C0F833
:10576000089001888EB24168324601A8FAF79EFD82
:105770002068406803F0D8FF206803F0D5FF276059
:10578000314601A8FFF72AF9962001F014FE594688
:1057900001A8FAF7B2FD00F0D5FABAF800104FF4FC
:1057A0007A725143B0FBF1F201FB1200A84201D31F
:1057B0004045D1D965B00020BDE8F08F340000200D
:1057C00038000020D80000207FB52948D0E9001219
:1057D0008068CDE9011203900024264890F8C200A9
:1057E000C0072FD023490020491E0870FFF76CF82E
:1057F0002148FAF7B5FD1E3003F00EFD00901F4E54
:1058000001AD0098FAF7ACFD01460098FAF775FD76
:105810001BA10098FAF7ABFD00901749FAF778FD45
:10582000009055F82410FAF773FD009019A1FAF7CB
:105830006FFD00901148012269467038FEF774FA36
:1058400018B108E0012004B070BD0C4800223146B8
:105850006C38FEF762FF3046FDF78AFF641CE4B245
:10586000032CCED3009803F05FFF0020EBE700008D
:1058700090A60008060100208C080020684900203E
:105880003130303232302F7373625F757569642F37
:1058900000000000646F776E0000000010B586B055
:1058A000002002900390049005901048816941F017
:1058B00008018161806900F0080001900C4C002211
:1058C00004212046FCF791F9042102910121039162
:1058D0000491059102A92046FCF780F801220421D9
:1058E0002046FCF782F906B010BD0000001002400F
:1058F000000C014070B50524022000F0B1F8124EF2
:10590000124D0BE000F054F828B100F079F810B116
:10591000687802280BD0642001F04DFD641EE4B2CB
:10592000F0D24FF0FF3070603060002070BDE8783A
:10593000A97840EA012070606879297940EA01205D
:105940003060012070BD0000E800002038470020D2
:105950000348002120F8041B6421FAF7CEBC0000A4
:10596000D046002010B5FDF755FE642205490648D3
:10597000FDF736F9FFF7ECFFFFF790FFBDE81040A9
:10598000FEF75ABFD44600200008002070B5054637
:105990000C460120FEF710FF22462946BDE8704064
:1059A0004FF6FF730148FDF75FBB000000080020C1
:1059B00003480088002801D001207047002070476C
:1059C000D046002010B50346002009290AD800213E
:1059D0005A5C104480B2491C0629F9DB197A084444
:1059E00080B210BD0022891E03E09C5C204480B27E
:1059F000521C8A42F9DB10BD072000F031B80000CC
:105A000010B590B0002415490A88092A21D3091D30
:105A100001A8FAF74BFC9DF80400AA2819D19DF8BB
:105A20000C00BB2815D1062101A8FFF7CBFF9DF87C
:105A30000B109DF80A2041EA0221884209D1012178
:105A4000064A01AB6832585C50540124491C0629AF
:105A5000F9DBFFF77DFF10B0204610BDD0460020D7
:105A600010B5094C607006212046FFF7ABFF010A14
:105A7000A171E0710924FFF76BFF2146BDE81040DA
:105A80000148FFF783BF0000F400002010B5064C6A
:105A9000A068FFF767FF642001F08DFCA068BDE8F7
:105AA0001040FFF7A9BF0000E8000020034921F8DB
:105AB000040B64220248FDF793B80000D046002092
:105AC0000008002008B507494FF4FA520968B1FBF5
:105AD000F2F14143009100BF0098411E0091FAD2BB
