:020000040800F2
:10000000E84D002099010008DD400008B1270008F4
:10001000352C0008F50C0008C54E00080000000053
:1000200000000000000000000000000001010008C6
:10003000F70C00080000000045010008F94A00081C
:10004000B3010008B3010008B3010008B3010008C0
:10005000B3010008B3010008B3010008B3010008B0
:10006000B3010008B3010008B3010008B3010008A0
:10007000B3010008B3010008B3010008B301000890
:10008000B3010008B3010008B3010008B301000880
:10009000B3010008B3010008B3010008B301000870
:1000A000B3010008B3010008B3010008B301000860
:1000B000A54B0008B3010008B3010008B301000814
:1000C000B3010008B3010008B3010008B301000840
:1000D000B3010008654E0008B3010008B301000831
:1000E000B3010008B3010008B3010008DFF80CD029
:1000F00000F050FD00480047015C0008E84D00207A
:10010000224B19680868B0E8F00F80F30988BFF344
:100110006F8F4FF0000080F311884EF00D0E704786
:100120000000000006480068006880F3088862B696
:1001300061B6BFF34F8FBFF36F8F00DF00BF00BF0B
:1001400008ED00E0EFF30980BFF36F8F0F4B1A68E3
:1001500020E9F00F106008B54FF0500080F31188CF
:10016000BFF34F8FBFF36F8F07F074FF4FF00000A6
:1001700080F31188BDE8084019680868B0E8F00FFE
:1001800080F30988BFF36F8F704700BF34000020F1
:10019000EFF3058070470000064880470648004797
:1001A000FEE7FEE7FEE7FEE7FEE7FEE7FEE7FEE727
:1001B000FEE7FEE7A14B0008ED000008202A04DB63
:1001C000203A21FA02F00021704721FA02F3D040D0
:1001D000C2F1200291400843194670470048704719
:1001E000248D0008A0F14101192900D82030704762
:1001F00038B5D0E90221491E01EB410102EBC101F2
:100200004268C1EB011102EB81010268C1EB0111EF
:1002100002EB8102D0E9043101EB410103EB8101E2
:100220003023A1F5527191FBF3F4174D6C4302EBAF
:10023000C41291FBF3F403FB141100921A2902DBA0
:10024000124B1A4400920C2291FBF2F3104C6343C0
:10025000009C04EBC313009391FBF2F302FB131118
:100260000C4A08E0491E40F2A324535C6343009CFF
:1002700004EBC31300930029F4DC0146684600F048
:1002800011FB009838BD00003F0C0F0080510100A9
:1002900067C20300288D000810B5431A934209D2A3
:1002A0008318881803E010F8011D03F8011D521E81
:1002B000F9D210BD40EA01039B0703D009E008C949
:1002C000121F08C0042AFAD203E011F8013B00F81B
:1002D000013B521EF9D210BDD2B201E000F8012B51
:1002E000491EFBD270470022F6E710B513460A46B6
:1002F00004461946FFF7F0FF204610BD30B505460D
:100300002A460B4612F8010B13F8014B08B1A04224
:10031000F8D01CB1002802D06D1CF1E7284630BD92
:10032000CAB2401E10F8011F8A4202D00029F9D13A
:1003300000207047421C10F8011B0029FBD1801AD5
:100340007047034611F8012B00F8012B002AF9D160
:100350001846704730B505460020034600E05B1C98
:10036000934205D2EC5CC85C201A01D1002CF6D176
:1003700030BD80EA010210B502F00043400022D0F7
:100380004A001FD0010E01EB1261C0F35600C2F308
:10039000560240F4000042F40002A0FB02200004D8
:1003A0007F39140400D0401C50EA124001D44000B0
:1003B000491EC2B20C0604EBD010401C4008802A33
:1003C00002D003E0002010BD20F00100002900DA77
:1003D0000020184310BD30B480EA010202F000454D
:1003E00030F0004221F0004013D090B1C30DD40D85
:1003F000C2F31601C0F31600E41A41F4000140F400
:1004000000027D34914201D3641C00E04900002CBD
:1004100002DA30BC002070474FF400000023914204
:1004200001D3891A034340084FEA4101F7D151B182
:10043000914202D14FF0004105E002D24FF001019C
:1004400001E06FF0010103EBC450284430BC00F020
:100450006FBA2DE9FE4F804681EA0300C00F0C46BB
:10046000009021F0004123F00045B8EB0200A941C3
:1004700005D24046214690461C460B46024623F0D4
:100480000040104347D0270DC7F30A00C3F30A51B9
:100490000290401A019040286BDAC3F3130040F435
:1004A000801B0098924620B10023D2EB030A63EB35
:1004B0000B0B01985946C0F14002504600F0CBF9B1
:1004C00006460D4650465946019A00F0D3F910EB06
:1004D00008006141002487EA115284EAE7731A4355
:1004E00040D0009A62B3019A012A4FEA075215DC04
:1004F000001B61EB02014FF0004202EA0752CDE916
:100500000042001C41F5801132462B4600F056FA9D
:1005100003B0BDE8F08F40462146F9E7001B61EBD0
:100520000201001C41F5801300185B412018A2F560
:10053000001747EB030140EAD570B6196D4111E091
:100540006D084FEA360645EAC0754FEA0752001BB0
:1005500061EB0201001C41F5801149084FEA3000AF
:100560000019514132462B4603B0BDE8F04F00F070
:1005700016BA0098012240000023D0EB020263EB80
:10058000E073009821464FEAE074B8EB000061EB9D
:100590000401E9E783F000435BE781F0004158E79D
:1005A0002DE9FE4F81EA030404F0004421F00041EC
:1005B00000944FF0000B23F0004350EA01045ED09A
:1005C00052EA03045BD0C3F30A54C1F30A552C4426
:1005D000A4F2F3340194A0FB0254C1F3130141F4DB
:1005E0008011C3F3130343F4801301FB024400FBA7
:1005F000034E840A970A44EA815447EA8357A4FBCE
:10060000076802958D0A05FB07854FEA932C04FBCA
:100610000C542705029D4FEA065847EA1637B5EBFA
:1006200008056EEB070C870E920E47EA811742EA27
:100630008312A7FB0201B6EB0B0164EB00042B0D48
:1006400043EA0C335E1844EB1C50DA465146E7FB94
:100650000201C5F313044FEA0B3343EA14534FEA84
:100660000432019C43EA0603A4F10C040294009CAA
:10067000CDE900B400F0A2F903B0BDE8F08F00208E
:100680000146F9E7C10F80EAE0700844CA079623E3
:10069000002100F056B996230022114600F051B90E
:1006A0000EB5C10F80EAE0700844CA07002140F28D
:1006B00033438DE80E000A460B4600F07FF903B085
:1006C00000BD0EB540F2334102910021CDE9001189
:1006D0000A460B4600F072F903B000BD20F000405E
:1006E000C10DC0F3160040F400007F2901DA00209C
:1006F0007047962903DCC1F19601C84070479639CE
:100700008840704770B5C1F30A5201F000450024DB
:10071000C1F3130140F2FF3341F480119A4201DA30
:10072000002070BD40F233439A42A2F2334203DC10
:100730005242FFF743FD00E090402C43F1D040428D
:1007400070BD00F0004230F000400AD0C10D01F54C
:100750006071C0F3160042EA0151C208400711431C
:10076000704700200146704730B5041E71F1000447
:1007700004DB4FF00044404264EB0101141E73F1AE
:10078000000405DB1C464FF00043524263EB0403B8
:100790008B4208BF824230BD30B5041E71F10004A7
:1007A00004DB4FF00044404264EB0101141E73F17E
:1007B000000405DB1C464FF00043524263EB040388
:1007C000994208BF904230BD30B50B46014600202B
:1007D0002022012409E021FA02F59D4205D303FA03
:1007E00002F5491B04FA02F52844151EA2F1010284
:1007F000F1DC30BD2DE9F05F0546002092469B46B6
:1008000088460646814640241BE028464146474626
:100810002246FFF7D3FC53465A46C01A914110D3E3
:1008200011461846224600F016F82D1A67EB01080B
:100830004F4622460120002100F00DF817EB000979
:100840004E41201EA4F10104DFDC484631462A4611
:100850004346BDE8F09F202A04DB203A00FA02F16B
:10086000002070479140C2F1200320FA03F319439E
:1008700090407047202A06DBCB17203A41FA02F05D
:1008800043EAE07306E041FA02F3D040C2F12002ED
:100890009140084319467047014900F003B8000031
:1008A000B844002010B500683C22B0FBF2F302FB14
:1008B0001303B0FBF2F00B60B0FBF2F302FB130387
:1008C000B0FBF2F018224B60B0FBF2F302FB130313
:1008D000B0FBF2F0021D8B600723B2FBF3F403FBC5
:1008E0001422800040F2B55300F66C308A61B0FBF0
:1008F000F3F2B0FBF3F403FB1400443280084A61C6
:10090000C8613B2802D3920700D0401C0022074C4C
:1009100013460A61E25C824203D8801A5B1C0B61B9
:10092000F8E7401CC860084610BD0000408D000874
:100930000029A8BF7047401C490008BF20F00100F3
:10094000704710B4B0FA80FC00FA0CF050EA0104D1
:1009500004BF10BC704749B1CCF1200421FA04F463
:1009600011FA0CF118BF012121430843A3EB0C013C
:10097000CB1D4FEA00614FEA102042BF002010BC9F
:10098000704700EBC35010440029A4BF10BC70474F
:10099000401C490008BF20F0010010BC704710B592
:1009A000141E73F1000408DA401C41F10001921892
:1009B0005B411A4301D120F0010010BD2DE9F04D3B
:1009C00092469B4611B1B1FA81F202E0B0FA80F290
:1009D00020329046FFF73FFF04460F4640EA0A00E8
:1009E00041EA0B0153465A46084313D0114653EAD5
:1009F000010019D0C8F140025046FFF7DFFB054661
:100A00000E46504659464246FFF725FF084305D09B
:100A1000012004E020463946BDE8F08D0020054362
:100A200046EAE0762C4337430A986305E40AA0EBD4
:100A300008000022FD0A44EA47540A3002D500208B
:100A40000146E9E7010510196941DDE9084500198A
:100A50006941BDE8F04DA2E72DE9F04D81EA0304BC
:100A600004F0004B21F0004514464FF0000A23F03B
:100A7000004150EA050220D054EA01021DD0C5F31E
:100A80000A570246C5F31303C1F31300C1F30A5614
:100A900040F4801543F48013A7EB0608101BD646DC
:100AA00008F2FD3873EB050002D308F1010801E0FC
:100AB00092185B41B8F1000F03DA00200146BDE84F
:100AC000F08D00204FF48011064684460EE0171B7F
:100AD00073EB050705D3121B63EB050306434CEAD2
:100AE000010C49084FEA300092185B4150EA0107B7
:100AF000EDD152EA030012D082EA040083EA050134
:100B0000084305D0101BAB4106D20122002306E0AA
:100B100000224FF0004302E06FF0010253101AEB85
:100B200006004CEB085110EB0A0041EB0B01BDE84D
:100B3000F04DFFF734BF70B521F0004303430CD0F4
:100B4000C1F30A550024D5EB040564EB0403D61762
:100B5000AD1AB34102DB0020014670BD201841EB05
:100B6000025170BDC1F30A52C1F3130140F2FF33C9
:100B700041F480119A4202DA00200146704740F2A7
:100B800033439A42A2F2334202DC5242FFF716BBD1
:100B9000FFF761BE064C074D06E0E06840F0010338
:100BA00094E8070098471034AC42F6D3FFF7A2FA56
:100BB0006C8E00088C8E00082DE9F04D00231A463B
:100BC0001B1A8A4103DB00200146BDE8F08DC1F30A
:100BD0000A52C1F3130141F480154FF0000BD10705
:100BE00002D100186D41521E0027044640F2FF1149
:100BF000384601EB620A3E468046024600204FF42A
:100C00008011FFF7DBFAC2197141BB1846EB0100F6
:100C1000B4EB030C75EB000C04D3E41A65EB000590
:100C200017460E46241908F101006D41804634280C
:100C3000E3DDF91946EB0600091BA84103D24FF08A
:100C4000FF32134601E0002213461BEB070046EB80
:100C50000A51BDE8F04DFFF7A2BE70B58C1810F830
:100C6000015B15F0070301D110F8013B2A1106D1F1
:100C700010F8012B03E010F8016B01F8016B5B1E0B
:100C8000F9D12B0705D40023521E0DD401F8013BE6
:100C9000FAE710F8013BCB1A921C03E013F8015B52
:100CA00001F8015B521EF9D5A142D8D3002070BDD6
:100CB00010B54188B1F57A7F16D202880C480388B6
:100CC0009A420FD14088814202D14FF0030005E0E3
:100CD00002D24FF0020001E04FF0010000F02AF9CB
:100CE000002010BDF8D2F4E74FF0030010BD000063
:100CF00018000020FEE7704770B54FF4FA76B0FB9D
:100D0000F6F1CCB2B0FBF6F106FB110504E030467B
:100D100000F02CF8641EE4B2002CF8D1002D04D0B1
:100D20002846BDE8704000F021B870BD70B54FF0A6
:100D3000E02500216C690B4A0B4B1268B2FBF3F300
:100D4000AA694343A8699042FCD002D2A2EB0002F8
:100D500002E0A4EB00063244114402469942F1D36A
:100D600070BD00003000002040420F00B0F5004F81
:100D700002D2401E00F080BA704700000149498845
:100D8000018070471400002070B504464088B0F51B
:100D90007A7F1ED2104D21882A88914202D169881B
:100DA000884214D00D4E02222146304603F01EFE2A
:100DB00002220949304603F00DFE28882188884226
:100DC00003D168886188884201D0012070BD00206D
:100DD00070BD032070BD00001800002000900008C6
:100DE00008B502226946084803F0F4FDBDF800107A
:100DF0004FF6FF72914206D0BDF80200904202D039
:100E0000024A1180508008BD0090000818000020A0
:100E1000FEB5144900206A4601EB8003D3F8E83799
:100E200042F82030401CC0B20328F5D300240E4DF8
:100E30000E4E01E0042C03D2C4F10301019802E03C
:100E40000098C4F10701C900C840C2B22A5506EB98
:100E5000440007A104F038F8641CE4B2082CE9D37C
:100E6000FEBD000000F0FF1F1C000020C80700208E
:100E70002532780001B582B002A8FFF70DFD017D93
:100E8000002264398DF80310017C491C8DF8011093
:100E9000017B8DF80210017A08318DF80410017978
:100EA0008DF8051000788DF8060001A9044801F0BE
:100EB000E1F800226946024801F07AF80EBD000010
:100EC000DC07002031B5BDF80000B0F5616F17D820
:100ED0000C4C2188884211D00B4D012269462846CE
:100EE00003F084FD01222146284603F073FD20888B
:100EF000BDF80010884201D0012038BD002038BD67
:100F0000032038BD140000200490000808B5012219
:100F10006946064803F05EFDBDF80000A0F57F417C
:100F2000FF3901D00249088008BD00000490000884
:100F3000140000202DE9F0414FF40041244C254DD0
:100F4000254F8E1040B1012811D0022824D003284B
:100F50002DD0FF20BDE8F0810022204600F0ECFA01
:100F600000220821284600F0E7FA002209E00122C9
:100F7000204600F0E1FA00220821284600F0DCFAC1
:100F800001220221204600F0D7FA002231463846DD
:100F900000F0D2FA0120DDE70022204600F0CCFA72
:100FA00001220821284600F0C7FA002209E00122A8
:100FB000204600F0C1FA01220821284600F0BCFAC0
:100FC00001220221204600F0B7FA0122DEE70000EC
:100FD00000080140000C0140001001402DE9F047DD
:100FE00086B00024294800940194029403948169F6
:100FF00041F010018161816901F010010491816962
:1010000041F004018161816901F004010491816969
:1010100041F0080181618069DFF8748000F0080008
:101020004FF40055049000222946404600F084FA0F
:10103000DFF8609048F2020700223946484600F087
:101040007BFADFF854A000220821504600F074FA21
:101050000095022601250396CDE9015469464046D4
:1010600000F07CF900970396CDE9015469464846A3
:1010700000F074F90820CDE90005CDE90246694683
:10108000504600F06BF906B0BDE8F0870010024052
:101090000010014000080140000C0140FFF79EBF16
:1010A000FFF748BF72B6FEE7064A0021D161064944
:1010B0000A6942F002020A614861086940F0400092
:1010C00008617047F007002000200240044B002216
:1010D000DA61044A136943F0010313610180704728
:1010E000F00700200020024014490020CA68D306FF
:1010F000134A04D5D06940F00200D0611020CB68BB
:101100005B0705D5D36943F00103D36140F00400C8
:10111000CB69DB0707D0D36943F00403D361CA6905
:1011200022F00102CA61A0F58072013A01D0C860C4
:101130007047C86920F00100C86170470020024074
:10114000F007002070B5044600F0FCF90546114E8A
:1011500009E0601C07D024B100F0F4F9401BA04264
:1011600001D9032070BDF068C007F2D1F068800695
:1011700001D52020F060F068C00605D4F069C007F2
:1011800002D1F068400703D5FFF7AEFF012070BD24
:10119000002070BD0020024010B590F82110002200
:1011A000022905D00421816380F82020012010BD90
:1011B00001680B6823F00E030B6001680B6823F0D5
:1011C00001030B6090F84030012404FA03F1C36B73
:1011D000596080F8214080F82020104610BD0000A2
:1011E00010B590F821100024022903D00421816356
:1011F00001243DE001680A6822F00E020A600168DD
:101200000A6822F001020A601A4A0168914201D17B
:10121000012121E0174A1432914201D110211BE033
:10122000144A2832914201D1891515E0114A3C3205
:10123000914201D189140FE00E4A5032914202D1FD
:101240004FF4803108E00B4A6432914202D14FF4EE
:10125000801101E04FF08071064A083A5160012187
:1012600080F82110002180F82010416B01B18847DF
:10127000204610BD0800024070B5044600F062F937
:101280000546601C02D004480078044400F05AF976
:10129000401BA042FAD370BD24000020034801691E
:1012A00041F08001016100207047000000200240F1
:1012B0002DE9F05F05461D4888460024017E16464C
:1012C0001F46012909D00121814601764CF2503A8E
:1012D0005046FFF737FF18B123E00220BDE8F09F2A
:1012E000012D02D0022D00D00425D346DFF840A006
:1012F00015E0220130463946FEF760FF81B208EB67
:101300004400FFF7E3FE5846FFF71CFFDAF8102011
:1013100022F00102CAF8102018B9641CE4B2AC42F1
:10132000E7D3002289F81820D8E70000F007002052
:1013300000200240064900200A69120607D5054A26
:101340004A60054A4A600969090600D501207047CC
:101350000020024023016745AB89EFCD2DE9F84F0E
:10136000DFF8A491002409F1040A0AF1040B2346D2
:101370004FF00F080BF1040EBEE00127A7403A40E2
:10138000BA4272D1DFF884C14D68A5EB0C06654501
:101390002BD00DDC032D34D005DC35B3012D19D055
:1013A000022D2FD11BE0112D16D0122D2AD119E0BC
:1013B000B6F5881F19D006DCB6F5803F15D0B6F516
:1013C000801F1FD111E0B6F5001F0ED0B6F5041F27
:1013D00018D10AE0CB6815E0CB681B1D12E0CB6882
:1013E00008330FE0CB680C330CE08B682BB1012B7A
:1013F0004FF0080303D0476104E0042302E00761D3
:1014000000E00023FF2A01D8064601E000F10406AF
:101410004FEA840501D9A5F12005376808FA05FCD3
:1014200027EA0C0703FA05F547EA050737604D6818
:10143000ED0060D5364DAE6946F00106AE61AD698E
:1014400024F0030605F001050095324D7719BE68BA
:10145000A5072D0F08FA05FC26EA0C06DFF8B8C030
:10146000604503D14FF0000C17E044E0DFF8ACC05A
:10147000604502D14FF0010C0FE0DFF8A4C06045D9
:1014800002D14FF0020C08E0DFF898C0604502D1AD
:101490004FF0030C01E04FF0040C0CFA05FC4CEA91
:1014A000060CC7F808C04D68D9F80060ED034D463A
:1014B00001D5164300E096432E604D68DAF80060CF
:1014C000AD03554601D5164300E096432E604D68A6
:1014D000DBF80060ED025D4601D5164300E096435F
:1014E0002E604D68DEF80060AD02754601D51643EA
:1014F00000E096432E60641C0A6832FA04F57FF41B
:101500003CAFBDE8F88F000000040140000011105E
:10151000001002400000014000080140000C0140A2
:101520000010014000140140C26821EA02030A4091
:1015300043EA0241016170470AB101617047090441
:10154000FBE700000148806870470000240000208D
:1015500002488168027811448160704724000020AD
:10156000074810B5016841F010010160032000F048
:101570008BF80F2000F006F800F03EF8002010BDB8
:101580000020024000B5014687B000221C2000F078
:101590005BF81C2000F04AF81448C16941F00101D1
:1015A000C161C06905A900F001000690684600F01D
:1015B000F5F900F013FA0E494000B0FBF1F10D48C7
:1015C0004FF08042491E0260416040F2E732002144
:1015D000C0E90321816000F0C4FD10B1012007B013
:1015E00000BD044800F0ECFDF9E7000000100240E7
:1015F00040420F00800700200B4882B0816941F013
:1016000001018161816901F001010091C16941F02D
:101610008051C161C069002200F0805000900F210C
:10162000901E02B000F010B800100240002809DB44
:1016300000F01F02012191404009800000F1E020EC
:10164000C0F8001170470000F0B40E4B1B68C3F3E4
:101650000223C3F10704042C00D904241D1D072D07
:1016600001D2002300E0DB1E012606FA04F56D1E00
:101670000D409D409E40761E164045EA0601F0BC96
:1016800003F04ABC0CED00E0064A00F007011068C8
:101690004FF6FF03184040EA012003490843106059
:1016A000704700000CED00E00000FA050149012040
:1016B0000862704700000E4210B5014627A086B0B0
:1016C0001DC88DE81D0029A0294C00680490002049
:1016D000012922D0022939D010291CD16168226841
:1016E000D20118D5C1F38342C9031DF8020009D500
:1016F000616804AAC1F34041515C1E4AB2FBF1F19A
:10170000484301E01C4948436168490203D4400052
:101710000321B0FBF1F006B010BD216AC1F3012234
:10172000012A03D1890701D5D003F4E7022A05D1A4
:10173000616A890702D549F64040ECE7032AEAD1FD
:1017400021688903E7D54FF22440E4E700F056F919
:101750006168C1F38131491C4900DAE702030405DD
:10176000060708090A0B0C0D0E0F101001020000ED
:101770000010024000127A0000093D002DE9F843F4
:1017800004460078344FC00752D0F8690025C000E5
:1017900008D4F86940F08050F861F869012500F03C
:1017A000805000902D480168C90511D40168804619
:1017B00041F480710160FFF7C5FE064604E0FFF7C3
:1017C000C1FE801B642822D8D8F80000C005F6D5D9
:1017D000386A10F4407020D0A18801F44071814231
:1017E0001BD0386A1E49012220F440700A60002292
:1017F0000A603862C00710D0FFF7A4FE064641F227
:10180000883807E0FFF79EFE811B414502D903207F
:10181000BDE8F883386A8007F4D5386A616820F437
:101820004070084338621DB1F86920F08050F861BB
:101830002078800705D57868A16820F440400843E7
:1018400078602078C00605D57868E16820F48000CB
:10185000084378600020DBE7001002400070004081
:10186000400442422DE9F0470D46040067D0DFF8FE
:101870001881D8F8000000F00700A8420CD2D8F870
:10188000001021F007012943C8F80010D8F8000023
:1018900000F00700A84252D120683C4E810712D5C3
:1018A000400703D5706840F4E0607060207800075E
:1018B00003D5706840F4605070607068A16820F0D3
:1018C000F000084370602078C00727D060680128C6
:1018D00010D03168022810D0890700292FDA7168EA
:1018E00021F0030101437160FFF72CFE074641F22E
:1018F00088390CE031688903EFE78901EDE7FFF7EC
:1019000021FEC11B494502D90320BDE8F08770685C
:10191000616800F00C00B0EB810FF0D1D8F8001036
:10192000404601F00701A9420BD9016821F00701E7
:1019300029430160006800F00700A84201D001209F
:10194000E3E72078400705D57068E16820F4E0609F
:10195000084370602078000706D57068216920F47C
:10196000605040EAC100706000F058F87168084AA1
:10197000C1F30311515CC84006490860064800687D
:10198000FFF700FE0020C0E70020024000100240E8
:10199000BC8A000830000020280000200F220260CE
:1019A0000C4A536803F003034360536803F0F003E9
:1019B0008360536803F4E063C36052684FF4E063EC
:1019C00003EAD20202610448006800F007000860E0
:1019D0007047000000100240002002400448054902
:1019E00000684968044AC1F30221515CC84070474D
:1019F0003000002000100240CC8A0008044805494D
:101A000000684968044AC1F3C221515CC84070476C
:101A10003000002000100240CC8A000812A085B0DF
:101A20000FC88DE80F0014A0144B0068049059688B
:101A3000134801F00C02042A10D0082A0ED1C1F379
:101A40008342C9031DF802000AD5596804AAC1F3EC
:101A50004041515C0A4A5043B0FBF1F005B0704779
:101A600008494843FAE7000002030405060708098D
:101A70000A0B0C0D0E0F10100102000000100240A6
:101A800000127A0000093D002DE9F84F04006FD0E4
:101A90002078BE4DC00747D06868C0F38100012898
:101AA00007D06868C0F38100022809D16868C003C4
:101AB00006D52868800337D560680028E7D033E072
:101AC0006068B0F5803F0BD010B1B0F5A02F11D0F9
:101AD000286820F480302860286820F4802002E004
:101AE000286840F480302860606888B1FFF72AFDDC
:101AF000064609E0286840F480202860F0E7FFF7F8
:101B000021FD801B642873D828688003F7D50BE07B
:101B1000FFF718FD064604E0FFF714FD801B64285C
:101B2000F1D828688003F7D42078DFF86482800732
:101B30004FF0010A4FF0000939D5686810F00C0F1A
:101B400007D06868C0F38100022809D16868C00323
:101B500006D42868800714D52069012808D110E030
:101B60002069B0B1C8F800A0FFF7ECFC064605E01C
:101B700007E1FFF7E7FC801B0228C4D8286880072C
:101B8000F7D52868616920F0F80040EAC1002860B4
:101B90000DE0C8F80090FFF7D5FC064604E0FFF71B
:101BA000D1FC801B022823D828688007F7D420782E
:101BB00000072CD57748A169D9B1C0F800A0FFF77C
:101BC000C1FC064604E0FFF7BDFC801B02280FD8CD
:101BD000686A8007F7D570484FF4FA510068B0FB87
:101BE000F1F0009000BF0098411E0091FAD20EE083
:101BF0007CE0C0F80090FFF7A5FC064604E0FFF784
:101C0000A1FC801B022871D8686A8007F7D420786D
:101C100040075BD5E8690027C00008D4E86940F0B8
:101C20008050E861E869012700F0805000905B482F
:101C30000168C90511D40168834641F480710160CF
:101C4000FFF780FC064604E0FFF77CFC801B64285D
:101C50004CD8DBF80000C005F6D5E06801280AD0B2
:101C600008B1052813D0286A20F001002862286AEC
:101C700020F0040002E0286A40F001002862E068D9
:101C800041F2883B88B1FFF75DFC064609E0286A0F
:101C900040F004002862EEE7FFF754FC811B594531
:101CA0005BD8286A8007F7D50BE0FFF74BFC0646A8
:101CB00004E0FFF747FC811B59454ED8286A80078E
:101CC000F7D41FB1E86920F08050E861E069A8B35B
:101CD0006968C1F38101022946D00228484606D02E
:101CE000C8F86000FFF72EFC044639E035E04746AF
:101CF000C8F86000FFF726FC064604E0FFF722FC68
:101D0000801B022829D828688001F7D4206AB0F502
:101D1000803F05D16868A16820F4003008436860FE
:101D2000D4E908010843696821F474110843686024
:101D3000C7F860A0FFF706FC044605E023E0FFF7C4
:101D400001FC001B022808D828688001F7D51AE09A
:101D5000FFF7F8FB001B022802D90320BDE8F88F2B
:101D600028688001F4D40EE00128F7D06868226A60
:101D700000F48031914204D1616A00F4701088420D
:101D800001D00120EAE70020E8E70000001002404F
:101D900000004242800442423000002000700040B7
:101DA000F8B505004FF0000016460C46009006D02E
:101DB0002CB100226946284600F019F808B101202C
:101DC000F8BD287B2070E87BE070697B6170A97B9F
:101DD000A17056B102F057FCE070607802F053FC3D
:101DE0006070A07802F04FFCA0700020F8BD2DE9D3
:101DF000F04791460C465FEA00084AD084B3D8F811
:101E000000004068400744D4404602F0D9FC4FF43B
:101E10006162B0FBF2F10546B0FBF2F002FB105339
:101E20003C20B3FBF0F36370B5FBF2F302FB1352FB
:101E3000B2FBF0F300FB1320A070182931D3182057
:101E4000B1FBF0F6B1FBF0F200FB1210207040463F
:101E500002F0AFFC411C04D0A84202D9471B02E0AB
:101E600017E04FF0FF37A6EB061000EB4000C0EB89
:101E7000001005EBC0152946404602F0F0FC40B9C1
:101E8000781C01D0791900E03946404602F0D3FCB5
:101E900010B10120BDE8F0873146404602F0FEFB5C
:101EA00000E02170B9F1000F0BD0207802F0EBFBBD
:101EB0002070607802F0E7FB6070A07802F0E3FB2E
:101EC000A0700020E6E7000070B5040003D0607C3D
:101ED000002610B105E0012070BD2674204600F0F8
:101EE00043F802206074204600F01CF9042578BBFA
:101EF000204602F02AFC58BB2068416821F0070107
:101F00004160A06820B11748016821F0010101601B
:101F10001448001F0168A26821F460711143016038
:101F20006068411C04D10120FFF7C6FB80B1401E50
:101F300021688A6822F00F0242EA10428A60216812
:101F4000CA6860F30F02CA60204602F018FC08B1AC
:101F50006574C0E7E67301206073A07360740020AD
:101F600070BD0000306C004008B500680D49884223
:101F700017D1FFF79BFB0C48C16941F00061C161BB
:101F8000C0690A4900F0006000900120086000224A
:101F900005210320FFF758FBBDE808400320FFF7A9
:101FA00045BB08BD00280040001002403C044242EE
:101FB0002DE9F0410D4604003BD0C5B3207C01283B
:101FC0003AD04FF0010884F8108002206074E8785D
:101FD00072B302F04FFBE073687802F04BFB607362
:101FE000A87802F047FBA073C2B2617BE07B02F0ED
:101FF000F7FB20732870204602F0E2FB4FF461618A
:10200000B0FBF1F1002518292DD91822B1FBF2F10E
:10201000A1EB011101EB4101C1EB011100EBC11674
:102020003146204602F01BFC0427C8B90BE000E053
:1020300004E00120BDE8F0810220FBE7E07368784E
:102040006073A878CFE7204602F0B3FB411C0AD0AA
:10205000B04208D206490144204602F0ECFB10B120
:1020600067742574E5E784F8118025740020E1E7A2
:10207000805101002DE9F0410D46040024D01DB32C
:10208000207C012823D04FF0010884F81080022022
:102090006074F2B1287802F0EDFA4FF4616100FB50
:1020A00001F6687802F0E6FAC0EB001006EB800655
:1020B000A87802F0DFFA35182946204602F0CFFB57
:1020C0000026042718BB10E00120BDE8F0810220A3
:1020D000FBE729784FF4616041436878C0EB00105A
:1020E00001EB8000A9784518E6E72068416821F0F7
:1020F00005014160204602F05CFB411C0AD0A84269
:1021000008D207490144204602F095FB10B16774DC
:102110002674D9E784F8118026740020D5E70000E2
:102120008051010070B504000AD02068416821F098
:1021300008014160FFF706FA05464FF47A7608E099
:10214000012070BDFFF7FEF9401BB04201D903200A
:1021500070BD206840680007F4D5002070BD70474E
:10216000704710B5040003D094F83D0010B107E0AB
:10217000012010BD002084F83C00204600F01EF82D
:10218000022084F83D00211D206802F011FD01208D
:1021900084F8460084F83E0084F83F0084F840004C
:1021A00084F8410084F8420084F8430084F8440035
:1021B00084F8450084F83D00002010BD7047000001
:1021C00090F83D10012901D001207047022180F8CC
:1021D0003D100168CA6842F00102CA6000680B49FC
:1021E000884208D0B0F1804F05D00949884202D01A
:1021F0000849884204D1816801F00701062903D00B
:10220000016841F00101016000207047002C01408D
:102210000004004000080040704770B504460068A4
:1022200001694FF00005C943890715D4C168C94346
:10223000890711D4E91E0161012020772068806997
:102240008007204602D0FFF7E7FF04E000F098F88F
:10225000204600F096F8257720680169C9434907B0
:1022600017D4C168C943490713D46FF00401016151
:10227000022020772068806910F4407F204602D039
:10228000FFF7CAFF04E000F07BF8204600F079F881
:10229000257720680169C943090716D4C168C94375
:1022A000090712D46FF0080101610420207720682B
:1022B000C0698007204602D0FFF7AEFF04E000F0BF
:1022C0005FF8204600F05DF8257720680169C94372
:1022D000C90617D4C168C943C90613D46FF01001E9
:1022E0000161082020772068C06910F4407F2046F3
:1022F00002D0FFF791FF04E000F042F8204600F022
:1023000040F8257720680169C943C90708D1C16829
:10231000C943C90704D1891E0161204600F032F883
:1023200020680169C943090609D4C168C94309067F
:1023300005D46FF0800101612046FFF710FF20688F
:102340000169C943490609D4C168C943490605D48E
:102350006FF040010161204600F01BF82068016920
:10236000C94389060BD4C168C943890607D46FF0F5
:10237000200101612046BDE87040FFF7F1BE70BD4D
:10238000704770470068B0F1804F01D1FFF7E0B8A7
:102390007047704708B5034690F83E0020281CD1CE
:1023A00081B17AB193F83C00012816D0012083F85E
:1023B0003C001863184602F009FD002803D1196B90
:1023C000012901D0012008BD19680A684A680092F5
:1023D000CA6842F01002CA6008BD022008BD0000B1
:1023E0000068064B984208D10A460549054821F87D
:1023F000042B4FF4A072FFF7CDBF704700380140A7
:10240000404200203C07002070470000F8B50268F9
:1024100004461068D168536910F00F0F4FF00005A3
:1024200053D003F0010601F4907737435FD0C20721
:1024300005D0CA0503D5226C42F00102226442078E
:1024400005D5DA0703D0226C42F00202226482072B
:1024500005D5DA0703D0226C42F004022264020799
:1024600007D501F02002324303D0226C42F008026B
:102470002264226C002A34D0800604D5880602D556
:10248000204602F0EBFB20684069216CC0F380100D
:10249000090700D430B3204602F0C8FB2068416928
:1024A00049061BD5416921F040014161A06BA8B1EB
:1024B00058494163A06BFEF793FE002811D0A06B32
:1024C000416B01B0BDE8F040084783060FD58B068D
:1024D0000DD52046BDE8F84002F0C0BB2046FFF70E
:1024E00093FFF8BD2046FFF78FFF2564F8BD266BEC
:1024F0002023012E52D1C60650D5CE064ED51068E7
:1025000050680090506940062AD5A16B0868406861
:102510000004000CEAD0A68D8642E7D9E0858869E0
:10252000202818D0D06820F48070D06020684169DD
:1025300021F0010141612068416921F040014161C0
:1025400084F83E3025632068C16821F01001C16025
:10255000A06BFEF721FEA08DE18D401A81B219E03B
:10256000A08DE18D401A81B2E08D0028BED00029F7
:10257000BCD0D06820F49070D0602068426922F00E
:102580000102426184F83E3025632068C26822F06F
:102590001002C2602046FFF723FFF8BD05062BD5C9
:1025A0000D0629D594F83D002128F6D1A068B0F594
:1025B000805F01D12069B0B1206A411C216221688D
:1025C00000784860E08C401E0004000CE084E4D1F8
:1025D0002068C16821F08001C1602068C16841F0B5
:1025E0004001C160F8BD206A0088C0F30800506057
:1025F000206A801C2062E5E74006F3D54806F1D545
:10260000D168204621F04001D16084F83D3000F0CF
:10261000CEF8F8BD1D4C000870B5040004D094F845
:102620003D00002510B106E0012070BD84F83C504B
:10263000204600F023F8242084F83D002068C1687B
:1026400021F40051C160204602F064FB206801695A
:1026500021F4904101612068416921F02A01416122
:102660002068C16841F40051C1602564202084F8CD
:102670003D0084F83E00002070BD000030B585B0FC
:10268000002400940194029403940068184988423D
:102690002CD11848816941F480418161816901F43C
:1026A00080410491816941F0040181618069124D8A
:1026B00000F0040004904FF400700090022001909C
:1026C0000320039069462846FEF748FE2815CDE909
:1026D0000004694628460294FEF740FE00220221CB
:1026E0002520FEF7B1FF2520FEF7A0FF05B030BD85
:1026F00000380140001002400008014070472DE9F9
:10270000F843044690F83D001F4615460E46202823
:102710004BD1C6B1BDB194F83C00012845D0012091
:1027200084F83C004FF00008C4F84080212084F871
:102730003D00FEF707FFA5848146E584A068B0F55B
:10274000805F03D004E00120BDE8F883206920B158
:102750003546002684F83C800EE00025FAE780210B
:10276000204602F04EFBA0B9ADB115F8010B21686F
:102770004860E08C401EE084E08C4B464FF0000245
:1027800000970028EBD14FF04001204602F039FBC2
:1027900030B10320D8E736F8020BC0F30800E6E7B3
:1027A000202084F83D000020CEE70220CCE77047CF
:1027B000FEE7000010B586B0002000900190029066
:1027C00003900D48816941F00801816180690B4CDB
:1027D00000F0080004900022C0212046FEF7ACFE65
:1027E0000121C020CDE900010291039169462046F4
:1027F000FEF7B4FD06B010BD00100240000C014011
:1028000070B5012817D10C4C850525600A48103891
:10281000016821F070410160016841F040510160A0
:10282000680020600220FEF781FA4020206002202C
:10283000FEF77CFA256070BD100C014010B5FFF763
:10284000B9FF0348402101608021016010BD0000F4
:10285000100C014070B5012817D10C4C850525607E
:102860000A481038016821F070410160016841F0A8
:1028700040510160802020600220FEF757FA40207E
:1028800020600220FEF752FA256070BD100C014056
:102890002DE9F04700248A4601282FD11A48016803
:1028A00021F070410160016841F000410160164E65
:1028B000DFF8549000254FF4800710364FF04008A1
:1028C00009F1080937600220FEF730FAC6F80080E7
:1028D0006006040ED9F80000000601D5641CE4B2BD
:1028E0000120FEF723FA6D1CEDB2082DEAD3BAF1F0
:1028F000000F4FF0010004D0FFF782FF2046BDE833
:10290000F087FFF7A7FFF9E7000C01402DE9F0473A
:102910000D4601282CD11748016821F07041016053
:10292000016841F040510160124E4FF480071036AB
:10293000376000244FF080094FF4000A4FF0400840
:10294000280601D5484600E0504630606806050E6E
:102950000220FEF7EBF9C6F800800220FEF7E6F948
:1029600037600220FEF7E2F9641CE4B2082CE7D3DA
:10297000BDE8F087000C014010B501281AD10E48BF
:10298000016821F070410160016841F0405101602F
:10299000094C802010342060402020600420FEF785
:1029A000C5F94FF4000020600420FEF7BFF94FF492
:1029B0008000206010BD0000000C014010B501280F
:1029C0001ED11048016821F070410160016841F09A
:1029D000405101600B4C4FF48000103420604000E7
:1029E00020600420FEF7A2F9402020600220FEF7BC
:1029F0009DF980202060BDE810400420FEF796B9C4
:102A000010BD0000000C014070B50024012826D143
:102A10001448016821F070410160016841F00041F3
:102A20000160104D8020103528600120FEF77EF9EE
:102A3000402028600120FEF779F90A48083008E0B4
:102A4000641CE4B2FA2C04D90120FFF7B7FF01207F
:102A500070BD01680906F3D44FF48000286000209F
:102A600070BD0000000C014010B59CB01C2216493E
:102A70006846FDF711FC0021684603F0E6F8134CA8
:102A800011491C2220611C3107A8FDF705FC00211B
:102A900007A803F0DAF80C49E0601C2238310EA8D0
:102AA000FDF7FAFB00210EA803F0CFF8064960609D
:102AB0001C22543115A8FDF7EFFB002115A803F0E7
:102AC000C4F8A0601CB010BD4C8A000800000020B3
:102AD0002DE9F04F85B000242A4800940194029417
:102AE0000394816941F010018161816901F0100155
:102AF0000491816941F004018161816901F004015F
:102B00000491816941F0080181618069DFF8789062
:102B100000F008004FF40055049000222946484672
:102B2000FEF70AFDDFF864A049F2020700223946E9
:102B30005046FEF701FDDFF858B046F208180022B3
:102B400041465846FEF7F8FC0095022601250396FB
:102B5000CDE9015469464846FEF700FC009703960C
:102B6000CDE9015469465046FEF7F8FBCDF80080E8
:102B70000396CDE9015469465846FEF7EFFB05B0D0
:102B8000BDE8F08F00100240001001400008014035
:102B9000000C01401CB5002417480094154901940D
:102BA0000160611EC0E90114FFF78EF908B1FEF75C
:102BB00079FA8DF800408DF801408DF8024001222D
:102BC00069460D48FFF756FA08B1FEF76BFA012087
:102BD0008DF804008DF805008DF8060002468DF88A
:102BE000074001A90448FFF7E3F9002801D0FEF7E8
:102BF00059FA1CBD00280040DC0700200C4810B525
:102C00000A4901604FF4E1314160002181600C22EA
:102C1000C160C0E904128161C161FFF7FDFC0028B9
:102C200003D0BDE81040FEF73DBA10BD00380140AA
:102C30003C070020FEE72DE9F0470446894601F1F4
:102C40000C00414201F003010D18A068A84201D315
:102C500020692FE0D4E90510814216D1012101EB52
:102C60004007B800804604F02FFE061E2FD04146D4
:102C7000FDF739FBA069E16882003046FDF70CFBE7
:102C8000E06805F097F8A761E6604FF48066B5420A
:102C900000D32E46304604F017FE002817D0616995
:102CA0006FF00303491C6161E26803EB810150503E
:102CB000A6602061C0F8009021690C3141600021BC
:102CC0008160216929442161A168491BA160BDE897
:102CD000F0872DE9F0411F000E461546804601D0D1
:102CE000114600E00C21FFF7A6FF040008D05FB1F9
:102CF00004F10C002A4631466060FDF7CDFA05E08C
:102D00004FF0FF30BDE8F081C4E90056214640464F
:102D100000F002F80020F5E700228A6042680AB15C
:102D2000916000E001604160C26909681144C161BD
:102D3000704700F00AB80021016041608160C16005
:102D4000416181610161C161704770B50546002430
:102D500004E050F8240005F02DF8641C6869A042D6
:102D6000E868F6D805F026F82846BDE87040FFF779
:102D7000E2BF00002DE9F04788B09846DDE9105623
:102D8000002417461346CDE90264CDE90085894643
:102D900082460A461149124802F095F83846FDF776
:102DA000C9FA80B201940294CDE90449CDE90670D4
:102DB0000094A9B23346424603940AF1700000F031
:102DC000CFFD020007D007A1054802F07CF8601E85
:102DD00008B0BDE8F0870020FAE70000B08D0008D9
:102DE0003C0700204661696C656420746F20706147
:102DF000636B20746865204D51545420434F4E4EF0
:102E0000454354205041434B45542C206572726316
:102E10006F64652069732025642E0A0030B5B3B055
:102E2000C821DDE939456846FDF75DFA09A10A4880
:102E300002F049F82A4621466846FDF72DFA6A460F
:102E400006A1054802F03FF8684601F049F933B0A1
:102E5000002030BD0D0A00003C070020636D643A7D
:102E60002025730D0A00000070B5154613460C4668
:102E70000A4607A1154802F026F82C4305D114484C
:102E800010F8C21F41F001010170002070BD000068
:102E90005375636365737320746F20636F6E6E6523
:102EA000637420746F207468652073657276657230
:102EB0002C20666C61677328253078292C20636F7D
:102EC0006465282564292E0D0A0000003C070020B7
:102ED000CC000020034810F8C21F41F080010170AF
:102EE00000207047CC00002010B50A4602A10D4812
:102EF00001F0E9FF002010BD52656376207468651B
:102F0000207075626C6973682061636B2C2070613E
:102F1000636B65742069642069732025642E0D0A33
:102F2000000000003C07002010B50A4602A10D4831
:102F300001F0C9FF002010BD5265637620746865FA
:102F4000207075626C69736820636F6D702C2070DF
:102F500061636B65742069642069732025642E0A9F
:102F6000000000003C07002010B5A0F8B0100A4691
:102F700002A10D4801F0A7FF002010BD5265637645
:102F800020746865207075626C697368207265636F
:102F90002C207061636B657420696420697320253F
:102FA000642E0D0A000000003C07002010B5A0F8B8
:102FB000B0100A4602A10C4801F085FF002010BDA8
:102FC0005265637620746865207075626C697368F9
:102FD0002072656C2C207061636B657420696420BD
:102FE00069732025642E0A003C0700207FB51C462B
:102FF0001546DDE90923089EA0F8B01040F8A42F7B
:10300000037103948DE862001849194801F05BFFD1
:103010002878242827D16878632824D1A8787228B2
:1030200021D1E87865281ED1287971281BD16879CB
:103030002F2818D1062400E0641C285D2F2804D016
:103040002846FDF777F9A042F6D82846FDF772F931
:10305000A04208D92C44601CFDF76CF90246611CA3
:103060000448FDF719F904B0002070BD048E000873
:103070003C070020003E002070B516460A461D465B
:103080000849094801F01FFF002406E0335D22468D
:1030900006A1054801F017FF641CAC42F6D30020DE
:1030A00070BD0000688D00083C07002020202063D0
:1030B0006F646525643D253032780A0010B50A46F4
:1030C00002A10D4801F0FFFE002010BD526563769D
:1030D0002074686520756E737562736372696265CA
:1030E0002061636B2C207061636B657420696420C0
:1030F00069732025642E0A003C07002010B50446A1
:103100001E49C4F89C100020206084F8B2004FF4DF
:103110008071201D00F0D7FB020006D018A12348C3
:1031200001F0D1FE4FF0FF3010BD21486061214811
:10313000E0612148C4E90A402048C4E90840204829
:10314000C4E90C401F48C4E90E401F48C4E91040C0
:103150001E48C4E912401E48C4E914401D48C4E991
:1031600016401D48C4E918401C48C4E91A4004F13F
:103170007000FFF7E0FD002010BD0000CC00002033
:103180004661696C656420746F20696E6974204DB6
:1031900051545420636F6E74657874206572726345
:1031A0006F64652069732025640000003C070020DF
:1031B000ED3100083D330008692E0008D52E0008C7
:1031C000ED2F0008E92E0008692F0008AD2F000838
:1031D000292F000879300008BD3000081D2E000896
:1031E00010B57030FFF7A7FD002010BD70B50D467B
:1031F000FA2000F0A1FE064C30B1A288054928460D
:10320000FDF74AF800F047FEA0880021A18070BDBC
:10321000C0000020444200202DE9F04106468EB057
:1032200088460A270846FDF785F884B2204604F050
:103230004BFB050012D022464146FDF72DF8306FBA
:10324000A0B1284604F0B6FD1B4A1CA1254801F098
:103250003AFE6FF006000EB0BDE8F081164A22A1DA
:10326000204801F030FE6FF00A00F4E712492822EE
:10327000143104A8FDF710F8234A24A104A801F092
:1032800023FE012000210094CDE9010103902B468B
:1032900004AA394606F1700000F040FC04462846B6
:1032A00004F088FD34B1044A20A10E4801F00BFE61
:1032B0002046D0E70020CEE7DC8B00083C25733E9B
:1032C0003A206374782D3E6D7174746275662D3E7C
:1032D00066697273745F657874207A65726F0D0A1F
:1032E000000000003C0700203C25733E3A20745F3C
:1032F0007061796C6F6164206D616C6C6F632065C7
:1033000072726F720D0A0000C8070020313030362B
:1033100030312F7373625F757569642F25732F7059
:10332000726F70657274792F757000003C25733E62
:103330003A206572726F720D0A0000002DE9F047A5
:1033400088460027ADF5806D92463D4619A11D487F
:1033500001F0B9FD1EE058F83590002408EBC506D1
:1033600006E019F8042018A1164801F0ACFD641C11
:103370007068A042F5D812A1124801F0A4FD58F8D7
:1033800035100DEB07007268FCF786FFB0886D1CE6
:10339000384407B25545DEDBB9B2684600F0FEFDA1
:1033A0000BA1084801F08FFD0DF5806D4046BDE88A
:1033B000F087000073656E64206F6E6520706B741B
:1033C0000A0000003C070020253032582000000091
:1033D00073656E64206F7665720A000008B50B464F
:1033E000009201220221703000F012FC002805D06A
:1033F00003A1104801F067FD4FF0FF3008BD000049
:10340000437269746963616C206275673A20666112
:10341000696C656420746F207061636B20746865EB
:1034200020737562736372696265207061636B6596
:10343000742E0A003C07002070B50646002407E001
:10344000FCF7CCFE0068405D10F0380F05D0641C1E
:10345000355D002DF4D1204670BD4FF0FF3070BDBA
:103460002DE9F04105460C4600200C4E13E0295C86
:10347000715C491CC9B24718A74203D96FF0050017
:10348000BDE8F081284600F031FA0028F8D138462E
:10349000295C0029F4D0A042E9D3F1E7DB8A0008D7
:1034A00030B40C462409A41E01F00F010C2C22D2CA
:1034B000DFE804F0090C0F121518211B211E21064C
:1034C00030BC00F044B830BC00F02AB830BC00F08A
:1034D000EDB830BC00F044B830BC00F067B830BC88
:1034E00000F0A0B830BC00F04EB830BC00F0B6B967
:1034F00030BC00F0D5B930BC6FF003007047024615
:10350000012002F07F030B70D20908D043F0800342
:10351000401C01F8013B0428F3DD4FF0FF307047F9
:1035200030B46FF0030449B9022B07D111785278F7
:10353000CB0701D012B904E0052A02D9204630BCDD
:103540007047D0E90934A44630BC18466047194397
:1035500002D06FF003007047D0E9072110460847FA
:1035600070B504466FF0030559B9022B09D1104616
:1035700000F0CEFB010004D0D4E90D02BDE870409C
:103580001047284670BD70B504466FF0030559B961
:10359000022B09D1104600F0BBFB010004D0D4E996
:1035A0001302BDE870401047284670BD70B588B062
:1035B00006466FF0030491BB022B30D1104600F099
:1035C000A7FB05002BD0D6E90F022946904704003F
:1035D00025D46846FFF7AFFB6C4604212046FFF771
:1035E0002AFB034662205968087059680220487017
:1035F00059682846891C00F04AFC19462046FFF706
:103600008BFB002422466946304600F0F9FB0799FF
:10361000884201D06FF00D046846FFF78AFB08B0BE
:10362000204670BD70B588B006466FF003040229CD
:1036300038D1022B36D1104600F06AFB050031D09C
:10364000D6E911022946904704002BD46846FFF7BB
:1036500072FB6C4604212046FFF7EDFA030011D0FF
:1036600059687020087059680220487059682846C7
:10367000891C00F00CFC19462046FFF74DFB002486
:103680001CB10CE04FF0FF34FAE7002269463046E7
:1036900000F0B6FB0799884201D06FF00D04684630
:1036A000FFF747FB08B0204670BD00002DE9F04F42
:1036B00089B0834601F008004FF000080290C1F382
:1036C000410701F00100CDE9008861A19A469146C9
:1036D00045460791022B56D3E8BB484600F018FB3D
:1036E000811C04468A454ED327B1012F14D0022FE6
:1036F00049D111E0029870BB224609F10201484607
:10370000FCF7CAFDAAEB0400A0F1020A4E4609EB41
:10371000040000F1020912E0201D09F102065045E3
:1037200031D809EB0401881C00F0F2FA5FEA0008C6
:1037300029D0AAEB0400A0F1040A01F10409002E2B
:1037400078D00020305521463046FFF789FEA04250
:1037500019D1304605E016E02B2914D0232912D0C8
:10376000401C01780029F7D13078242810D0029825
:10377000CDF800A0CDE90107DBE90B044B4632464A
:103780004146A04716E06FF0030009B0BDE8F08F96
:1037900030A13046FCF7B2FDB0420CD1029BCDE91E
:1037A0000537CDE9039A07980290DBE91903F21D6A
:1037B000414698470546002D1EDB6846FFF7BBFAD9
:1037C0000226F41E012F19D0022F0DD1B8F1000FDF
:1037D00030D0E946454604214846FFF72CFA03005D
:1037E00001D0502016E025466FF00D0425B307B137
:1037F00025466846FFF79DFA2846C6E7B8F1000F50
:1038000018D0E946454604214846FFF714FA03005C
:10381000E9D04020596808705868467059682846B1
:10382000891C00F034FB19464846FFF775FA00245E
:10383000D9E7FFE7AFF30080002FDAD00022694616
:10384000584600F0DDFA07998842D1D1D1E700004F
:1038500000000000247468696E6700002DE9F041E3
:1038600005466FF0030669B9022B0BD3104600F032
:103870004FFA010006D0941CD01807E0277817F003
:103880007C0F02D03046BDE8F081641CA042F5D820
:10389000D5E91504A446BDE8F041921C9B1E604783
:1038A00070B504466FF0030559B9022B09D11046D3
:1038B00000F02EFA010004D0D4E91702BDE87040F0
:1038C0001047284670BD70B50D4604466C21FCF7C4
:1038D0000AFD284603F0F8FF206020B14119C4E931
:1038E0000110002070BD4FF0FF3070BD421803463C
:1038F0006FF0050001292AD002290DD0032906D036
:1039000004292CD112F8011D8039402927D212F840
:10391000011D8039402922D212F8011CA1F1800238
:10392000402A1CD21A78E02A06D0ED2A07D0F02AC5
:1039300008D0F42A0BD108E0A02910D307E09F2972
:103940000DD804E090290AD301E08F2907D819780F
:10395000A1F18002422A02D3F42900D80020704746
:103960002DE9FF4F83B09A4600240521DDF844B0CD
:103970000398FFF760F906004FF0FF3710D00A21D7
:103980000398FFF758F905000AD00598FFF754FD92
:1039900000B25FEA000905D5601F07B0BDE8F08FEF
:1039A0003846FAE709F10C08BAF1000F00D00224FA
:1039B0006FF0060ABBF1000F01D01098C8B3109841
:1039C000002750B144F00404FCF7B4FC07B23946B8
:1039D0001098FFF745FDB84228D1139848B1012847
:1039E00002D0022826D102E044F00C0401E044F0A9
:1039F0001404149808B144F02404600705D5129803
:103A0000391801EB080000F10408159800281698F1
:103A100010D070B144F080041598FCF78BFC01B213
:103A20008A461598FFF71CFD824505D06FF005000A
:103A3000B3E7FFE75046B0E708EB0A001799801C90
:103A4000014401F1020844F0400408390398FFF7EB
:103A5000F2F8019071681020087071684046491CA6
:103A6000FFF74DFD002802DA6FF0070095E7401CD4
:103A700030606968002008706868042141706A68D5
:103A80004D2090706A685120D0706A68542010717F
:103A90006A685071686881716868C471696804985F
:103AA000083100F0F4F901981FFA89F2406800909B
:103AB0006846059900F019F9600710D5BBF1000FB1
:103AC00003D10FF2540B00201290BAB2684610993D
:103AD00000F00BF959466846129A00F006F92006E4
:103AE00005D51FFA8AF26846159900F0FEF86006BF
:103AF00004D5DDE91612684600F0F7F83146039860
:103B0000FFF70AF929460398FFF706F90199039888
:103B1000FFF702F9002040E7000000002DE9FF4F09
:103B200081B09046DDE90F960E9F02986FF0060A6D
:103B300070B3002404E023282AD02B2828D0641C4A
:103B400018F804000028F6D121464046FFF788FC0B
:103B5000A04204D06FF0050005B0BDE8F08F05214C
:103B60000198FFF768F805004FF0FF3B4ED06968F9
:103B70003020087016B1686831210170E619B61C52
:103B80005FEA090011D0012804D0B9F1020F06D074
:103B90005046E1E76868017841F0020103E0686897
:103BA000017841F004010170B61C69683046491C77
:103BB000FFF7A5FC002802DA6FF00700CCE7401CF5
:103BC0002860F11B0198FFF736F806001ED07068D8
:103BD0000090A2B24146684600F087F8B9F1000FA4
:103BE00003D00099029800F052F929460198FFF796
:103BF00093F831460198FFF78FF82FB13A46119BA1
:103C000004990198FFF765F80020A5E75846A3E757
:103C10002DE9FF4F81B099460E9E029892460025ED
:103C20006FF0060BA0B1002415E059F824707FB1A5
:103C30003846FCF77FFB8046014645443846FFF78F
:103C40000FFC404506D06FF0050005B0BDE8F08FD1
:103C50005846FAE7641CB442E7DB05210198FEF7F9
:103C6000EAFF07004FF0FF3415D07968802005EB9C
:103C7000460508702D1D29460198FEF7DCFF5FEA16
:103C8000000808D079682846491CFFF738FC00284E
:103C900003DAE000D9E72046D7E7401C3860D8F8BF
:103CA00004100091029800F0F2F80098801C0024A3
:103CB00000900EE059F824502846FCF73BFB82B2F6
:103CC0002946684600F011F80098641C00F801AB22
:103CD0000090B442EEDB39460198FFF71DF84146EB
:103CE0000198FFF719F80020AFE770B50B460446BE
:103CF00001681546104600F0CAF820682A461946A1
:103D0000801CFCF7C9FA2068AD1C2844206070BDF7
:103D1000008840BA7047F0B50446002001235D05D5
:103D2000106012E0275C166807F07F0707FB036648
:103D30001660265C360601D4401CF0BDDB01AB42A8
:103D400002D36FF00100F0BD401C8842EADB4FF067
:103D5000FF30F0BDF8B5044600200090D4E9010121
:103D6000421AD4E903039847002803D007DA6FF01A
:103D70000200F8BD2068A0606FF00100F8BDA168E6
:103D80000844A0606168884202D96FF00800F8BD5D
:103D90002568A068411B022920DB6A46681C491E71
:103DA000FFF7B9FF0646401C18D0B01C13D0009B8B
:103DB000A168E8183044401C88420FD8AA19297815
:103DC0002046521CFFF76CFB0028E0DB00983044D3
:103DD00005446D1CDDE76FF00300F8BD2068A842C4
:103DE0000CD22E1A32462946FCF756FAA068801BE0
:103DF000A0602168884201D2AFF300800020F8BDA6
:103E00002DE9F0479046CA698146424521D90025EF
:103E10000C6802E02068A46805440CB14545F9D35C
:103E20002746002601E0A468761C002CFBD186B151
:103E300097B1F00003F048FD04000FD07968A8EBBB
:103E40000500014421603968081A60600121B868E2
:103E500010E00020BDE8F087AFF300804FF0FF30A6
:103E6000F8E7426844F8312004EBC10302685A6065
:103E70008068491C0028F4D1D9E90503324621465F
:103E800098470546204603F095FF2846E2E7020AD8
:103E90000A704870704700F08BB800002DE9F041BF
:103EA00086B0002000900190029003901F48816925
:103EB00041F008018161816901F008010491816983
:103EC00041F0040181618069194F00F004004FF452
:103ED00080750490002229463846FDF72DFBDFF857
:103EE00054802E01002231464046FDF725FB012477
:103EF000CDE900540294694638460394FDF72EFA42
:103F0000CDE900640294694640460394FDF726FA21
:103F1000012229463846FDF70FFB01223146404673
:103F2000FDF70AFB06B0BDE8F0810000001002407A
:103F3000000C01400008014010B5044600F05EF896
:103F400038B1022003F0D4FF2046641EA4B2F5D29B
:103F500010BD0348034A30F8041B918010BD0000D7
:103F600040420020C000002002480088C0F3C32067
:103F700070470000C000002010B5FFF78FFF064813
:103F8000018821F40041018000F01CF8BDE81040D8
:103F90004FF47A70FCF7B0BEC000002000F024B8E7
:103FA00002490A8860F3CE220A807047C0000020D0
:103FB0000348002120F8041B4FF4A071FCF793B9CB
:103FC0004042002010B5FEF719FE4FF4A0720449DC
:103FD0000448FEF7DFF9BDE81040FFF7E9BF000035
:103FE000444200203C0700200A4601464FF6FF737A
:103FF0000148FEF784BB00003C070020034800880E
:1040000008B10020704701207047000040420020A6
:104010000A24FFF7B1FF0120FFF7C2FF224D4FF442
:104020007A7695F8C20040F0010085F8C20095F854
:10403000C200C00734D10120FFF7B2FF304601F0C3
:10404000F8FD19491848103100F04CF902E03046EB
:1040500001F0EFFD95F8C200C00702D1641EE4B282
:10406000F5D295F8C2000A24C0070FD00FA114485A
:1040700000F029FFC82001F0DCFD95F8C20020F017
:10408000700085F8C20000F0BFFA09E00DA10C48ED
:1040900000F019FF95F8C20020F0010085F8C20079
:1040A000192001F0C6FDC2E7CC00002054697073EE
:1040B0003A094E6574576F726B204F4B0D0A000022
:1040C0003C070020546970733A094E6574576F724B
:1040D0006B204661696C0D0A00000000FEE70000DD
:1040E0002DE9F84F01F0B0FC5FEA000A5BD058A15F
:1040F00001F08BFC5FEA00095BD057A101F085FC61
:10410000574D48B1007DFCF7DDFE95F8C20020F068
:104110000E00801C85F8C20052A1484601F075FCD3
:10412000002758B1ADF800706846FCF727FE95F8F7
:10413000C20020F00E00801C85F8C2004CA1484649
:1041400001F063FC30B195F8C20020F00E00801C35
:1041500085F8C20048A1484601F057FC48B14069C3
:10416000FCF788FE95F8C20020F00E00801C85F850
:10417000C20044A1484601F048FC30B195F8C200A5
:1041800020F00E00801C85F8C20040A1484601F0D6
:104190003CFC5FEA000826D0009701F02EFC0646A2
:1041A0000024EB4613E0BDE8F84F3AA13F4800F089
:1041B0008ABE3FA13D4800F086FE44E021464046CD
:1041C00001F012FC808A2BF81400641CE4B2B442A3
:1041D000F4DB6846FCF7D8FD95F8C20020F00E002D
:1041E000801C85F8C2003BA1484601F00EFC060089
:1041F0001BD0009701F001FC07460024E84608E0C8
:104200002146304601F0F0FB808A28F81400641C37
:10421000E4B2BC42F4DB6846FCF74AFD95F8C20004
:1042200020F00E00801C85F8C2002DA1484601F048
:10423000ECFB40B1007DFCF733FF15F8C20F20F016
:104240000E00801C28705046BDE8F84F01F0ACBB52
:10425000706172616D7300004368675F4455500080
:10426000CC000020526561645F566572000000005A
:1042700053656E645F46570053796E635F54696D92
:10428000650000005265626F6F7400004368675FED
:104290004C6F630043616E27742066696E642076FC
:1042A000616C696420636D640D0A00003C070020A6
:1042B00043616E27742066696E642076616C696460
:1042C00020706172616D73206F626A656374730D33
:1042D0000A00000053656E645F41626E4C6F6300BC
:1042E000444952001CB50B46024617A1214800F074
:1042F000EAFD2148FEF774FF002805DABDE81C40FE
:104300001EA11C4800F0DFBD00214FF46160224B6C
:10431000CDE9000103F15E02A2F12B011648FEF780
:1043200029FD154C703428B900222146A4F16C00F7
:10433000FFF766FD2046FEF708FDBDE81C404FF480
:104340007A7003F0D5BD00004F6E654E65745F4412
:1043500065764C696E6B0D0A44455649443A2025F2
:10436000732C20202020204150494B45593A2025CC
:10437000730D0A003C070020844300204D717474C3
:1043800053616D706C655F5265496E69742046615A
:10439000696C65640D0A0000CC0000202DE9FF4126
:1043A000624890F8C200C0077DD003F0CFFC01F056
:1043B000E5FA05465EA001F0E9FA02465DA128464D
:1043C00001F0B2FA5DA001F0E1FA02465EA12846D2
:1043D00001F0AAFA5EA001F0D9FA02465DA12846D2
:1043E00001F0A2FA0024009401940294039400F0D6
:1043F0004BFA02460B4658A1684600F065FD684638
:1044000001F0C4FA024656A1284601F08DFA68462A
:1044100001F0BCFA024653A1284601F085FA47A0F4
:1044200001F0B4FA024652A1284601F07DFA01F0EB
:10443000A5FA074601F0A2FA06464F480068FCF7C5
:1044400080F901F089FA02464CA1304601F06CFA7D
:104450004D480068FCF775F901F07EFA02464BA161
:10446000304601F061FA4C480088FCF72AF901F067
:1044700073FA024649A1304601F056FA48484949C4
:1044800001F06AFA024648A1304601F04DFA484868
:10449000484901F061FA024647A1304601F044FA6A
:1044A0000020014600E038E001F056FA024644A13F
:1044B000304601F039FA444801F068FA024643A157
:1044C000304601F031FA32461CA1384601F02CFA90
:1044D0003A463FA1284601F027FA284601F0E8FABB
:1044E0000646284601F060FA31463B48FEF794FE46
:1044F000394D703598B139A1414800F0E4FC30469F
:1045000003F058FC03F042FC2846FEF71EFC3D4831
:104510000470002004B0BDE8F0810120FAE72E48C5
:1045200000222946001DFFF76BFCE8E7CC000020C5
:10453000312E300076657273696F6E0070726F7025
:1045400065727479000000007479706500000000E5
:104550003100000061636B00256C6C64000000009A
:104560006964000074696D657374616D70000000AA
:104570006D6574686F640000B800002054656D704C
:104580005F456E7600000000BC00002048756D6934
:104590005F456E7600000000B4000020434F3200FB
:1045A000F2D24D621040AF40504D322E3500000027
:1045B000713D0AD7A370F1BF504D313000000000AB
:1045C0004C67745F44697200C80700204D61630046
:1045D000706172616D730000844300205741524E38
:1045E0003A09094D71747453616D706C655F536164
:1045F000766564617461204661696C65640D0A00CA
:104600003C070020C6000020124810B590F8C200F8
:10461000C00703D0FFF7A8FC012801D0012010BD7E
:10462000FFF739FC0CA1114800F04DFC09490122AB
:10463000091F0F48FEF7D2FE0D4C703428B9002236
:104640002146A4F16C00FFF7DBFB2046FEF77DFB63
:10465000002010BDCC0000204F6E654E65745F5386
:1046600075627363726962650D0A00003C07002081
:1046700084430020010901EB810100F00F0000EBF1
:104680004100C0B27047002102E00A38C0B2491CA4
:104690000A28FAD2090740EA116070472DE9F04173
:1046A00004460025C07B627BA37B42E0012A16D032
:1046B000032A14D0052A12D0072A10D0082A0ED0B7
:1046C0000A2A0CD00C2A0AD0042A10D0062A0ED0AE
:1046D000092A0CD00B2A0AD0022A0DD028E01F2B61
:1046E0000CD30C2A05D101221346401C20E01E2BBE
:1046F00004D30123521C1BE01C2B02D203F1010343
:1047000016E011D183B29E0710D16426B3FBF6F7F1
:1047100006FB173636B94FF4C876B3FBF6F706FB3F
:1047200017331BB91D2303E01D2B01D103220123E5
:104730006D1C8D42BAD3D1B2E0736173DAB2A27349
:1047400000F04EF82073BDE8F08170B50546FCF727
:10475000F9FE04464FF47A7606E0FCF7F3FE001B00
:10476000B04201D9032070BD286840688006F4D5A6
:104770002868416841F010014160002070BD70B5AB
:1047800005460068416821F010014160FCF7DAFE3F
:1047900004464FF47A7606E0FCF7D4FE001BB042E4
:1047A00001D9032070BD286840688006F4D5002038
:1047B00070BD0068016A406A80B240EA01407047FB
:1047C000006881698AB2C1698BB2816989B28A4203
:1047D00003D0C06961F31F40704743EA024070474D
:1047E000F0B56426C1EBC1030925B700072403EB2C
:1047F00001130329B3FBF5F100F5FA6011440144FC
:104800000AD2401EB0FBF6F201EB9001B0FBF7F0CC
:10481000891A0844001D08E0B0FBF6F201EB900194
:10482000B0FBF7F0891A0844801CB0FBF4F104FBDC
:104830001100C0B2F0BD70B50D4606460024FFF76A
:1048400084FF48B93168280C08623168A8B2486210
:104850003046FFF794FF00B10124204670BD70B5CB
:104860000D4606460024FFF770FF48B93168280C52
:1048700088613168A8B2C8613046FFF780FF00B197
:104880000124204670BD000070B58EB00024244D78
:104890000B9422460CA923480C94FDF7A8FA224851
:1048A000224E007800F00F011F48001D008880B2E2
:1048B00040EA0140281AFBF7EEFE3146FBF78BFD7C
:1048C0001B49FBF756FDFBF709FF85B200220BA938
:1048D0001448FDF765FA9DF8320000909DF831000C
:1048E00001909DF83000083802909DF82E0003904A
:1048F0009DF82D00401E04909DF82F006430059017
:104900006846FBF775FC4FF47A71A0FB012604FBA7
:104910000161002300FB031150190EB0614170BD0D
:10492000FFFF0F00DC07002010280040F0FF7F4948
:1049300000007A44FEB5044602AA01A9684603F0C5
:104940004BF890B90C4DBDF8000028800198FBF79A
:1049500099FE0A4E3146FBF73EFD68600298FBF770
:1049600091FE3146FBF737FDA860092020700A2030
:10497000E0700B202072FEBDB400002000007A44DD
:10498000054C0020FFF70AFD20884FF47A71484358
:1049900001F04FF9F5E700001400002086B003F0A5
:1049A00011F8FCF77BFB0A4C4FF48045661441F28A
:1049B00088376846FFF7BEFF29462046FCF7B4FD5E
:1049C00031462046FCF7B0FD384601F032F9F0E7F9
:1049D000000C014010B5002305E030F8024B21F82F
:1049E00013405B1C9BB29342F7D310BD2DE9F05FDF
:1049F000A0F10064154688468246B4F5803F5ED239
:104A0000FCF798FCA70AC4F34806C6F50074A54253
:104A100000D82C46DFF8ACB04FF0006000EB8720E8
:104A200081464FF400722749FFF7D4FF00204FF66C
:104A3000FF7206E033183BF81310914203D1401C7B
:104A400080B2A042F6D3A0422DD24846FCF72CFB00
:104A500041F28830FCF776FB1B48016921F0020126
:104A600001610020594606E038F810208319401CE7
:104A700021F8132080B2A042F6D348464FF40072CA
:104A8000104900F023F8A54215D0281B08EB440874
:104A90000AEB440A002685B24FF400747F1CA5423D
:104AA000BAD82C46B8E741F28830FCF74BFB2246D7
:104AB00041465046E5E7BDE8F05FFCF7EFBBBDE8D7
:104AC000F09F0000403E0020002002402DE9F04110
:104AD00016460F460546002409E037F81420002347
:104AE00029460120FCF7E4FB641CA4B2AD1CB442CF
:104AF000F3D3BDE8F081000010B5502080F3118899
:104B0000BFF34F8FBFF36F8F03F0F2FD18B104496D
:104B10004FF080500860002080F3118810BD000025
:104B200004ED00E070B594B028216846FBF7DBFB8C
:104B300014210AA8FBF7D7FB002401250F940A20B3
:104B400000901020CDE9045012944FF4601010949E
:104B500011940226CDE90840CDE906566846FCF7D7
:104B600093FF08B172B6FEE70F20CDE90A064FF4B5
:104B70008060CDE90C4002210AA80E94FCF772FE79
:104B800008B172B6FEE74FF40070CDE90F500FA8E0
:104B9000FCF7F4FD002801D072B6FEE714B070BD3A
:104BA000704700000148FDF738BB00008007002077
:104BB000F0B50268164C174D174E4FF08047A042D3
:104BC00005D0B84203D0A84201D0B04203D122F0B0
:104BD00070034A681A43A04205D0B84203D0A842E5
:104BE00001D0B04203D122F44073CA681A434B6922
:104BF00022F080021A4302608A68C2620A688262F6
:104C0000A04201D10969016301214161F0BD0000A9
:104C1000002C0140000400400008004010B5406A2C
:104C20000021C185C184FDF7EFFB10BD0168CA6892
:104C300022F49072CA6001684A6922F001024A6156
:104C4000016B012904D10168CA6822F01002CA6010
:104C5000202180F83E1000210163704708B590F8CC
:104C60003E10222901D0022008BD81684FF48053F4
:104C7000994201D1026922B1826A99421BD049B19D
:104C80000AE00268816A5268C2F308020A80816AF7
:104C9000891C08E0016971B10168496801F07F0170
:104CA0001170816A491C8162C18D491E0904090C79
:104CB000C18503D019E001684968F1E70168CA6855
:104CC00022F02002CA600168CA6822F48072CA60B9
:104CD00001684A6922F001024A61202180F83E10F1
:104CE000016B012903D0FDF709FD002008BD00215B
:104CF00001630168CA6822F01002CA6001680A688C
:104D0000D20602D50A6849680091818DFDF768FBDB
:104D1000EBE7000070B5044600680169E26821F421
:104D2000405111430161A168206901436069014359
:104D30002068C26841F20C639A430A43C26020684B
:104D40004169A26921F44071114341611E49206803
:104D5000884202D1FCF752FE01E0FCF73FFE00EB77
:104D6000C00101EB0011606864228000B1FBF0F328
:104D7000B3FBF2F36FF018067343B1FBF0F5B1FB30
:104D8000F0F605EB8305322303EB0515B5FBF2F5D1
:104D9000B6FBF2F605F0F00505EB0615B1FBF0F6F3
:104DA000B1FBF0F0B0FBF2F06FF01801484306EBF6
:104DB000800003EB0010B0FBF2F0216800F00F0060
:104DC0002844886070BD00000038014081628285FF
:104DD000C28500210164222280F83E2080F83C1028
:104DE0000168CA6842F48072CA6001684A6942F088
:104DF00001024A610068C16841F02001C1600020E1
:104E000070472DE9F0411E46174688460446069D28
:104E10001CE0681C1AD025B1FCF794FB801BA8424B
:104E200014D92068C16821F4D071C160206841693B
:104E300021F001014161202084F83D0084F83E000A
:104E4000002084F83C000320BDE8F0812068016860
:104E500038EA010004D00020B842DAD00020F3E79D
:104E60000120F9E70148FDF7D1BA00003C07002016
:104E70000B48FEF743F9002803DA0AA1104800F0B6
:104E800022F8074CFFF770F8012805D1201DFEF726
:104E900061FF08B9FEF7FFFF0A2000F0CAFEF1E744
:104EA000844300204D71747453616D706C655F496B
:104EB0006E6974204661696C65640D0A000000002B
:104EC0003C070020FEE770470FB4084B10B504A95B
:104ED00002AA039800F07EF9044602A9002000F01F
:104EE00010FD204610BC5DF814FB000003590008BB
:104EF000490050EAC12018BF04204A0D18BF40F0F5
:104F0000010040F2FF72B2EB515F08BF40F00200B7
:104F1000012808BF052070470907090E002804DB97
:104F200000F1E02080F80014704700F00F0000F15D
:104F3000E02080F8141D70472DE9F0414F1E00EB72
:104F4000C7010446D1E9000115461E4637F00602A6
:104F50000DD02A463346FBF723FB7F1E04EBC70325
:104F6000D3E90023FBF775FA37F00602F1D1022FDF
:104F700025D0042F13D0062F18BFBDE8F0812A4694
:104F80003346FBF70DFBD4E90A23FBF762FA2A4606
:104F90003346FBF705FBD4E90823FBF75AFA2A4608
:104FA0003346FBF7FDFAD4E90623FBF752FA2A460B
:104FB0003346FBF7F5FAD4E90423FBF74AFA2A460D
:104FC0003346FBF7EDFAD4E90223FBF742FA2A460F
:104FD0003346FBF7E5FAD4E90023BDE8F041FBF7DF
:104FE00038BA00000022134610460149FBF734BDD1
:104FF0000000F03FFBF72DBA002213461046114681
:10500000FBF72ABD40F2013200204FF0E041FBF7F0
:1050100092BD0000024A00201107FBF78CBD000082
:1050200001FDFFFF02E008C8121F08C1002AFAD1E3
:1050300070477047002001E001C1121F002AFBD118
:10504000704700000149086070470000900100208F
:105050002DE9FF5F82B00021DDE90430020DDDF8AB
:1050600040B0034318D044F61050A2F2FF3242433E
:105070001514119801281FD0A5EB0B00401C5FEA06
:10508000000A4FF000064E4FDFF83891B046504608
:1050900015D5CAF1000413E0119801244AA3012890
:1050A00001D16FEA0B010298119AC0E90031C0E901
:1050B000024206B0BDE8F09FCBF10000DFE70446F6
:1050C0000021404A491842EB0450CDE9001012E09B
:1050D000E00707D032463B4640464946FBF760FAB8
:1050E0008046894632463B4610461946FBF758FA39
:1050F00006460F466410002CEAD1DDE90401DDE923
:105100000023BAF1000F06DAFBF74AFA42464B4693
:10511000FBF746FA05E0FBF79FFC42464B46FBF7E0
:105120009BFC04460E460022284BFBF735FB03D8B8
:105130004FF0FF30014607E00022254B2046314664
:10514000FBF787F9FBF70EFD102409E0002C0ADBC2
:105150000A220023FBF74EFB039B30321A55641ED4
:1051600050EA0102F2D1641C039AC4F11103144401
:10517000119A012A03D0012208430DD10AE0084305
:1051800004D000204FF0110B119072E7A3EB0B0538
:105190006D1E0DE05B4504DD4FF0000205F10105D9
:1051A00004E003DA4FF00002A5F10105002AECD07B
:1051B00002981199C0E90231C0E9004579E7000081
:1051C000000014400000F03F300000000000F043F9
:1051D0000000E03F2DE9FF4F95B09B46894606460B
:1051E00000250FE2252877D100242746F84A01211F
:1051F000059400E0044316F8013F203B01FA03F058
:105200001042F7D130782A2811D06FF02F03307870
:10521000A0F13002092A16D8059A44F0020402EBE4
:10522000820203EB42021044761C0590EFE759F826
:10523000042B0592002A03DA504244F400540590EE
:1052400044F00204761C30782E2816D116F8010F8F
:1052500044F004042A280DD06FF02F023078A0F11A
:105260003003092B09D807EB870302EB4303C71868
:10527000761CF3E759F8047B761C30786C280FD045
:1052800006DC4C2817D068280DD06A2814D104E019
:10529000742810D07A280FD10DE044F400140AE0ED
:1052A00044F4801401E044F440147278824202D144
:1052B00004F58014761C761C307866280BD013DC3D
:1052C000582877D009DC002875D04528F6D0462824
:1052D000F4D047281AD19DE118E0632835D064281E
:1052E00079D0652812D195E1702873D008DC672841
:1052F000F1D069286FD06E280DD06F2806D1B5E0A7
:1053000073282CD0752875D0782874D05A461799F0
:1053100090476D1C75E1C4F30250022809D00328A0
:105320000DD0D9F8001004280DD00D6009F1040942
:1053300067E1D9F80010EA17C1E90052F6E7D9F899
:1053400000100D80F2E70D70F0E719F8041B8DF8DE
:10535000001000208DF80100EA46012003E059F812
:1053600004AB4FF0FF3061074FF0000102D40DE0B5
:1053700008F101018846B9420FDA8045F8DB1AF8D6
:1053800008100029F4D108E008F1010188468142A3
:10539000FADB1AF808100029F6D105985B46A0EB55
:1053A000080721463846179A00F094FA284400EB83
:1053B000080507E04DE029E10DE01AF8010B5A4617
:1053C00017999047B8F10108F7D25B462146384655
:1053D000179A13E142E00A220092C4F302524FF0FE
:1053E000000A022A08D059F804CB032A4FEAEC71CC
:1053F0000AD00DE029E02AE009F1070121F00702B7
:10540000F2E802C1914609E00FFA8CFC4FEAEC7118
:10541000042A03D14FFA8CFC4FEAEC71002907DA19
:105420000A460021DCF1000C61EB02012D2202E0B2
:10543000220504D52B228DF80420012203E0E20787
:1054400001D02022F7E7904659E00A2102E010221D
:105450000DE010214FF0000A00910BE010224FF0F8
:10546000000A44F004040827009203E008224FF0E9
:10547000000A0092C4F30252022A05D059F804CB64
:105480000021032A08D009E009F1070121F00702F1
:10549000F2E802C1914605E01FFA8CFC042A01D112
:1054A0000CF0FF0C4FF00008220728D5702806D01A
:1054B000009B83F0100353EA0A0305D00EE040225C
:1054C0008DF80420012208E05CEA010206D03022B7
:1054D0008DF804208DF8050002229046009B83F091
:1054E000080353EA0A030AD15CEA010201D1620708
:1054F00005D530228DF804204FF001087F1E582872
:1055000004D034A003900EA802900DE036A0F9E775
:1055100053466046009AFBF76DF984460398825C17
:105520000298401E029002705CEA0100F0D10298DD
:1055300006A9081A00F1200A600702D524F4803475
:1055400000E00127574502DDA7EB0A0000E000203C
:1055500000EB0A01009005984144401A0590E003D1
:1055600006D45B462146179A059800F0B3F9054426
:10557000002706E001A85A46C05D179990476D1CA8
:105580007F1C4745F6DBE0030CD55B462146179AA6
:10559000059800F09FF9054404E030205A46179919
:1055A00090476D1C0099481E00900029F5DC08E02A
:1055B000029802995A460078491C0291179990471F
:1055C0006D1CBAF10001AAF1010AF1DC65E10000ED
:1055D00009280100303132333435363738396162C9
:1055E000636465660000000030313233343536378D
:1055F00038394142434445460000000000F058F964
:105600000544761C307800287FF4ECAD19B02846AC
:10561000BDE8F08F620700D4062709F1070222F0E7
:10562000070CFCE80223E14603F000485FEA080C9F
:1056300002D00FF2702C0DE05FEA045C02D50FF28D
:10564000682C07E05FEAC47C02D00FF2602C01E016
:10565000AFF2700C4FF0FF3823F00043CDF850C08C
:1056600065280CD006DC452809D046281DD04728DF
:105670003DD13DE0662818D067287ED138E0002172
:10568000112F01DB112000E0781CCDE9000106A9F3
:105690000EA8FFF7DDFCDDE90F010E9A0391002152
:1056A000009207F1010A04914DE04FF0004000978D
:1056B000CDE9011006A90EA8FFF7CAFCDDE90F022B
:1056C00003920E9B11990022DDF80CA00093049226
:1056D00011B9791C00EB010AB7EB0A0004D4C0F140
:1056E000FF3007F1010A0490AAEB0700019044E0A3
:1056F000012F00DA01270021112F01DD112000E028
:105700003846CDE9000106A90EA8FFF7A1FCDDE9A6
:105710000F010E9A0391002104910092BA462107CD
:105720000CD40399514500DA8A46BAF1010F05DD20
:10573000009AAAF10101515C302908D0B84202DA7E
:1057400010F1040F06DA0121CDE9011015E0AAF1EC
:105750000101E9E7002805DC049901440491AAEB62
:10576000000102E0411C514500DD8A460499401ABF
:10577000401C01904FF000400290200704D4019893
:10578000504501DBCDF8048000208DF84F000298D1
:105790000DF14F07B0F1004F25D02B200E9002984D
:1057A0004FF0020800280CDA404202902D200E90A3
:1057B00007E00A210298FBF707F83031029007F85A
:1057C000011DB8F10001A8F10108F2DC02980028DF
:1057D000EFD1791E0E980870307800F0200040F06C
:1057E000450007F8020D12A8C01B00F10708149825
:1057F000007800B1012000EB0A01019801EBE07193
:1058000005984144401A401E0590E00306D45B46CB
:105810002146179A059800F05DF805441498007821
:1058200018B15A46179990476D1CE00324D55B4682
:105830002146179A059800F04DF805441CE004989D
:10584000002807DBDDE90301884203DD0098405CA6
:10585000179901E0179930205A469047049805F1AE
:105860000105401C04900198401E019004D12E2097
:105870005A46179990476D1CBAF10001AAF1010A26
:10588000DDDC05E017F8010B5A46179990476D1CAF
:10589000B8F10001A8F10108F4DC5B462146179A33
:1058A0000598ABE62D0000002B0000002000000052
:1058B0002DE9F041044600251E461746880404D40D
:1058C00005E039462020B0476D1C641EF9D52846F6
:1058D000BDE8F0812DE9F041044600251E469046C2
:1058E000C80301D5302700E02027880404D505E04F
:1058F00041463846B0476D1C641EF9D52846BDE8C0
:10590000F0810A68531C0B60107070478268002990
:1059100001D01AB981607047020002D010680028D7
:10592000FAD111604A60704770B514000D46064602
:105930000ED0206A10B1074949688847284600F010
:10594000DDF8206221463046BDE87040FFF7DEBF3B
:1059500070BD0000A800002070B505460E4600F09E
:1059600065F8040008D00320E060C4E90656284624
:105970003146FAF7C7FE6061204670BD10B500F0F1
:1059800055F8002801D00621C16010BD70B505464C
:1059900000F04CF8040005D00420E060284600F038
:1059A000ADF82061204670BD70B504460D4E16E07E
:1059B000A0892568C0050AD4A06820B1FFF7F4FFCC
:1059C000A089C00503D4206908B171688847206A9E
:1059D00008B1716888477168204688472C46002CBA
:1059E000E6D170BDA8000020806801E00068491E73
:1059F000002801D00029F9DC70478168002001E00F
:105A00000968401C0029FBD1704770B50D4600287D
:105A10000AD0846800E024682CB12946206A00F08E
:105A20004BF80028F7D1204670BD0000054910B59D
:105A3000096828208847040002D02821FAF753FC7F
:105A4000204610BDA800002000221146AFF30080C0
:105A50002DE9F04190460E460446FFF7E7FF134F4D
:105A600005004FF00000B86015D0204602F0E2F8C3
:105A70000146284600F060FB04000FD0B8F1000F8B
:105A800010D0204602F0D6F80446007850B12846DF
:105A9000FFF78AFFBC600020BDE8F0812846FFF7D1
:105AA00083FFF8E706B134602846F5E7A800002038
:105AB0000122002101F02CBB70B504000D4601D07D
:105AC0000DB108E009B1012070BD002070BD0028B3
:105AD000FCD0641C6D1C2078FAF784FB06462878FD
